:100000000C94E8190C94121A0C94121A0C94121AEB
:100010000C94121A0C94121A0C94121A0C94121AB0
:100020000C94121A0C94121A0C94121A0C94121AA0
:100030000C94121A0C9431870C94121A0C94121A04
:100040000C94121A0C948C690C94B5DF0C94121A4F
:100050000C94CF460C94121A0C94121A0C94121A87
:100060000C94121A0C94121A0C94121A0C94121A60
:100070000C94121A0C94121A0C94121A0C94121A50
:100080000C94121A0C94121A0C94121AC3DDC6DDC9
:10009000B9DDBDDDDDDDDDDDCADDCEDDD4DDD8DD04
:1000A00024DF29DF2EDF38DF66DF66DF42DF4ADF4D
:1000B00052DF5CDF084AD73B3BCE016E84BCBFFDFC
:1000C000C12F3D6C74319ABD56833DDA3D00C77F28
:1000D00011BED9E4BB4C3E916BAAAABE00000080C1
:1000E0003F05A84CCDB2D44EB93836A9020C50B950
:1000F000918688083CA6AAAA2ABE000000803F007C
:100100004E414E494E495459494E46CDCCCC3D0AFC
:10011000D7233C17B7D13877CC2B329595E6241FDF
:10012000B14F0A000020410000C84200401C462098
:10013000BCBE4CCA1B0E5AAEC59D7400407A10F36B
:100140005A00A0724E18090010A5D4E80000E87605
:1001500048170000E40B54020000CA9A3B0000005C
:10016000E1F505000080969800000040420F000075
:1001700000A08601000000102700000000E8030036
:100180000000006400000000000A00000000000100
:1001900000000000002C76D888DC674F0823DFC100
:1001A000DFAE59E1B1B796E5E3E453C63AE65199BB
:1001B0007696E8E6C28426EB898C9B62ED407C6FE4
:1001C000FCEFBC9C9F40F2BAA56FA5F490055A2A9B
:1001D000F75C936B6CF9676DC11BFCE0E40D47FEA7
:1001E000F520E6B500D0ED902E030094357705009C
:1001F00080841E080000204E0A000000C80C333323
:1002000033330F986E12831141EF8D2114893BE631
:100210005516CFFEE6DB18D1844B381BF77C1D90BA
:100220001DA4BBE424203284725E228100C9F12423
:10023000ECA1E53D2747322F4733206261642070EF
:100240006172616D65746572730A00536C656570E7
:100250002E2E2E00206F6620004D424C2047323952
:1002600020706F696E74200059206F7574206F665E
:100270002072616E67652028312D33292E0A0058BF
:10028000206F7574206F662072616E67652028315B
:100290002D33292E0A004D6573682070726F6269D4
:1002A0006E6720646F6E652E0A005374617274204D
:1002B0006D6573682070726F62696E67207769740C
:1002C00068202247323920533122206669727374C4
:1002D0002E0A004732380A4732392053320053740D
:1002E0006174653A20004D65736820626564206C16
:1002F0006576656C696E6720686173206E6F206437
:100300006174612E0A0053206F7574206F6620722D
:10031000616E67652028302D35292E0A004D6573E2
:100320006820706F696E742063616E6E6F742062F6
:1003300065207265736F6C7665640A004E6F204DA0
:100340006F76652E00456E642066696C65206C6969
:1003500073740A00426567696E2066696C65206C7B
:100360006973740A00286E6F2066696C65290053F2
:1003700044207072696E74696E67206279746520BA
:10038000004E6F74205344207072696E74696E67FA
:100390000A0043757272656E742066696C653A2056
:1003A000005072696E742074696D653A20004B4983
:1003B0004C4C45442E20004D313133205300205702
:1003C0003A0042656420436F6F6C696E6720446F2A
:1003D000776E2E2E2E004265642048656174696E2A
:1003E000672055702E2E2E0057616E68616F206950
:1003F00033204F66662E002F2F20004D31343520DC
:10040000533C696E6465783E206F7574206F66207A
:1004100072616E67652028302D31290A0020540052
:10042000205200416363656C65726174696F6E3A56
:100430002050005741524E494E4721204C6F7720A3
:100440005A204A65726B206D6179206C6561642069
:10045000746F20756E77616E74656420706175735A
:1004600065732E0A00486F6D65202573257325730B
:10047000206669727374002066697273740A005A88
:100480000059005800486F6D6520004F666673651F
:100490007473204170706C696564004572723A2013
:1004A000546F6F206661722100546F6F2066617215
:1004B0002066726F6D207265666572656E63652079
:1004C000706F696E740A00205A002059005800208D
:1004D000204D61783A2000205A0020590058002011
:1004E000204D696E3A20004F6E20004F6666005323
:1004F0006F667420656E6473746F70733A200020A9
:10050000466C6F773A200000010F150E12FFFFFFB7
:10051000FF16170E13FFFFFFFF03021A14FFFFFF62
:10052000FFFFFFFF0C04FFFFFF01000EFFFFFF0CAA
:10053000190DFF1820643A0020693A0020703A0033
:10054000496E76616C696420657874727564657251
:100550000A0043290A0061626C656420286D696E97
:100560002074656D702000436F6C64206578747230
:100570007564657320617265200023646566696E29
:10058000652044454641554C545F4B64200023642C
:100590006566696E652044454641554C545F4B691C
:1005A000200023646566696E652044454641554CCC
:1005B000545F4B702000504944204175746F74752E
:1005C0006E652066696E6973686564212050757474
:1005D00020746865206C617374204B702C204B690B
:1005E00020616E64204B6420636F6E7374616E745F
:1005F000732066726F6D2062656C6F7720696E7410
:100600006F20436F6E66696775726174696F6E2ED5
:10061000680A00504944204175746F74756E6520F6
:100620006661696C6564212074696D656F75740A13
:1006300000453120544845524D414C2052554E41C1
:10064000574159203A2800546865726D616C2052F8
:10065000756E617761790045312048656174696E16
:1006600067204661696C65640048656174696E67FE
:10067000206661696C656400504944204175746F5F
:1006800074756E65206661696C6564212054656DC2
:10069000706572617475726520746F6F2068696728
:1006A000680A00204B643A2000204B693A20002061
:1006B0004B703A20000A20436C61737369632050C9
:1006C0004944200A002054753A2000204B753A20F6
:1006D00000206D61783A2000206D696E3A2000207C
:1006E000643A200020626961733A20005049442036
:1006F0004175746F74756E65206661696C656421FF
:1007000020426164206578747275646572206E752C
:100710006D6265720A00504944204175746F7475AA
:100720006E652073746172740A004E6F206361738A
:1007300065206C696768740A004F66660A00466146
:100740006465204865696768742000426564204CD0
:100750006576656C696E6720004661696C6564202A
:10076000746F20656E61626C6520426564204C6523
:1007700076656C696E670A004D6573682042656432
:10078000204C6576656C20646174613A0A004D65A1
:10079000736820706F696E742063616E6E6F742071
:1007A0006265207265736F6C7665640A004D343241
:1007B0003120696E636F727265637420706172615B
:1007C0006D657465722075736167650A00454550F3
:1007D000524F4D2064697361626C65640A00416325
:1007E000746976652045787472756465723A200084
:1007F000496E76616C69642065787472756465729F
:100800000A002569730025696D2025697300256933
:10081000682025696D202569730025696420256994
:10082000682025696D20256973002569792025696F
:1008300064202569682025696D20256973004E6F45
:1008400020436865636B73756D2077697468206CED
:10085000696E65206E756D6265722C204C617374D3
:10086000204C696E653A20004B494C4C45442E2083
:100870000053544F505045442E20005072696E74FE
:1008800065722073746F7070656420647565207480
:100890006F206572726F72732E20466978207468BB
:1008A00065206572726F7220616E642075736520B9
:1008B0004D39393920746F20726573746172742EEA
:1008C000202854656D706572617475726520697356
:1008D0002072657365742E205365742069742061DD
:1008E000667465722072657374617274696E6729CB
:1008F0000A004E6F20436865636B73756D207769DE
:100900007468206C696E65206E756D6265722C204E
:100910004C617374204C696E653A200063686563AE
:100920006B73756D206D69736D617463682C204CF9
:10093000617374204C696E653A20004C696E6520C5
:100940004E756D626572206973206E6F74204C6104
:100950007374204C696E65204E756D6265722B3123
:100960002C204C617374204C696E653A20004D3127
:100970003130004D3331005344207265616420658D
:1009800072726F720A00446F6E65207072696E74C5
:10099000696E672066696C650A0020496E76616C35
:1009A00069642065787472756465722000000000C7
:1009B0000000000000000000000000484300004864
:1009C0004300000C43486F6D696E67206661696C77
:1009D00065642100206E6F7420656E7465726564B5
:1009E0002E0A00436C69636B20746F207265737507
:1009F0006D652E2E2E0046696C652064656C6574ED
:100A000065643A0044656C6574696F6E206661695F
:100A10006C65642C2046696C653A200043616E6EFB
:100A20006F74206F70656E20737562646972200048
:100A300048617264636F6465642044656661756CC7
:100A4000742053657474696E6773204C6F616465BC
:100A5000640A00BC020000BC020000640000001038
:100A600027000000009643000096430000A04000CD
:100A700000C8410000A0420000A0420000C843009E
:100A800000C84220286D6D29002044002049002024
:100A9000204D333031205000504944207365747428
:100AA000696E67733A0A0020460020420020480021
:100AB00020204D3134352053004D617465726961D9
:100AC0006C2068656174757020706172616D657409
:100AD0006572733A0A00205A0020590020204732DC
:100AE00039205333205800205A0020204D34323012
:100AF0002053004D65736820426564204C6576651F
:100B00006C696E673A0A00205A0020590020204D77
:100B1000323036205800486F6D65206F6666736509
:100B2000743A0A00204500205A002059002058003D
:100B300020540020530020204D3230352051002019
:100B4000453C6D61785F655F6A65726B3E00205859
:100B50003C6D61785F785F6A65726B3E20593C6DD1
:100B600061785F795F6A65726B3E205A3C6D61788F
:100B70005F7A5F6A65726B3E00416476616E6365A1
:100B8000643A20513C6D696E5F7365676D656E7484
:100B90005F74696D655F75733E20533C6D696E5F70
:100BA00066656564726174653E20543C6D696E5F74
:100BB00074726176656C5F66656564726174653ECA
:100BC0000020540020520020204D323034205000AC
:100BD000416363656C65726174696F6E2028756E20
:100BE0006974732F7332293A20503C7072696E74A5
:100BF0005F616363656C3E20523C72657472616331
:100C0000745F616363656C3E20543C747261766509
:100C10006C5F616363656C3E0A00204500205A00EA
:100C200020590020204D3230312058004D61786924
:100C30006D756D20416363656C65726174696F6E7B
:100C40002028756E6974732F7332293A0A00204583
:100C500000205A0020590020204D32303320580007
:100C60004D6178696D756D20666565647261746546
:100C7000732028756E6974732F73293A0A00204512
:100C800000205A0020590020204D393220580053AE
:100C9000746570732070657220756E69743A0A000D
:100CA00020204D3230302044300A0020204D323098
:100CB000302044002044697361626C65640A004618
:100CC000696C616D656E742073657474696E6773A9
:100CD0003A0020204D3134392043203B20556E69A5
:100CE000747320696E2043656C736975730A002004
:100CF00020473231202020203B004D3234004D323D
:100D00003320257300556E6B6E6F776E20636F6DA9
:100D10006D616E643A202200534420636172642046
:100D20006F6B0A006F70656E526F6F742066616939
:100D30006C65640A00766F6C756D652E696E6974FA
:100D4000206661696C65640A00534420696E6974A9
:100D5000206661696C0A00000048420000484200B9
:100D60000080400000000057726974696E6720744B
:100D70006F2066696C653A20006F70656E20666151
:100D8000696C65642C2046696C653A20006F70655B
:100D90006E206661696C65642C2046696C653A203A
:100DA0000046696C652073656C65637465640A0050
:100DB0002053697A653A200046696C65206F70653A
:100DC0006E65643A20002066696C653A2000646FA5
:100DD000696E67006672657368004E6F7720004524
:100DE0004E4420535542524F5554494E450A002215
:100DF00020706F73002220706172656E743A220059
:100E0000535542524F5554494E452043414C4C2076
:100E10007461726765743A22004B494C4C45442E0C
:100E20002000747279696E6720746F2063616C6C46
:100E3000207375622D67636F64652066696C6573E6
:100E4000207769746820746F6F206D616E79206CF3
:100E50006576656C732E204D4158206C6576656C07
:100E60002069733A004572726F723A0043616E6E88
:100E70006F74206F70656E207375626469722000F4
:100E80006563686F3A00656E7175657565696E6753
:100E900020220000000000000000000000000057B9
:100EA00061726E696E673A20486F6D696E672042A5
:100EB000756D702044697669736F72203C20310A29
:100EC000000202040000A0400000A040000000401A
:100ED000000048430000484300000C43FFFFFF00B0
:100EE000002110422063308440A550C660E770089E
:100EF0008129914AA16BB18CC1ADD1CEE1EFF13125
:100F000012100273325222B5529442F772D66239ED
:100F10009318837BB35AA3BDD39CC3FFF3DEE36274
:100F200024433420040114E664C774A44485546A3D
:100F3000A54BB528850995EEE5CFF5ACC58DD55304
:100F400036722611163006D776F6669556B4465B8D
:100F5000B77AA719973887DFF7FEE79DD7BCC7C4D4
:100F600048E5588668A7784008611802282338CCDD
:100F7000C9EDD98EE9AFF9488969990AA92BB9F564
:100F80005AD44AB77A966A711A500A333A122AFD2D
:100F9000DBDCCBBFFB9EEB799B588B3BBB1AABA634
:100FA0006C877CE44CC55C222C033C600C411CAE7D
:100FB000ED8FFDECCDCDDD2AAD0BBD688D499D9744
:100FC0007EB66ED55EF44E133E322E511E700E9FCD
:100FD000FFBEEFDDDFFCCF1BBF3AAF599F788F8894
:100FE00091A981CAB1EBA10CD12DC14EF16FE18065
:100FF00010A100C230E3200450254046706760B95C
:10100000839893FBA3DAB33DC31CD37FE35EF3B1B4
:10101000029012F322D2323542145277625672EAAB
:10102000B5CBA5A89589856EF54FE52CD50DC5E204
:1010300034C324A01481046674476424540544DB3B
:10104000A7FAB79987B8975FE77EF71DC73CD7D354
:1010500026F2369106B01657667676154634564C0B
:10106000D96DC90EF92FE9C899E9898AB9ABA944A4
:1010700058654806782768C018E1088238A3287D9B
:10108000CB5CDB3FEB1EFBF98BD89BBBAB9ABB75F4
:101090004A545A376A167AF10AD01AB32A923A2E6B
:1010A000FD0FED6CDD4DCDAABD8BADE89DC98D2644
:1010B0007C076C645C454CA23C832CE01CC10C1F7B
:1010C000EF3EFF5DCF7CDF9BAFBABFD98FF89F1794
:1010D0006E367E554E745E932EB23ED10EF01E7C5F
:1010E0003C3E5E2B3D3F2F5B5D3B2C2A225C00AEDD
:1010F000002C01BA002701C7002201D6001D01E61D
:10110000001801F70013010A010E011F0109013542
:101110000104014E01FF006A01FA008801F500AAEE
:1011200001F000CE01EB00F701E6002402E10056D9
:1011300002DC008D02D700CA02D2000E03CD005A95
:1011400003C800AE03C3000C04BE007504B900EA76
:1011500004B4006C05AF00FE05AA00A106A5005767
:1011600007A00022089B0004099600010A91001ABA
:101170000B8C00510C8700AA0D8200260F7D00C841
:101180001078008F1273007E146E0094166900CEE2
:101190001864002A1B5F00A31D5A0034205500D399
:1011A0002250007A254B001E284600B52A41003502
:1011B0002D3C00962F3700D0313200DD332D00B9A1
:1011C00035280063372300DA381E00203A1900372B
:1011D0003B1400243C0F00E93C0A008D3D05001241
:1011E0003E0000453120544845524D414C20525557
:1011F0004E41574159203A28004245442054484521
:10120000524D414C2052554E41574159203A2800E9
:10121000546865726D616C2052756E6177617900FA
:101220004531204572723A204D415854454D500089
:101230004572723A204D415854454D502042454424
:10124000004D415854454D5020747269676765726E
:101250006564004531204572723A204D494E54452F
:101260004D50004572723A204D494E54454D502024
:10127000424544004D494E54454D502074726967B3
:101280006765726564004D383420582059205A2013
:101290004500202F002042403A0020403A0000063E
:1012A0000900FE0701920321207FFF07FF07FF00CF
:1012B0000000060000010707060200808080808091
:1012C0000080030202060105A0A005070706000032
:1012D0005050F850F850500507070600002078A03D
:1012E0007028F020050707060000C0C810204098AD
:1012F000180507070600006090A040A89068020348
:1013000003060104C0408003070706010020408057
:1013100080804020030707060100804020202040F5
:101320008005050506000120A870A8200505050612
:1013300000012020F820200203030602FFC04080A5
:10134000050101060003F8020202060200C0C00502
:10135000050506000108102040800507070600006B
:101360007088888888887003070706010040C0409D
:10137000404040E005070706000070880870808044
:10138000F8050707060000F81020100808F0050708
:101390000706000010305090F810100507070600EF
:1013A00000F880F0080888700507070600007080C4
:1013B00080F0888870050707060000F808102020D4
:1013C000202005070706000070888870888870054F
:1013D000070706000070888878080870020505066F
:1013E0000200C0C000C0C00206060602FFC0C00066
:1013F000C0408004070706000010204080402010F5
:10140000050303060002F800F80407070601008040
:101410004020102040800507070600007088081053
:1014200020002005070706000070880868A8A8703B
:10143000050707060000708888F888888805070770
:10144000060000F08888F08888F00507070600008D
:1014500070888080808870050707060000F0888803
:10146000888888F0050707060000F88080F08080F3
:10147000F8050707060000F88080F08080800507E7
:1014800007060000708880B8888870050707060086
:1014900000888888F888888801070706020080800D
:1014A000808080808005070706000038101010102B
:1014B00090600507070600008890A0C0A0908805EE
:1014C0000707060000808080808080F805070706F7
:1014D000000088D8A8888888880507070600008843
:1014E00088C8A8988888050707060000708888883B
:1014F000888870050707060000F08888F0808080E3
:1015000005070706000070888888A8906805070707
:10151000060000F08888F0A0908805070706000004
:10152000788080700808F0050707060000F8202082
:1015300020202020050707060000888888888888E2
:1015400070050707060000888888888850200507EE
:10155000070600008888888888A8500507070600C5
:101560000088885020508888050707060000888872
:101570008850202020050707060000F808102040AA
:1015800080F8030707060100E08080808080E00586
:10159000050506000180402010080307070601002A
:1015A000E02020202020E0050303060004205088CE
:1015B000050101060000F80202020602058040054E
:1015C0000505060000700878887805070706000002
:1015D0008080B0C88888F00505050600007080800E
:1015E000887005070706000008086898888878054D
:1015F00005050600007088F88070050707060000E2
:101600003048E0404040400506060600FF708888EC
:101610007808700507070600008080B0C8888888B1
:101620000107070602008000808080808003080890
:101630000601FF200020202020A04004070706000C
:1016400000808090A0C0A090030707060100C04062
:1016500040404040E0050505060000D0A8A8A8A825
:10166000050505060000B0C8888888050505060040
:101670000070888888700506060600FFF08888F0EC
:1016800080800506060600FF78888878080805052A
:1016900005060000B0C880808005050506000070C2
:1016A000807008F00407070600004040E04040401A
:1016B0003005050506000088888898680505050638
:1016C000000088888850200505050600008888A845
:1016D000A85005050506000088502050880506061C
:1016E0000600FF888888780870050505060000F860
:1016F000102040F8030707060100204040804040CA
:101700002001070706020080808080808080030718
:10171000070601008040402040408005020206008C
:101720000268900000000600004C6576656C696EEA
:101730006720436F6D706C65746521004D6F766531
:10174000205A00473239205332004E6578742050B9
:101750006F696E74002569202F2025750047323986
:101760002053310047323920533200436C69636B98
:1017700020746F20537461727400486F6D696E67D6
:101780002058595A0047323800426564205A0042B6
:101790006564205A0046616465204865696768741D
:1017A000004661646520486569676874004F666635
:1017B000004F6E2000426564204C6576656C696E52
:1017C00067004C6576656C204265640050726570F8
:1017D000617265004D34323800507265686561741D
:1017E00020504C4100436F6F6C646F776E005072F5
:1017F0006568656174204142530044697361626C9D
:1018000065205374657070657273004D38340053F1
:10181000657420486F6D65204F666673657473004C
:10182000426564204C6576656C696E67004175742D
:101830006F20486F6D6500473238004D6F76652028
:1018400041786973004D61696E004D6F766520586F
:10185000004D6F76652059004D6F7665205A004522
:1018600078747275646572004D6F766520302E3124
:101870006D6D004D6F766520316D6D004D6F766535
:101880002031306D6D004D6F7665204178697300B1
:101890004578747275646572004D6F7665205A00E4
:1018A0004D6F76652059004D6F7665205800507257
:1018B000696E742041626F72746564004D3231004C
:1018C0004E6F205344204361726400456A6563741F
:1018D0002053442043617264004D323100507269DC
:1018E0006E742066726F6D2053440053746F7020C5
:1018F0005072696E7400526573756D65205072691F
:101900006E7400496E69742E2053442043617264E2
:10191000005061757365205072696E7400436F6E7C
:1019200074726F6C00507265706172650054756EF0
:101930006500437573746F6D20436F6D6D616E64E8
:101940007300496E666F2053637265656E00466C66
:101950006F7700466C6F770046616E207370656527
:10196000640046616E2073706565640042656400C2
:10197000426564004E6F7A7A6C65004E6F7A7A6CBD
:101980006500466164652048656967687400466162
:1019900064652048656967687400426564205A0080
:1019A000426564205A005370656564005370656534
:1019B00064004D61696E0050726568656174205005
:1019C0004C4120456E64005072656865617420501A
:1019D0004C41204265640050726568656174205016
:1019E0004C410050726570617265005072656865A7
:1019F00061742041425320456E64005072656865F1
:101A000061742041425320426564005072656865EC
:101A10006174204142530050726570617265004BE1
:101A2000494C4C45442E2000202D20496E76616C97
:101A30006964206578747275646572206E756D6274
:101A4000657220210A002000000000000000000054
:101A50000000000000044000000000000000000042
:101A600000000000000280000000000000000000F4
:101A700000000000000100000003800000000000E2
:101A800000000000000000000003800000000000D3
:101A90000000000000000000000100000000000045
:101AA0000000000000000000000100000000000035
:101AB0000000000000000000000100000000000025
:101AC0000000000000000000000100000000000015
:101AD00000000000000000000007C00000000F0030
:101AE0000100000F00000001FFFFFE000000088061
:101AF0008100000880000003FFFFFFFFC00008BD59
:101B0000C13C1E08BD200003000003FC40000F2460
:101B10008124020F2520000300000004780008A49F
:101B20009D25DEE8A4C0000300000004080008A40E
:101B300081241208A52000033FFF000408000F3C89
:101B4000C1241E0F3D2000033FFFFF84080000005A
:101B500000000000000000033007FFC40800000080
:101B60000000000000000003300000C40800000076
:101B7000000000000000000333C000C408808000A3
:101B8000000000000000000333C000C40980C00052
:101B9000000000000000000333C000C40B80E00020
:101BA000000000000000000333C1FCC40B80E3C24E
:101BB000000002000020000333C1FCC40BE3E2027A
:101BC000000020000020000333C1FCC40BE3E20E40
:101BD00048EF74F3CF20000333C000C409FFC3D221
:101BE0004901249241200003300000C408FF821202
:101BF000490F24924F2007FF300000C4087F0212D3
:101C00004909249249200FFF300000C4083C03CE4C
:101C100078EF34F24F200FFF300000C4083C000082
:101C20000000000000000F8731C01CC47FFE0000D0
:101C3000000000000000070731E03CC47FFE000008
:101C40000000000000001F8330FFF8C47FFE00008A
:101C50000000000000003FC3303FE0CC7FFC0000EC
:101C60000000000000007FE33FC000CC7FF80000D0
:101C7000000000000000F8F31FFF00CC0800000780
:101C8000004000400000F87300FFFFCC0800000493
:101C9000804004000000F0730001FF8C0800000485
:101CA0009E71EE8DC00070630000000C08000007FC
:101CB00012492491000020430000000C0800000499
:101CC00092492490C00000031F00000C080000048B
:101CD00092492490400000031100000C0800000409
:101CE0009E71E68DC00000031100000C080000008A
:101CF00000000000000000031107000C08000000B5
:101D000000000000000000031F07F80C080000009E
:101D1000000000000000000300007F0C080000002D
:101D200000000000000000030000070C0800000095
:101D300000000000000000030000000C080000008C
:101D40000000000000000003F000000C080000008C
:101D50000000000000000001FF80000C10200020A7
:101D60000080000000000001FFF8000C602002006D
:101D70000080000000000001FFFFC00CE038F74FBA
:101D80003CE3D20778000001FFFFFE0DE0249249FA
:101D90000492520808000001FFFFFFFFE02492496F
:101DA0003C924C0878000000FFFFFFFFE0249249BE
:101DB00024925208480000000FFFFFFFE038F3496B
:101DC0003CE3D2477800000000FFFFFFC0000000A6
:101DD0000000000000000000000FFFFF8000000076
:101DE00000000000000000000000FFFF01B6DB6DF6
:101DF000B6DB6DB6DB00000000000FFE0000000047
:101E00000000000000000000000000FC00000000D6
:101E10000000000000008000000000000000000042
:101E20000000000000014000000000000000000071
:101E30000000000000022000000000000000000080
:101E40000000000000041FFFFFFFFFFFFF60000015
:101E5000000001FF400000000000FF8000000000C3
:101E6000007F83CF00000C303F87FF80000C301FC5
:101E7000867980000C000F8C30C7838C30E78C3063
:101E8000CFC7CC31F38C30DCECEC33B98C30D86C70
:101E90006C33198C30D06C0C33198C30D86C0C33FB
:101EA000198C30DC6C0E3B198C30CF7C079F198C61
:101EB00030C77C038F194000000000000260000062
:101EC000000000061FFFFFFFFFFFF82020506C619D
:101ED0006E6E657242756666657242797465733AB4
:101EE00020002046726565204D656D6F72793A203D
:101EF00000436F6D70696C65643A204170722020F8
:101F00003820323031390A00207C20417574686FE6
:101F1000723A204D61747468657720506965726308
:101F200065792C20426F742D496E2D612D426F789A
:101F300020456475636174696F6E616C20526F62D5
:101F40006F746963730A00323031382D30382D30A8
:101F50003100204C61737420557064617465643A7B
:101F60002000312E312E390A004D61726C696E00ED
:101F700020536F6674776172652052657365740AC9
:101F800000205761746368646F67205265736574DD
:101F90000A002042726F776E206F7574205265734D
:101FA00065740A002045787465726E616C20526514
:101FB0007365740A00506F77657255700A00737408
:101FC0006172740A006175746F25692E670065720D
:101FD000726F722077726974696E6720746F206601
:101FE000696C650A00456E6473746F7073202563B5
:101FF00020256320256320256300205A3A002059BC
:102000003A0020583A00656E6473746F70732068EC
:1020100069743A2000446F6E6520736176696E675B
:102020002066696C652E0A004D32390024F4D430E4
:1020300050C38E20C2A24017828B7011127A910D6C
:10204000816CD90AA861E108C75866076151430647
:102050001E4B5D05C145A7041A411104093D9803B3
:10206000713931034036DB0265339102D4305402BA
:10207000802E1D02632CEE01752AC501B028A00137
:10208000102781018F2564012B244B01E0223401AC
:10209000AC211F018D200D01801FFC00841EED006E
:1020A000971DDF00B81CD200E61BC600201BBC0039
:1020B000641AB200B219A8000A19A0006A1899009F
:1020C000D117910040178B00B516840031167E00A1
:1020D000B31579003A157300C7146F0058146A00DD
:1020E000EE1366008813630025135E00C7125B00C1
:1020F0006C12570015125400C111510070114F009D
:1021000021114B00D61049008D10470046104400A5
:1021100002104200C00F4000800F3E00420F3C0002
:10212000060F3B00CB0E3800930E37005C0E3500D7
:10213000270E3400F30D3200C10D3100900D300038
:10214000600D2E00320D2D00050D2C00D90C2B003A
:10215000AE0C2900850C29005C0C2700350C2700EB
:102160000E0C2600E80B2400C40B2400A00B230057
:102170007D0B23005A0B2100390B2100180B200086
:10218000F80A1F00D90A1E00BB0A1E009D0A1D0086
:10219000800A1D00630A1C00470A1B002C0A1B0052
:1021A000110A1A00F7091A00DD091900C4091900FB
:1021B000AB091900920917007B0918006309170081
:1021C0004C09160036091600200916000A091500E8
:1021D000F5081500E0081400CC081400B808140035
:1021E000A4081400900813007D0812006B08130067
:1021F0005808120046081200340811002308110084
:102200001208110001081100F0071000E00710008B
:10221000D0071000C0071000B0070F00A107100082
:1022200091070E0083070F0074070F0065070E006B
:1022300057070E0049070E003B070D002E070E0042
:1022400020070D0013070D0006070D00F9060C000E
:10225000ED060D00E0060C00D4060C00C8060C00CC
:10226000BC060C00B0060C00A4060B0099060C007E
:102270008D060B0082060B0077060B006C060B0028
:1022800061060A0057060B004C060A0042060A00C7
:1022900038060A002E060A0024060A001A060A005A
:1022A0001006090007060A00FD050900F4050900EB
:1022B000EB050900E2050900D9050900D005090070
:1022C000C7050900BE050900B5050800AD050800F1
:1022D000A50509009C050800940508008C05080068
:1022E000840508007C050800740508006C050700DB
:1022F000650508005D050700560508004E05070046
:1023000047050700400508003805070031050700AC
:102310002A050700230507001C050600160507000F
:102320000F0507000805060002050700FB0406006C
:10233000F5040700EE040600E8040600E2040700C6
:10234000DB040600D5040600CF040600C90406001D
:10235000C3040600BD040600B7040600B10405006E
:10236000AC040600A6040600A00405009B040600B9
:1023700095040500900406008A0405008504050004
:10238000800406007A040500750405007004050049
:102390006B04050066040500610405005C0405008B
:1023A00057040500520405004D04050048040500CB
:1023B000430405003E0404003A040500350405000A
:1023C000300404002C040500270404002304050045
:1023D0001E0404001A04040016040500110404007D
:1023E0000D040400090405000404040000040400B2
:1023F000FC030400F8030400F4030400F0030400E9
:10240000EC030400E8030400E4030400E003040018
:10241000DC030400D8030400D4030400D003040048
:10242000CC030400C8030300C503030024F404D94B
:10243000201BC40C5C0E9804C4095F02650771017F
:10244000F405F900FB04B30048048700C1036900E8
:102450005803550003034500BE023A0084023100D0
:1024600053022A002902250004022000E4011C0076
:10247000C8011900AF01170098011400840113006E
:10248000710110006101100051010E0043010D00A7
:1024900036010B002B010B0020010B001501090078
:1024A0000C01090003010800FB000800F30008000C
:1024B000EB000700E4000600DE000600D80006007E
:1024C000D2000600CC000500C7000500C2000500D0
:1024D000BD000400B9000400B5000400B100040010
:1024E000AD000400A9000400A5000300A200030041
:1024F0009F0004009B000300980003009500020069
:1025000093000300900003008D0002008B00030085
:10251000880002008600020084000300810002009F
:102520007F0002007D0002007B00020079000200B3
:1025300077000100760002007400020072000100C2
:10254000710002006F0002006D0001006C000200CB
:102550006A000100690002006700010066000100D6
:1025600065000100640002006200010061000100DA
:10257000600001005F0002005D0001005C000100DE
:102580005B0001005A0001005900010058000100E1
:1025900057000100560001005500010054000100E1
:1025A00053000000530001005200010051000100DF
:1025B000500001004F0001004E0000004E000100DD
:1025C0004D0001004C0001004B0000004B000100D9
:1025D0004A000100490001004800000048000100D5
:1025E00047000100460000004600010045000000D1
:1025F00045000100440001004300000043000100C9
:1026000042000000420001004100000041000100C2
:10261000400001003F0000003F0001003E000000BC
:102620003E0001003D0000003D0001003C000000B4
:102630003C0000003C0001003B0000003B000100AA
:102640003A0000003A0001003900000039000100A2
:10265000380000003800000038000100370000009A
:10266000370001003600000036000000360001008F
:102670003500000035000000350001003400000086
:10268000340000003400010033000000330000007B
:10269000330001003200000032000000320001006F
:1026A0003100000031000000310001003000000066
:1026B00030000000300001002F0000002F0000005B
:1026C0002F0000002F0001002E0000002E0000004F
:1026D0002E0001002D0000002D0000002D00000044
:1026E0002D0001002C0000002C0000002C00000038
:1026F0002C0001002B0000002B0000002B0000002C
:102700002B0001002A0000002A0000002A0000001F
:102710002A00010029000000290000002900000013
:102720002900000029000100280000002800000006
:1027300028000000280000002800010027000000F9
:1027400027000000270000002700000027000100EC
:1027500026000000260000002600000026000000E1
:1027600026000100250000002500000025000000D3
:1027700025000000250000002500010024000000C5
:1027800024000000240000002400000024000100B8
:1027900023000000230000002300000023000000AD
:1027A000230000002300000023000100220000009D
:1027B0002200000022000000220000002200000091
:1027C0002200010021000000210000002100000083
:1027D0002100000021000000210000002100010074
:1027E0002000000020000000200000002000000069
:1027F0002000000020000000200000002000010058
:102800001F0000001F0000001F0000001F0000004C
:102810001F0000001F0000001F0001001E0000003C
:102820001E0000001E0000001E0000000437000013
:102830001E290000511B0000581000001009000064
:10284000CC04000078020000410100006265640AC7
:10285000002C2073797374656D2073746F707065CC
:102860006421204865617465725F49443A200042E2
:1028700065642048656174696E67204661696C65AE
:10288000640048656174696E67206661696C65649F
:102890000045312048656174696E67204661696C46
:1028A00065640048656174696E67206661696C657E
:1028B000640020746F6F206C6F6E6720657874728F
:1028C0007573696F6E2070726576656E7465640AE3
:1028D0000020636F6C6420657874727573696F6E25
:1028E0002070726576656E7465640A0056652D6A9F
:1028F00065726B0056652D6A65726B0056652D6AB0
:1029000065726B00567A2D6A65726B00567A2D6A75
:1029100065726B0056792D6A65726B0056792D6A67
:1029200065726B0056792D6A65726B0056782D6A58
:1029300065726B0056782D6A65726B0056782D6A49
:1029400065726B004D6F74696F6E004573746570CE
:10295000732F6D6D004573746570732F6D6D005A24
:1029600073746570732F6D6D005A73746570732F77
:102970006D6D005973746570732F6D6D00597374AC
:102980006570732F6D6D005873746570732F6D6D66
:10299000005873746570732F6D6D004D6F74696F9F
:1029A0006E0053746570732F6D6D004A65726B0015
:1029B000416363656C65726174696F6E0056656C26
:1029C0006F6369747900436F6E74726F6C0046694F
:1029D0006C2E204469612E0046696C2E204469618A
:1029E0002E004F6666004F6E20004520696E206DF8
:1029F0006D3300436F6E74726F6C0043616E6E6F67
:102A00007420656E746572207375626469723A2011
:102A100000022E2E000152656672657368004D61DA
:102A2000696E00434F4D4D554E49434154494F4EF9
:102A30000044525952554E004552524F525300498C
:102A40004E464F004543484F0050726F74656374A3
:102A500065642050696E0A0046696C616D656E742C
:102A600020757365643A200053746174733A2000D2
:102A70002C204C6F6E67657374206A6F623A200079
:102A8000546F74616C2074696D653A2000537461F1
:102A900074733A20002C204661696C65643A20000A
:102AA0002C2046696E69736865643A20005072692B
:102AB0006E74733A200053746174733A20006F6B24
:102AC0000020573A004520436F6F6C696E672044C1
:102AD0006F776E2E2E2E00452048656174696E67F3
:102AE0002055702E2E2E00442A3F2A382A312A23C0
:102AF0002A6F66660044454255473A00205A3A001C
:102B000020593A0020436F756E7420583A002045D2
:102B10003A00205A3A0020593A00583A002C200036
:102B20002C20003A004361703A00544845524D4110
:102B30004C5F50524F54454354494F4E00415554F9
:102B40004F5245504F52545F53445F535441545574
:102B50005300454D455247454E43595F50415253EE
:102B6000455200434153455F4C494748545F4252E8
:102B7000494748544E45535300544F47474C455FCF
:102B80004C494748545300534F4654574152455FB0
:102B9000504F574552004255494C445F50455243AF
:102BA000454E54004C4556454C494E475F444154B0
:102BB00041005A5F50524F4245004155544F4C45D9
:102BC00056454C005052494E545F4A4F42005052B5
:102BD0004F4752455353004155544F5245504F5261
:102BE000545F54454D5000564F4C554D4554524935
:102BF0004300454550524F4D0053455249414C5FAB
:102C0000584F4E5F584F4646004649524D57415225
:102C1000455F4E414D453A4D61726C696E20312ED3
:102C2000312E3920284769746875622920534F5521
:102C30005243455F434F44455F55524C3A68747464
:102C400070733A2F2F6769746875622E636F6D2FEA
:102C50004D61726C696E4669726D776172652F4D58
:102C600061726C696E2050524F544F434F4C5F5607
:102C7000455253494F4E3A312E30204D4143484939
:102C80004E455F545950453A57616E68616F2069EF
:102C9000332045585452554445525F434F554E5486
:102CA0003A3120555549443A3333366638646435F1
:102CB0002D663938352D343062352D616462322D00
:102CC0003661373664633864646361640A0045784A
:102CD000747275646572004D6F7665205A004D6F91
:102CE00076652059004D6F766520580050726570EA
:102CF00061726500526573746F7265204661696C1C
:102D0000736166650046696C616D656E74004D6F38
:102D100074696F6E0054656D70657261747572656B
:102D2000004D61696E0050726568656174204142B2
:102D30005320636F6E660050726568656174205041
:102D40004C4120636F6E66005049442D4400504949
:102D5000442D44005049442D49005049442D490018
:102D60005049442D50005049442D50002008204621
:102D70006163740020082046616374002008204DC0
:102D80006178002008204D6178002008204D61788E
:102D9000002008204D696E002008204D696E00203B
:102DA00008204D696E004F6666004F6E2000417529
:102DB000746F74656D700046616E20737065656434
:102DC0000046616E20737065656400426564004270
:102DD0006564004E6F7A7A6C65004E6F7A7A6C6526
:102DE00000436F6E74726F6C0042656400426564EC
:102DF000004E6F7A7A6C65004E6F7A7A6C65004689
:102E0000616E2073706565640046616E2073706545
:102E100065640054656D706572617475726500005B
:102E2000060900FE000000000001090008FE000085
:102E300005080806000040F0C88888987810050842
:102E400008060000C0F88888888888F80505050607
:102E500000012030F830200508080600002070F836
:102E600020202020E00509090600FF2070A8A8B84E
:102E7000888870200509090600FFE080C0B0A828F6
:102E80003028280509090600FFF8A888888888885E
:102E9000A8F8050A0A0600FE205050505088A8A83D
:102EA000887003030306000340A040253164002519
:102EB0003264002533640025346400253564002520
:102EC0003664003048483020202020001A00252099
:102ED000200025200025753A253032750025303236
:102EE000753A25303275006F70656E206661696CC9
:102EF00065642C2046696C653A200020746F6F2051
:102F00006C6F6E6720657874727573696F6E207070
:102F1000726576656E7465640A0020636F6C642068
:102F2000657874727573696F6E2070726576656E00
:102F30007465640A00627573793A2070617573650F
:102F40006420666F7220696E7075740A0062757312
:102F5000793A2070617573656420666F72207573AD
:102F600065720A00627573793A2070726F636573D7
:102F700073696E670A004B494C4C45442E20004B48
:102F8000494C4C2063617573656420627920746FCD
:102F90006F206D75636820696E6163746976652062
:102FA00074696D65202D2063757272656E7420637F
:102FB0006F6D6D616E643A2000506C6561736520C1
:102FC0005265736574005052494E54455220484131
:102FD0004C544544005072696E7465722068616C8F
:102FE0007465642E206B696C6C28292063616C6C9D
:102FF0006564210A004D6F76696E672E2E2E00ECF7
:10300000EE8A88CACC8A888A88EE8E00005455AA37
:10301000AA0000EECE48AA4EAA48CE48AA4EAA0060
:1030200000000000000000000000000000000000A0
:103030000000000000FE7FFE7F0660000000000030
:10304000000000F00FF81FF81FF81FF00FF00FF846
:103050001FF81FF81FE007C00380010000000000F8
:1030600000FE7F0E702664724E7A5E324C824132D0
:103070004C7A5E724E26640E70FE7F0000000000E7
:1030800000FE7F0E70C663C24382411A58BA5D1AB1
:10309000588241C243C6630E70FE7F0000000000EC
:1030A0000088088808101120222022101188088822
:1030B00008101100000000000000000000000000E7
:1030C00000202210118808880810112022202210C8
:1030D00011880800000000000000000000000057F8
:1030E000616E68616F206933204F4B2E005072690A
:1030F0006E74696E672E2E2E005072696E742050A9
:103100006175736564004D313430205336300A4D9B
:1031100031303420533230350A4D31313720437548
:1031200073746F6D20536372697074204F4B004D40
:10313000313430205338300A4D313034205332345A
:10314000300A4D31313720437573746F6D205363EE
:1031500072697074204F4B004732380A4D35303356
:103160000A4D31313720437573746F6D205363728C
:10317000697074204F4B004732380A4730205A3567
:10318000300A4D3138205334300A4D313137204325
:103190007573746F6D20536372697074204F4B00A8
:1031A000486F6D65202620496E666F005072656815
:1031B00065617420414253005072656865617420F6
:1031C000504C41004D6F76652045204F7574206F3F
:1031D000662074686520576179004D61696E0056FC
:1031E00054726176206D696E005654726176206D5E
:1031F000696E005654726176206D696E00566D6975
:103200006E00566D696E00566D696E00566D617880
:10321000204500566D6178204500566D6178204547
:1032200000566D6178205A00566D6178205A00561C
:103230006D6178205A00566D6178205900566D6195
:1032400078205900566D6178205900566D617820BC
:103250005800566D6178205800566D6178205800EE
:103260004D6F74696F6E00416D6178204500416D4E
:103270006178204500416D6178205A00416D617888
:10328000205A00416D6178205900416D61782059C4
:1032900000416D6178205800416D617820580041EF
:1032A0002D74726176656C00412D74726176656C67
:1032B00000412D7265747261637400412D726574F2
:1032C0007261637400416363656C00416363656CA4
:1032D000004D6F74696F6E0054524947474552451F
:1032E00044006F70656E003A20007A5F6D696E0071
:1032F000795F6D696E00785F6D696E005265706F01
:103300007274696E6720656E6473746F7020737475
:10331000617475730A000A4D656173757265642086
:10332000706F696E74733A0A005A206F666673652F
:10333000743A20004E756D20582C593A20332C33A6
:103340000A0000002100240027002A0000002200BB
:10335000250028002B000000200023002600290063
:10336000020202020202020204040404040404042D
:10337000030303030303030301010101010101012D
:10338000010204081020408001020408102040803F
:10339000010204081020408080402010080402012F
:1033A0000000000102000000000000000403080704
:1033B000000000000000000000000000000000000D
:1033C000526573656E643A20006F6B0031E73FE22F
:1033D00011241FBECFEFD0E4DEBFCDBF11E0A0E0CF
:1033E000B1E0E4E7F4EF01E00BBF02C007900D92FB
:1033F000A63FB107D9F72CE1A6EFB1E001C01D92BD
:10340000A035B207E1F719E1C7EED9E104C0219771
:10341000FE010E9479F6C63ED107C9F70E9460E21C
:103420000C942DFA0C9400002F923F924F925F92D1
:103430006F927F928F929F92AF92BF92CF92DF92C4
:10344000EF92FF920F931F93CF93DF93CDB7DEB729
:10345000C559D1090FB6F894DEBF0FBECDBF21E02C
:1034600020930D118091C71B8D3411F40C942523EA
:10347000843511F40C940634873411F00C945234D2
:103480008091C51B9091C61B8C31910509F440C6F3
:103490009CF4843091055CF4823091055CF597FFD3
:1034A00002C00C9421230E94323F0C9454340497A0
:1034B00009F4F0C50C9421238A35910511F40C947C
:1034C000192354F48D31910509F427C68A9711F414
:1034D0000C948A220C9421238B35910511F40C94C1
:1034E0001D238C35910511F00C9421230E94A13DE0
:1034F0000C94543420913F01222311F40C94543441
:1035000011E0029709F010E00E947F3E82E50E94E0
:10351000F03C882309F44AC10E94763C6B017C018F
:103520004090B6045090B7046090B8047090B9040D
:103530002091BA043091BB044091BC045091BD0469
:1035400028AF39AF4AAF5BAF4091DA045091DB044A
:103550006091DC047091DD044CAF5DAF6EAF7FAF66
:103560006091DE047091DF048091E0049091E104A9
:1035700028966CAF7DAF8EAF9FAF289720E030E0EC
:10358000A901C701B6010E945CEF882309F468C550
:10359000A30192016CAD7DAD8EAD9FAD0E945CEF3D
:1035A00081110FC028AD39AD4AAD5BAD28966CAD29
:1035B0007DAD8EAD9FAD28970E945CEF882309F406
:1035C0004FC520E030E0A901C701B6010E945CEFC1
:1035D000881F8827881F18130BC080E090E0A0E8A0
:1035E000BFE364968CAF9DAFAEAFBFAF64970AC028
:1035F00020E030E040E85FEB64962CAF3DAF4EAF8B
:103600005FAF6497A30192016CAD7DAD8EAD9FADB0
:103610000E9496F62C966CAF7DAF8EAF9FAF2C9725
:1036200028AD39AD4AAD5BAD28966CAD7DAD8EADA4
:103630009FAD28970E9496F660966CAF7DAF8EAFD7
:103640009FAF60972C962CAD3DAD4EAD5FAD2C97E6
:10365000CA01B9010E94C2EF4B015C0160962CAD1A
:103660003DAD4EAD5FAD6097CA01B9010E94C2EF9A
:103670009B01AC01C501B4010E9497F60E9445F977
:1036800024966CAF7DAF8EAF9FAF249720E030E0E3
:1036900040E05FE30E94C2EF4B015C01A70196018D
:1036A000C701B6010E94C2EF6B017C01A501940124
:1036B000C501B4010E94C2EF9B01AC01C701B60174
:1036C0000E9496F60E9445F99B01AC0164966CAD90
:1036D0007DAD8EAD9FAD64970E94C2EF4B015C0142
:1036E0002CAD3DAD4EAD5FADC301B2010E9497F66A
:1036F00020E030E040E05FE30E94C2EF6B017C011C
:1037000060966CAD7DAD8EAD9FAD60979058249660
:103710002CAD3DAD4EAD5FAD24970E9491F79B015E
:10372000AC01C501B4010E94C2EF9B01AC01C7010D
:10373000B6010E9497F6A30192010E9496F66B01D2
:103740007C0128962CAD3DAD4EAD5FAD289768ADA0
:1037500079AD8AAD9BAD0E9497F620E030E040E065
:103760005FE30E94C2EF2B013C0124962CAD3DADDE
:103770004EAD5FAD24972C966CAD7DAD8EAD9FADFB
:103780002C970E9491F79B01AC01C501B4010E94E6
:10379000C2EF9B01AC01C301B2010E9497F628ADB4
:1037A00039AD4AAD5BAD0E9496F614C089E40E9423
:1037B000F03C882329F00E94763C6B017C0103C019
:1037C000C12CD12C76018AE40E94F03C8823F9F0C8
:1037D0000E94763C28966CAF7DAF8EAF9FAF289746
:1037E00020E030E0A901C701B6010E945CEF811121
:1037F0001EC020E030E0A90128966CAD7DAD8EADF5
:103800009FAD28970E945CEF811111C029C420E070
:1038100030E0A901C701B6010E945CEF882309F4DA
:103820001FC428961CAE1DAE1EAE1FAE2897B70152
:10383000A601705848AF59AF6AAF7BAF28966CAD00
:103840007DAD8EAD9FAD289790586CAF7DAF8EAF9C
:103850009FAF28AD39AD4AAD5BADCA01B9010E9439
:10386000C2EF4B015C012CAD3DAD4EAD5FADCA0169
:10387000B9010E94C2EF9B01AC01C501B4010E94D5
:1038800097F60E9445F9A0966CAF7DAF8EAF9FAFC3
:10389000A0978091B6049091B704A091B804B0911C
:1038A000B90424968CAF9DAFAEAFBFAF2497A701EC
:1038B0009601BC01CD010E9497F664966CAF7DAF76
:1038C0008EAF9FAF64972091BA043091BB044091B2
:1038D000BC045091BD042C962CAF3DAF4EAF5FAFF2
:1038E0002C9728962CAD3DAD4EAD5FAD28972C960C
:1038F0006CAD7DAD8EAD9FAD2C970E9497F6A496D2
:103900006CAF7DAF8EAF9FAFA4974091DA0450911A
:10391000DB046091DC047091DD0460964CAF5DAF18
:103920006EAF7FAF609764962CAD3DAD4EAD5FAD91
:10393000649760966CAD7DAD8EAD9FAD60970E9433
:1039400096F66B017C016091DE047091DF0480913A
:10395000E0049091E10468966CAF7DAF8EAF9FAFAD
:103960006897A4962CAD3DAD4EAD5FADA4970E9477
:1039700096F64B015C018091BE049091BF04A0912A
:10398000C004B091C1046C968CAF9DAFAEAFBFAF19
:103990006C979C01AD016091E2047091E304809109
:1039A000E4049091E5040E9496F62B013C012091DD
:1039B000E6043091E7044091E8045091E904AC96A4
:1039C0002CAF3DAF4EAF5FAFAC974091C20450916A
:1039D000C3046091C4047091C504A8964CAF5DAF58
:1039E0006EAF7FAFA897A701960168AD79AD8AAD9C
:1039F0009BAD0E94C2EFE0966CAF7DAF8EAF9FAFE4
:103A0000E097A50194016CAD7DAD8EAD9FAD0E9498
:103A1000C2EF9B01AC01E0966CAD7DAD8EAD9FAD6C
:103A2000E0970E9497F6E0966CAF7DAF8EAF9FAFA8
:103A3000E097A501940168AD79AD8AAD9BAD0E9478
:103A4000C2EF4B015C01A70196016CAD7DAD8EAD5F
:103A50009FAD0E94C2EF9B01AC01C501B4010E9461
:103A600096F6E0962CAD3DAD4EAD5FADE0970E9471
:103A700016F76B017C0120E030E0A9010E945CEFA9
:103A800087FF0AC02BED3FE049EC50E4C701B601C7
:103A90000E9497F66B017C01112351F02BED3FE062
:103AA00049EC50E4C701B6010E9496F66B017C0117
:103AB00020E030E0A901C701B6010E945CEF81114E
:103AC00028C060962CAD3DAD4EAD5FAD609724969D
:103AD0006CAD7DAD8EAD9FAD24970E945CEF8111E2
:103AE00018C068962CAD3DAD4EAD5FAD68972C9675
:103AF0006CAD7DAD8EAD9FAD2C970E945CEF8111BA
:103B000008C00BEDC02E0FE0D02E09ECE02E00E433
:103B1000F02EA7019601A0966CAD7DAD8EAD9FAD48
:103B2000A0970E94C2EF4B015C0120E030E0A901A8
:103B3000C301B2010E945CEF8823C9F0A501940182
:103B4000C501B4010E94C2EF4B015C01A3019201C7
:103B5000C301B2010E94C2EF9B01AC01C501B401D7
:103B60000E9497F60E9445F94B015C010DC020E0D0
:103B700030E0A901C501B4010E94F7F887FF04C035
:103B8000B7FAB094B7F8B0942FE632E143E85AE3BD
:103B9000C501B4010E945CEF87FF02C00C9454344D
:103BA000C501B4010E9439F80E940AF81B01672B75
:103BB00019F422242394312CB10180E090E00E947A
:103BC00061EF4B015C019B01AC01C701B6010E9492
:103BD00091F724966CAF7DAF8EAF9FAF2497A50170
:103BE0009401C301B2010E9491F7A0966CAF7DAF22
:103BF0008EAF9FAFA097A8962CAD3DAD4EAD5FADFB
:103C0000A897AC966CAD7DAD8EAD9FADAC970E9484
:103C100096F6A50194010E9491F7AC966CAF7DAF2A
:103C20008EAF9FAFAC9724962CAD3DAD4EAD5FAD42
:103C30002497CA01B9010E94C2EF20E030E040E0C1
:103C40005FE30E94C2EF9B01AC0160E070E080E89E
:103C50009FE30E9496F668966CAF7DAF8EAF9FAFE4
:103C600068976C966CAD7DAD8EAD9FAD6C97698796
:103C70007A878B879C87A8968CAD9DADAEADBFAD86
:103C8000A8978D879E87AF87B88B60912D01709123
:103C90002E01072E000C880B990B0E9463EF2091D8
:103CA00005013091060140910701509108010E94E1
:103CB000C2EF2AE037ED43E25CE30E94C2EF6CAB57
:103CC0007DAB8EAB9FAB0E94A9DF9B01AC0128535B
:103CD0003F4F4F4F5F4F6C962CAF3DAF4EAF5FAF36
:103CE0006C9748AC59AC6AAC7BAC41E050E02E9686
:103CF0005FAF4EAF2E9759E129965FAF29972E9669
:103D0000EEADFFAD2E97E215F30509F44FC10E9409
:103D10002E850E94A9DFDC01CB016C962CAD3DAD58
:103D20004EAD5FAD6C97821B930BA40BB50BB7FD2B
:103D300010C00E94A9DF9B01AC0128533F4F4F4F99
:103D40005F4F6C962CAF3DAF4EAF5FAF6C970E944C
:103D500013C429963FAD2997315029963FAF299733
:103D6000332309F445C068962CAD3DAD4EAD5FAD33
:103D700068976CAD7DAD8EAD9FAD0E94C2EF6B01BB
:103D80007C0124962CAD3DAD4EAD5FAD2497B201C4
:103D9000C3010E94C2EFA70196010E9497F67B0122
:103DA0008C0168962CAD3DAD4EAD5FAD6897B2010C
:103DB000C3010E94C2EF4B015C0124962CAD3DADC6
:103DC0004EAD5FAD24976CAD7DAD8EAD9FAD0E94C5
:103DD000C2EF9B01AC01C501B4010E9496F62B0114
:103DE0003C01C701D8018CAF9DAFAEAFBFAF5BC088
:103DF0002E964EAD5FAD2E97BA0180E090E00E9406
:103E000061EF24962CAD3DAD4EAD5FAD24970E9481
:103E1000C2EF4B015C010E948CF76B017C01C50174
:103E2000B4010E9437F94B015C01A701960168AD0E
:103E300079AD8AAD9BAD0E94C2EF2B013C01A5017B
:103E4000940128966CAD7DAD8EAD9FAD28970E94F4
:103E5000C2EF9B01AC01C301B2010E9497F62B0196
:103E60003C01A501940168AD79AD8AAD9BAD0E947E
:103E7000C2EF4B015C01A701960128966CAD7DADA8
:103E80008EAD9FAD28970E94C2EF9B01AC01C5018A
:103E9000B4010E9496F66CAF7DAF8EAF9FAF59E133
:103EA00029965FAF29979201A30164966CAD7DAD11
:103EB0008EAD9FAD64970E9497F669837A838B835A
:103EC0009C832CAD3DAD4EAD5FADA4966CAD7DAD8C
:103ED0008EAD9FADA4970E9497F66D837E838F83EE
:103EE0009887A0962CAD3DAD4EAD5FADA09769858E
:103EF0007A858B859C850E9497F669877A878B8760
:103F00009C87AC962CAD3DAD4EAD5FADAC976D854D
:103F10007E858F8598890E9497F66D877E878F872B
:103F2000988B80912601882321F0CE0101960E9472
:103F30004963E090300D1CA61DA61EA61FA6898110
:103F40009A81AB81BC8188A399A3AAA3BBA38D81CD
:103F50009E81AF81B8858CA39DA3AEA3BFA38985A5
:103F60009A85AB85BC8588A799A7AAA7BBA7AE01F0
:103F7000485D5F4FBE016C5D7F4FCE0180960E9411
:103F800004A6BE01645D7F4F6B018E010C5C1F4F68
:103F90009E01235F3F4FAE01485D5F4F685071093E
:103FA000CE0180960E940398811150C0E090300DA0
:103FB00018AA19AA1AAA1BAA8091DA049091DB0404
:103FC000A091DC04B091DD0488A399A3AAA3BBA3AC
:103FD0008091DE049091DF04A091E004B091E104AF
:103FE0008CA39DA3AEA3BFA38091E2049091E304B0
:103FF000A091E404B091E50488A799A7AAA7BBA75C
:10400000AE01485D5F4FBE016C5D7F4FCE01809673
:104010000E9404A6CE01C0966C018E010C5C1F4F5D
:1040200026EE34E0AE01485D5F4FBE016C5D7F4F10
:1040300040970E94039880E1EAEDF4E0A6EBB4E03B
:1040400001900D928A95E1F70C9454342E96AEAD02
:10405000BFAD2E9711962E96BFAFAEAF2E974FCE17
:10406000E5E6FEE084918F010F5F1F4F882321F06A
:104070000E94FD40F801F6CFE5E3F2E084918F0164
:104080000F5F1F4F882311F40C9454340E94FD409D
:10409000F801F4CF80E50E94F03C882329F00E94CB
:1040A000323C6B017C0103C0C12CD12C760183E52D
:1040B0000E94F03C882361F00E94763C20E030E0D2
:1040C0004AE754E40E94C2EF0E940AF86B017C01A7
:1040D0000E94B6A580919E04811105C060E08BE42A
:1040E00092E00E94E7820E94A9DFC60ED71EE81E5A
:1040F000F91E0E94A9DFDC01CB018C199D09AE09D4
:10410000BF09B7FD02C00C9454340E9413C4F1CF10
:1041100080E00E940B400C94543483E50E94F03CF4
:10412000882311F10E94523C863070F0E6E0F3E003
:1041300084918F010F5F1F4F882311F40C94543426
:104140000E94FD40F801F4CF833009F458C134F4E3
:10415000813071F1823009F43FC006C0843009F427
:10416000B0C1853009F4BDC10E94F138882399F0AF
:1041700080912206811103C06CEA71E002C068EAF6
:1041800071E08EED92E00E9490DA8AE00E94FD409C
:104190000E9463E8BBC1E6EEF2E084918F010F5FFD
:1041A0001F4F882309F4B2C10E94FD40F801F5CFEA
:1041B0000E9450D9109201011092000180911806BE
:1041C00081110AC083ED92E090938F0280938E025A
:1041D0000E94BD3A0C9454348091000190910101E9
:1041E00097FF0EC0EAEAF2E084918F010F5F1F4F44
:1041F000882311F40C9454340E94FD40F801F4CF4C
:104200000097A1F4809126018093FB0119821A8204
:104210001B821C8218A219A21AA21BA2BE016F5FE8
:104220007F4FCE0180960E9490572BC0815063E053
:104230000E9424F680FF03C022E0291B922F292F21
:10424000990F330BF901EE0FFF1FE20FF31FE80F79
:10425000F11D87FDFA95EE0FFF1FEE0FFF1FE455CE
:10426000FE4E8091BE049091BF04A091C004B09115
:10427000C10480839183A283B3838091FB018093E7
:1042800026018091000190910101893091050CF087
:1042900067C0109226019C012F5F3F4F30930101B0
:1042A0002093000163E00E9424F680FF03C022E017
:1042B000291B922F4091BE045091BF046091C0040D
:1042C0007091C10448A359A36AA37BA319821A82DF
:1042D0001B821C82F4E08F0290011124A901425E2E
:1042E000514F4A01DA012D913D914D915C91B4E01D
:1042F0009B02C0011124FC01E65DF14F5F0160816A
:10430000718182819381DE0111966D01E12CF12C86
:1043100000EA10E40E94C15619821A821B821C8294
:10432000B601CE0180960E949057F501808191815F
:10433000A281B3818093B6049093B704A093B8048C
:10434000B093B904F40180819181A281B3818093FB
:10435000BA049093BB04A093BC04B093BD0444C0C2
:1043600080E090E0A0EAB0E48093BE049093BF04A4
:10437000A093C004B093C1040E94093A0E94B6A55C
:104380008FEF9FEF9093010180930001E6E9F2E047
:1043900084918F010F5F1F4F882321F00E94FD4001
:1043A000F801F6CF83E992E09A83898304E610E06E
:1043B00019A308A3BE016F5F7F4FCE0180960E94B4
:1043C0005DC38AEB92E09A83898319A308A3BE0197
:1043D0006F5F7F4FCE0180960E945DC381E00E9497
:1043E0000B4081E00E942139109218066091000173
:1043F00070910101693071050CF47BC078C088E5CB
:104400000E94F03C8823A1F00E94423C1FEF160F4F
:104410001330A8F0EFE7F2E084918F010F5F1F4F98
:10442000882311F40C9454340E94FD40F801F4CF19
:1044300088E50E94FD400E94CFE10C94543489E548
:104440000E94F03C8823A1F00E94423C0FEF060F2F
:104450000330A8F0E8E6F2E084918F010F5F1F4F70
:10446000882311F40C9454340E94FD40F801F4CFD9
:1044700089E50E94FD400E94CFE10C9454348AE506
:104480000E94F03C8823B1F00E94763C212F30E05E
:10449000F901EE0FFF1FE20FF31FE00FF11DEE0F0A
:1044A000FF1FEE0FFF1FE455FE4E60837183828372
:1044B00093832CC08AE50E94FD400E94CFE10C94BA
:1044C00054348AE50E94F03C8823A1F30E94763C94
:1044D00060931A0670931B0680931C0690931D062A
:1044E00015C080E00E9421390E9450D90FC069E0B8
:1044F00070E089E592E00E9477DA69E070E084E597
:1045000092E00E9477DA8AE00E94FD400E94F0ADBE
:104510000C94543480913F01882311F40C9454344A
:1045200089E40E94F03CF82E882321F00E94423C4E
:10453000062F01C000E08AE40E94F03CE82E8823A8
:1045400031F00E94423C162FF11004C00AC010E066
:10455000FF20B1F0033010F40C943B38EDE1F3E0B0
:1045600003C01330D8F70CC084918F010F5F1F4F29
:10457000882311F40C9454340E94FD40F801F4CFC8
:104580000E940140FF2091F024E00202F00111247A
:10459000E65DF14F80819181A281B3818093DA043D
:1045A0009093DB04A093DC04B093DD04EE2091F043
:1045B00034E01302F0011124E25EF14F8081918119
:1045C000A281B3818093DE049093DF04A093E00482
:1045D000B093E10480E50E94F03C882319F00E942A
:1045E000663C03C080E50E94A93C86E40E94F03C42
:1045F0008823D9F00E94763C6B017C0120E030E0FA
:10460000A9010E94F7F8181684F420E030E040E792
:1046100052E4C701B6010E9491F7609305017093BF
:10462000060180930701909308010E9456C70C94DD
:1046300054341092FA010C9454342093FA010C94DF
:1046400054340E9496590C9454348091C51B909117
:10465000C61B8137910509F474C30CF0D4C08A32AB
:10466000910509F418C30CF069C08831910509F46B
:10467000FDC1A4F58231910509F4FEC3BCF497FF96
:1046800002C00C940334823091050CF4ADC1419703
:1046900011F00C94033460E08CE393E00E94E78215
:1046A0005E985E9815985E980C9454348531910507
:1046B00009F4D2C13CF4449711F00C940334E4E5BE
:1046C000F3E096C18631910509F4CAC1479711F00C
:1046D0000C9403340E94DD380C9454348D319105D0
:1046E00011F40C945434C4F48A31910509F4CDC109
:1046F0000CF4C5C18B31910509F4CBC14C9711F075
:104700000C94033440E060E08091C31B9091C41B83
:104710000E94D0540C9454348F31910509F491C205
:104720000CF448C28032910509F448C2819711F017
:104730000C9403340E9407410C9454348C35910539
:1047400009F4CFC39CF58135910509F477C3DCF4F6
:104750008C34910509F4A3C24CF48B34910511F00B
:104760000C9403340E94B7DA0C9454348D349105C0
:1047700009F499C28E34910511F00C9403340E940F
:1047800066B20C9454348335910509F470C30CF46B
:104790006AC38435910509F46FC38535910511F01D
:1047A0000C9403340E9495AF0C9454348C369105CC
:1047B00009F4C3C2ACF48936910509F4EEC234F4AD
:1047C0008836910509F473C20C9403348A36910536
:1047D00009F404C38B36910509F41EC30C94033409
:1047E0008E36910509F492C20CF4DDC28F36910524
:1047F00009F49FC28037910511F00C9403348EEABE
:1048000093E00E94A5C38C3D910511F40C944C2CAF
:104810000CF061C08139910509F4DDC324F58637B8
:10482000910509F47BC364F48337910509F461C3EE
:104830000CF45BC38537910509F45FC30C94033412
:104840008837910509F4BAC30CF4B4C389379105CC
:1048500009F4BBC38C38910511F00C9403340E9409
:1048600024B00C9454348B3C910509F48FC40CF59E
:104870008E3B910509F49BC24CF48B39910511F0E4
:104880000C9403340E941BB20C945434883C910560
:1048900009F41AC4893C910511F00C94033438E8EA
:1048A000E32E31E1F32E0EE511E044E0D42ED00EDC
:1048B00053C48D3C910509F400C50CF486C48E3CAC
:1048C000910509F47BC5833D910511F00C940334E7
:1048D000E0E8FEE002C7843A41E0940711F40C944A
:1048E000AC31F4F58E3261E0960711F40C94BF2DD3
:1048F000D4F4823E910511F40C94CA2C3CF48D3D05
:10490000910511F40C945B2C0C9403348C32A1E0CF
:104910009A0711F40C94F52C8D32914011F40C94FB
:104920001E2D0C9403348336E1E09E0711F40C94A1
:1049300090313CF48F32914011F40C94132E0C946E
:104940000334803931E0930711F40C94A9318A398A
:10495000914011F00C9403340E944FAD0C945434E8
:10496000863F51E0950711F40C940034FCF48C3A26
:1049700071E0970709F444C53CF4853A914011F47D
:104980000C9405330C940334843FE1E09E0711F44A
:104990000C94E733853F914011F00C9403340E944E
:1049A0004E4B80E00E94FD460C9454348B3823E03B
:1049B000920711F40C9454344CF4873F914011F059
:1049C0000C9403340E9444AD0C945434803A53E068
:1049D000950709F432C1873E934011F00C940334DB
:1049E0000E942FAD0C9454340E94173D0C94543403
:1049F00084918F010F5F1F4F882321F00E94FD409B
:104A0000F801F6CF1092FA1040E050E0BA018DEABA
:104A10009EE00E94255B69EA7EE0CE0101960E943D
:104A2000044D40E050E0BE016F5F7F4F80E090E0BA
:104A30000E94C352CE0101960E94DE64E5E4F3E0D9
:104A400084918F010F5F1F4F882311F40C9454340D
:104A50000E94FD40F801F4CF0E94C8570C945434D2
:104A60001092560E1092570E0C9454348091570E9B
:104A700081112093560E0E94B7DA0C945434109290
:104A8000560E0E94C1860C9454340E94FD3C0C9436
:104A9000543483E40E94A93C882309F44BC0E2E922
:104AA000F3E084918F010F5F1F4F882321F00E9454
:104AB000FD40F801F6CF80914810882351F1BE01E6
:104AC0006F5F7F4F85E490E10E940E5C8E010F5F67
:104AD0001F4FD8018D918D01882319F00E94FD4050
:104AE000F8CFBE016F5F7F4F80E090E00E94985446
:104AF0008091660E8823C9F080E20E94FD4006E6A0
:104B00001EE0F80181918F01882379F00E94FD4019
:104B1000F8CFE5E6F3E084918F010F5F1F4F882304
:104B200021F00E94FD40F801F6CF8AE00E94FD408E
:104B30000C9454348091570E882371F18091560E55
:104B4000882351F1EFE6F3E084918F010F5F1F4F4F
:104B5000882321F00E94FD40F801F6CF6091F61005
:104B60007091F7108091F8109091F9104AE00E942E
:104B700094458FE20E94FD406091F2107091F31015
:104B80008091F4109091F5104AE00E9494458AE0DB
:104B90000E94FD400C945434E1E8F3E084918F01CD
:104BA0000F5F1F4F882311F40C9454340E94FD4072
:104BB000F801F4CF0E9404420C9454348091560EB4
:104BC00081110E94B6A58091570E882311F40C9490
:104BD000543480E50E94F03C882319F00E94663C22
:104BE00003C080E50E94A93C182F482F61E0809106
:104BF000C31B9091C41B0E94D05483E50E94F03CDB
:104C0000882381F00E94423CAB01BC014093F61026
:104C10005093F7106093F8107093F91085E490E1C9
:104C20000E94255B8091570E882319F081E08093C4
:104C3000560E11110C9454341ECF0E94D2380C948D
:104C400054340E948D8668A379A38AA39BA3BE01D6
:104C50006F5F7F4FCE0180960E943B3F60E0CE01A8
:104C600001960E942294E0E8FEE084918F010F5F9C
:104C70001F4F882321F00E94FD40F801F6CFBE01AE
:104C80006F5F7F4F81EA93E00E9490DA8AE00E9492
:104C9000FD400C9454340E949AB30C9454340E94F6
:104CA000C1860C9454340E9415DB0C94543488E66D
:104CB00090E00E94FC4581110C9454348091580D71
:104CC00083FF02C00C94543483E50E94F03C882397
:104CD000C9F00E94763C0E9403F8709381026093B1
:104CE000800280E00E94FD6A0E94763C20E030E075
:104CF0004AEA52E40E945CEF181624F00E9415DB89
:104D00000E9490CB0E94C7DB0C9454348EE40E9426
:104D1000F03C882311F40C9454340E94423C60937C
:104D2000C8047093C9048093CA049093CB040C9474
:104D300054340E94ADAF0C945434109235010C944D
:104D4000543483E50E94F03C882369F00E94523C71
:104D50008D3320F4809354010C9454348CE380936D
:104D600054010C945434E0E8FEE084918F010F5F0D
:104D70001F4F882321F00E94FD40F801F6CF40919B
:104D8000540150E060E070E087EB93E00E943DDA70
:104D90008AE00E94FD400C9454340E9449B2109263
:104DA0000D110C9442380E943DB00C945434809103
:104DB000580D83FF02C00C94543483E50E94F03CEC
:104DC00061968FAF619781110C94593482E50E94EE
:104DD000F03C81110C9459340C94543480E50E94B9
:104DE000F03C811106C083E50E94F03C882361F00D
:104DF00006C00E94523C81110C945434F4CF0E949E
:104E0000423C6F3F710510F06FEF70E070938302CA
:104E1000609382020C94543480E50E94F03C81112E
:104E200006C010928302109282020C9454340E94A5
:104E3000423C672B11F00C945434F3CF0E94486B22
:104E40000E94C6A5109283021092820268EE73E05F
:104E500080E090E00E94CF8160E088EE93E00E94C5
:104E6000E7820C9454341092F9010C94543481E08C
:104E70008093F9010C94543483E50E94F03C88231C
:104E8000A1F00E94763C20E030E04AE754E40E9422
:104E9000C2EF0E940AF86093550170935601809307
:104EA0005701909358010C94543488E50E94A93C12
:104EB00081110C940F3689E50E94A93C81110C9454
:104EC0000F368AE50E94A93C81110C940F3685E4C7
:104ED0000E94A93C81110C940F360E94C6A50C9427
:104EE00054340E94F7AE0C9454340E94BBAE0C9420
:104EF00054340E9491AD0C9454348091C31B909112
:104F0000C41BDC012C91211104C00E9490CB0C9495
:104F1000543460E00E9422940C9454340091C31BDA
:104F20001091C41B83E0D12C40E08150E1F0F801E6
:104F30009081292F2B7F2134C1F721812133A9F7BB
:104F4000913421F0953421F441E002C0DD24D39462
:104F500098012E5F3F4F89012F5F3F4FD8019C91F1
:104F60009032C9F3E2CF442369F0E0E8FEE0849197
:104F70007F01BFEFEB1AFB0A882321F00E94FD405E
:104F8000F701F5CFDD2069F0E7EFF3E084917F01D1
:104F90002FEFE21AF20A882321F00E94FD40F70168
:104FA000F5CFD8018D918D01882309F4BECD0E94E3
:104FB000FD40F7CF0E94B8D90C94543481E080931F
:104FC0007B0680937A060C94543410927B061092E0
:104FD0007A060C94543483E50E94F03C882319F03F
:104FE0000E94423C02C060E070E08B011127023059
:104FF0001105D4F0E5E6FEE084918F010F5F1F4FAD
:10500000882321F00E94FD40F801F6CFEBEFF3E09A
:1050100084918F010F5F1F4F882311F40C94543437
:105020000E94FD40F801F4CF88E40E94F03C882300
:10503000A1F00E94423C6A3A710534F0663F710566
:105040002CF065EF70E002C06AEA70E0F801EE0F44
:10505000FF1FEC56F24F7183608386E40E94F03CA0
:105060008823A9F00E94423CF801EE0FFF1FE8568A
:10507000F24F718360836F3F710519F014F06FEF89
:1050800070E077FF02C060E070E07183608382E4CB
:105090000E94F03C882311F40C9454340E94423C4A
:1050A0006530710534F0663571052CF065E570E00A
:1050B00002C065E070E0000F111FF801E057F24FE9
:1050C000718360830C94543488EC90E00E94FC451A
:1050D00081110C94543484E40E94A93C8823C1F1CA
:1050E0000E94763C11E020E030E0A9010E945CEFD4
:1050F000811101C010E01093820D112349F10E942B
:10510000763CE091FB04B4E0EB9FF0011124E258FF
:10511000F24F608371838283938320E030E0A901A2
:1051200060917E0D70917F0D8091800D9091810D29
:105130000E945CEF81110CC080E090E0A0EEBFE324
:1051400080937E0D90937F0DA093800DB093810D81
:105150000E94D2D40C945434F80181918F010E94A2
:10516000A93C882351F00E94763C0E940AF8D7019E
:105170006D937D938D939C931397B4E0EB0EF11C8C
:10518000D012EACF0E94F7DB0C94543498E7E92E52
:1051900091E1F92E0EE511E024E0D22ED00EF801B7
:1051A00081918F010E94A93C882341F00E94763CA6
:1051B000D7016D937D938D939C931397B4E0EB0E81
:1051C000F11CD012ECCF0C94543483E50E94F03CD7
:1051D0008823A1F00E94763C6093A0117093A111E6
:1051E0008093A2119093A3116093981170939911D9
:1051F00080939A1190939B1110E001C011E080E51B
:105200000E94F03C882359F00E94763C6093A011E4
:105210007093A1118093A2119093A31110E082E5E5
:105220000E94F03C882359F00E94763C60939C11C8
:1052300070939D1180939E1190939F1110E084E5CF
:105240000E94F03C882361F00E94763C60939811A4
:105250007093991180939A1190939B110C945434EC
:10526000112311F40C9454344091A0115091A111C8
:105270006091A2117091A31183E294E00E945ADA26
:1052800040919C1150919D1160919E1170919F11C0
:1052900080E294E00E945ADA40919811509199115D
:1052A00060919A1170919B118DE194E00E945ADAFD
:1052B0008AE00E94FD400C94543481E50E94A93C90
:1052C000882351F00E94323C6093530D7093540D2B
:1052D0008093550D9093560D83E50E94A93C882339
:1052E00051F00E94763C6093741170937511809315
:1052F00076119093771184E50E94A93C882351F0A0
:105300000E94763C609370117093711180937211BA
:105310009093731188E50E94A93C882351F00E9464
:10532000763C60935E0D70935F0D8093600D90935B
:10533000610D89E50E94A93C882351F00E94763CCA
:105340006093620D7093630D8093640D9093650D6F
:105350008AE50E94A93C8823F1F00E94763C609384
:10536000660D7093670D8093680D9093690D2DEC19
:105370003CEC4CEC5DE30E945CEF181664F0E3E358
:10538000F4E084918F010F5F1F4F882321F00E946A
:10539000FD40F801F6CF85E40E94A93C882311F472
:1053A0000C9454340E94763C60936A0D70936B0D9C
:1053B00080936C0D90936D0D0C9454340EE5C02EBB
:1053C00001E0D02E8DE7E82E86E0F82E10E0F60101
:1053D00081916F010E94A93C882359F00E94763C7C
:1053E000D7016D937D938D939C931397812F0E948A
:1053F000603A1F5FB4E0EB0EF11C133041F786C832
:1054000080911906082F017011E0012781FBFF240C
:10541000F0F8F12682FB882780F91827011102C0D5
:10542000FF2019F0E0E8FEE014C01111FBCF13E9F2
:10543000812E1EE0912EA6EBB4E0B9AFA8AFFE011D
:1054400031965F010CED1EE01F01F3E0F00FFCAFA1
:105450007CC084916F012FEFC21AD20A882321F0F9
:105460000E94FD40F601F5CFE5E8F4E084916F017C
:105470003FEFC31AD30A882321F00E94FD40F601B2
:10548000F5CF002369F0E3E8F4E084916F014FEF7A
:10549000C41AD40A882321F00E94FD40F601F5CFFA
:1054A000FF2069F0E1E8F4E084916F015FEFC51A35
:1054B000D50A882321F00E94FD40F601F5CF111195
:1054C00003C0E7E7F4E00DC0EFE7F4E084916F017B
:1054D0006FEFC61AD60A8823A1F30E94FD40F60199
:1054E000F5CF84916F017FEFC71AD70A882321F087
:1054F0000E94FD40F601F5CF111103C04BEA51E0C7
:1055000002C040EB51E0F11003C02BEA31E002C0D1
:1055100022EB31E0011103C08BEA91E002C084EB81
:1055200091E05F934F933F932F939F938F9385E6E3
:1055300094E09F938F931F920E94AF570FB6F894F9
:10554000DEBF0FBECDBF0C945434F401659175914C
:1055500085919491A8ADB9ADCD90DD90ED90FD9081
:10556000B9AFA8AFA70196010E9496F62B013C01A6
:1055700020E030E040EA51EC0E94F7F887FD10C0CF
:1055800020E030E040EA51E4C301B2010E945CEF48
:10559000181634F0F10140825182628273820DC08C
:1055A000F80184911816B4F7F7FAF094F7F8F0942C
:1055B000F101C082D182E282F382D101CD90DD90EF
:1055C000ED90FD901D0120E030E040EA51ECC70174
:1055D000B6010E94F7F887FF03C0E5E6FEE00BC0C6
:1055E00020E030E040EA51E4C701B6010E945CEFE0
:1055F00018167CF5F2CF84918F010F5F1F4F88231F
:1056000021F00E94FD40F801F6CFE9EAF4E0849130
:105610008F010F5F1F4F882321F00E94FD40F8018A
:10562000F6CF61E08BE994E00E94E7820E948CCC87
:1056300088E290E099A388A388EC90E09DA78CA7CE
:10564000BE01605E7F4FCE018C960E945DC30C94BC
:105650005434B4E08B0E911C0F5F1F4FECADE01380
:1056600074CFBDE7EB2EB6E0FB2E10E0F501819183
:105670009191A191B1915F01F70181939193A193D0
:10568000B1937F01812F0E94603A1F5F133071F741
:105690000E94F0AD60E08BE894E00E94E78283E92D
:1056A00092E09DA78CA704E610E019A308A3BE0111
:1056B000645D7F4FCE0180960E945DC38AEB92E0CD
:1056C0009DA78CA719A308A3BE01645D7F4FCE01DF
:1056D00080960E945DC30C94543484918F010F5FB7
:1056E0001F4F882321F00E94FD40F801F6CF83E58B
:1056F0000E94A93C882321F00E94663C80932601E9
:10570000EFEEF4E084918F010F5F1F4F882321F0AB
:105710000E94FD40F801F6CF80912601811103C05F
:10572000EBEEF4E002C0E7EEF4E084918F010F5F4E
:105730001F4F882321F00E94FD40F801F6CFEFEDC6
:10574000F4E084918F010F5F1F4F882321F00E94A6
:10575000FD40F801F6CF20912306309124064091B8
:1057600025065091260660912F0670913006809193
:105770003106909132060E9497F6AB01BC018DED87
:1057800094E00E945ADA2091270630912806409131
:10579000290650912A066091330670913406809153
:1057A0003506909136060E9497F6AB01BC018AED52
:1057B00094E00E945ADA20912B0630912C064091F9
:1057C0002D0650912E066091370670913806809113
:1057D000390690913A060E9497F6AB01BC0187ED1D
:1057E00094E00E945ADAEFECF4E084918F010F5FAD
:1057F0001F4F882321F00E94FD40F801F6CF209131
:10580000230630912406409125065091260660918A
:105810001A0170911B0180911C0190911D010E9441
:1058200097F6AB01BC018DEC94E00E945ADA20910E
:105830002706309128064091290650912A0660914A
:105840001E0170911F0180912001909121010E9401
:1058500097F6AB01BC018AEC94E00E945ADA2091E1
:105860002B0630912C0640912D0650912E0660910A
:1058700022017091230180912401909125010E94C1
:1058800097F6AB01BC0187EC94E00E945ADA8AE0FB
:105890000E94FD400C94543483E50E94F03C882320
:1058A00011F40C9454340E94423C70932E01609386
:1058B0002D010C9454348DED90E00E94FC45811133
:1058C0000C94543483E50E94F03C8823D9F1009174
:1058D000FB0410E00E94423C000F111FF801E55D3F
:1058E000FE4F718360838091FB0490E07C01EE0C9D
:1058F000FF1CEE0CFF1C8701095D1E4F880F991FCE
:10590000FC01E55DFE4F60817181072E000C880B64
:10591000990B0E9463EF2AE037ED43E25CE30E94BB
:10592000C2EFF701EE5BF94F208131814281538153
:105930000E94C2EFD8016D937D938D939C93139732
:105940000C945434E0E8FEE084918F010F5F1F4F08
:10595000882321F00E94FD40F801F6CF85E40E94E3
:10596000FD408091FB04805D0E94FD40E091FB04BE
:10597000F0E0EE0FFF1FE55DFE4F608171818FEF5C
:1059800094E00E9477DA85E20E94FD408AE00E945E
:10599000FD408AC780E50E94A93C882309F484C79A
:1059A0000E94423C6B017C0183E50E94F03C88230D
:1059B00021F00E94423C8B0102C00FEF1FEFC80193
:1059C0000196039708F070C7D7FC6EC79C2DE7E0DF
:1059D000F5E08DE28E0F2491921711F40C94343679
:1059E00031968E13F8CF0C94373683E50E94F03C45
:1059F000882319F00E94423C02C064E071E079A360
:105A000068A380E50E94F03C882339F00E94423C64
:105A10006938B3E17B0730F402C068EE73E07A8343
:105A2000698304C088E893E19A838983BE01605E3C
:105A30007F4FCE0101960E945DC336C785E40E9468
:105A4000F03C811110C080E50E94A93C882391F0B0
:105A50000E94763C6093830D7093840D8093850D36
:105A60009093860D07C00E94523C882361F3E5E6BF
:105A7000FEE06EC089E40E94A93C882381F00E9468
:105A8000763C2CEA35EC47E25EE30E94C2EF60937D
:105A90008B0D70938C0D80938D0D90938E0D84E4FF
:105AA0000E94A93C882381F00E94763C2CEA35ECC8
:105AB00047E25EE30E9491F76093870D7093880D33
:105AC0008093890D90938A0DE0E8FEE084918F0128
:105AD0000F5F1F4F882321F00E94FD40F801F6CF91
