:100000000C94E8190C94121A0C94121A0C94121AEB
:100010000C94121A0C94121A0C94121A0C94121AB0
:100020000C94121A0C94121A0C94121A0C94121AA0
:100030000C94121A0C9447D90C94121A0C94121A9C
:100040000C94121A0C949A430C9457DF0C94121AC5
:100050000C941A420C94121A0C94121A0C94121A40
:100060000C94121A0C94121A0C94121A0C94121A60
:100070000C94121A0C94121A0C94121A0C94121A50
:100080000C94121A0C94121A0C94121A65DD68DD85
:100090005BDD5FDD7FDD7FDD6CDD70DD76DD7ADDF4
:1000A000C6DECBDED0DEDADE08DF08DFE4DEECDE43
:1000B000F4DEFEDE084AD73B3BCE016E84BCBFFDBA
:1000C000C12F3D6C74319ABD56833DDA3D00C77F28
:1000D00011BED9E4BB4C3E916BAAAABE00000080C1
:1000E0003F05A84CCDB2D44EB93836A9020C50B950
:1000F000918688083CA6AAAA2ABE000000803F007C
:100100004E414E494E495459494E46CDCCCC3D0AFC
:10011000D7233C17B7D13877CC2B329595E6241FDF
:10012000B14F0A000020410000C84200401C462098
:10013000BCBE4CCA1B0E5AAEC59D7400407A10F36B
:100140005A00A0724E18090010A5D4E80000E87605
:1001500048170000E40B54020000CA9A3B0000005C
:10016000E1F505000080969800000040420F000075
:1001700000A08601000000102700000000E8030036
:100180000000006400000000000A00000000000100
:1001900000000000002C76D888DC674F0823DFC100
:1001A000DFAE59E1B1B796E5E3E453C63AE65199BB
:1001B0007696E8E6C28426EB898C9B62ED407C6FE4
:1001C000FCEFBC9C9F40F2BAA56FA5F490055A2A9B
:1001D000F75C936B6CF9676DC11BFCE0E40D47FEA7
:1001E000F520E6B500D0ED902E030094357705009C
:1001F00080841E080000204E0A000000C80C333323
:1002000033330F986E12831141EF8D2114893BE631
:100210005516CFFEE6DB18D1844B381BF77C1D90BA
:100220001DA4BBE424203284725E228100C9F12423
:10023000ECA1E53D27434F4D4D554E4943415449AF
:100240004F4E0044525952554E004552524F525350
:1002500000494E464F004543484F00536C6565705A
:100260002E2E2E00206F6620004D424C2047323942
:1002700020706F696E74200059206F7574206F664E
:100280002072616E67652028312D33292E0A0058AF
:10029000206F7574206F662072616E67652028314B
:1002A0002D33292E0A004D6573682070726F6269C4
:1002B0006E6720646F6E652E0A005374617274203D
:1002C0006D6573682070726F62696E6720776974FC
:1002D00068202247323920533122206669727374B4
:1002E0002E0A004732380A473239205332005374FD
:1002F0006174653A20004D65736820626564206C06
:100300006576656C696E6720686173206E6F206426
:100310006174612E0A0053206F7574206F6620721D
:10032000616E67652028302D35292E0A004D6573D2
:100330006820706F696E742063616E6E6F742062E6
:1003400065207265736F6C7665640A00436C69633F
:100350006B20746F20726573756D652E2E2E004EA6
:100360006F204D6F76652E00456E642066696C6562
:10037000206C6973740A00426567696E2066696C57
:1003800065206C6973740A00286E6F2066696C655D
:1003900029005344207072696E74696E6720627917
:1003A000746520004E6F74205344207072696E741F
:1003B000696E670A0043757272656E742066696CB7
:1003C000653A200046696C652064656C65746564F7
:1003D0003A0044656C6574696F6E206661696C658E
:1003E000642C2046696C653A20005072696E742056
:1003F00074696D653A200046696C616D656E7420A4
:10040000757365643A200053746174733A20002C4C
:10041000204C6F6E67657374206A6F623A200054D7
:100420006F74616C2074696D653A20005374617457
:10043000733A20002C204661696C65643A20002CD8
:100440002046696E69736865643A20005072696E6F
:1004500074733A200053746174733A200056025149
:10046000024A02430235026F666600444542554720
:100470003A004B494C4C45442E20004D313133203D
:10048000530020573A004520436F6F6C696E672018
:10049000446F776E2E2E2E00452048656174696E7C
:1004A000672055702E2E2E0020573A00426564209A
:1004B000436F6F6C696E6720446F776E2E2E2E002F
:1004C0004265642048656174696E672055702E2E00
:1004D0002E0057616E68616F206933204F66662E6B
:1004E000002F2F20004D31343520533C696E646558
:1004F000783E206F7574206F662072616E6765208C
:1005000028302D31290A0020540020520041636315
:10051000656C65726174696F6E3A20500057415284
:100520004E494E4721204C6F77205A204A65726B06
:10053000206D6179206C65616420746F20756E7721
:10054000616E746564207061757365732E0A00486E
:100550006F6D65202573257325732066697273742A
:10056000002066697273740A005A005900580048E6
:100570006F6D6520004F66667365747320417070FF
:100580006C696564004572723A20546F6F20666131
:10059000722100546F6F206661722066726F6D2049
:1005A0007265666572656E636520706F696E740A48
:1005B00000205A00205900580020204D61783A2030
:1005C00000205A00205900580020204D696E3A2022
:1005D000004F6E20004F666600536F667420656E94
:1005E0006473746F70733A200020466C6F773A2002
:1005F0000000010F150E12FFFFFFFF16170E13FF6D
:10060000FFFFFF03021A14FFFFFFFFFFFFFF0C04B1
:10061000FFFFFF01000EFFFFFF0C190DFF18206404
:100620003A0020693A0020703A00496E76616C69A0
:10063000642065787472756465720A0043290A0043
:1006400061626C656420286D696E2074656D702030
:1006500000436F6C64206578747275646573206103
:10066000726520004E6F2063617365206C69676856
:10067000740A004F66660A00466164652048656931
:100680006768742000426564204C6576656C696E0D
:100690006720004661696C656420746F20656E6137
:1006A000626C6520426564204C6576656C696E6796
:1006B0000A004D65736820426564204C6576656C60
:1006C00020646174613A0A004D65736820706F6937
:1006D0006E742063616E6E6F742062652072657344
:1006E0006F6C7665640A004D34323120696E636F39
:1006F000727265637420706172616D6574657220D9
:1007000075736167650A0041637469766520457891
:100710007472756465723A2000496E76616C696422
:100720002065787472756465720A00256973002506
:10073000696D20256973002569682025696D20256C
:10074000697300256964202569682025696D202565
:100750006973002569792025696420256968202549
:10076000696D20256973004E6F20436865636B7364
:10077000756D2077697468206C696E65206E756D83
:100780006265722C204C617374204C696E653A204E
:10079000004B494C4C45442E200053544F5050457B
:1007A000442E20005072696E7465722073746F70ED
:1007B0007065642064756520746F206572726F7255
:1007C000732E2046697820746865206572726F7296
:1007D00020616E6420757365204D39393920746F3E
:1007E00020726573746172742E202854656D706573
:1007F0007261747572652069732072657365742EF9
:100800002053657420697420616674657220726576
:100810007374617274696E67290A004E6F204368B1
:1008200065636B73756D2077697468206C696E659C
:10083000206E756D6265722C204C617374204C695A
:100840006E653A2000636865636B73756D206D6932
:10085000736D617463682C204C617374204C696EF5
:10086000653A20004C696E65204E756D6265722098
:100870006973206E6F74204C617374204C696E65CF
:10088000204E756D6265722B312C204C6173742083
:100890004C696E653A20004D313130004D333100E6
:1008A00053442072656164206572726F720A00445D
:1008B0006F6E65207072696E74696E672066696C10
:1008C000650A0020496E76616C69642065787472EF
:1008D0007564657220000000000000000000000048
:1008E0000000000048430000484300000C43486FEC
:1008F0006D696E67206661696C6564210047322FFF
:1009000047332062616420706172616D6574657245
:10091000730A0024F4D43050C38E20C2A240178240
:100920008B7011127A910D816CD90AA861E108C708
:10093000586607615143061E4B5D05C145A7041A61
:10094000411104093D9803713931034036DB0265DA
:10095000339102D4305402802E1D02632CEE0175B7
:100960002AC501B028A001102781018F2564012B21
:10097000244B01E0223401AC211F018D200D0180A8
:100980001FFC00841EED00971DDF00B81CD200E69E
:100990001BC600201BBC00641AB200B219A8000AD2
:1009A00019A0006A189900D117910040178B00B563
:1009B00016840031167E00B31579003A157300C70E
:1009C000146F0058146A00EE136600881363002544
:1009D000135E00C7125B006C12570015125400C161
:1009E00011510070114F0021114B00D61049008D9C
:1009F0001047004610440002104200C00F40008023
:100A00000F3E00420F3C00060F3B00CB0E38009318
:100A10000E37005C0E3500270E3400F30D3200C196
:100A20000D3100900D3000600D2E00320D2D0005AF
:100A30000D2C00D90C2B00AE0C2900850C29005C74
:100A40000C2700350C27000E0C2600E80B2400C4F0
:100A50000B2400A00B23007D0B23005A0B2100392F
:100A60000B2100180B2000F80A1F00D90A1E00BB3A
:100A70000A1E009D0A1D00800A1D00630A1C004713
:100A80000A1B002C0A1B00110A1A00F7091A00DDC4
:100A9000091900C4091900AB091900920917007B54
:100AA000091800630917004C0916003609160020C2
:100AB0000916000A091500F5081500E0081400CC15
:100AC000081400B8081400A4081400900813007D4E
:100AD0000812006B08130058081200460812003470
:100AE000081100230811001208110001081100F07C
:100AF000071000E0071000D0071000C0071000B07A
:100B0000070F00A107100091070E0083070F007464
:100B1000070F0065070E0057070E0049070E003B40
:100B2000070D002E070E0020070D0013070D00060D
:100B3000070D00F9060C00ED060D00E0060C00D4D0
:100B4000060C00C8060C00BC060C00B0060C00A485
:100B5000060B0099060C008D060B0082060B007731
:100B6000060B006C060B0061060A0057060B004CD2
:100B7000060A0042060A0038060A002E060A002469
:100B8000060A001A060A001006090007060A00FDF8
:100B9000050900F4050900EB050900E2050900D983
:100BA000050900D0050900C7050900BE050900B503
:100BB000050800AD050800A50509009C050800947E
:100BC0000508008C050800840508007C05080074F1
:100BD0000508006C050700650508005D050700565F
:100BE0000508004E050700470507004005080038C6
:100BF000050700310507002A050700230507001C2B
:100C0000050600160507000F050700080506000287
:100C1000050700FB040600F5040700EE040600E8E3
:100C2000040600E2040700DB040600D5040600CF3A
:100C3000040600C9040600C3040600BD040600B78C
:100C4000040600B1040500AC040600A6040600A0DA
:100C50000405009B04060095040500900406008A24
:100C600004050085040500800406007A040500756B
:100C7000040500700405006B0405006604050061AE
:100C80000405005C04050057040500520405004DEE
:100C900004050048040500430405003E0404003A2E
:100CA00004050035040500300404002C0405002769
:100CB000040400230405001E0404001A04040016A2
:100CC000040500110404000D0404000904050004D7
:100CD00004040000040400FC030400F8030400F40E
:100CE000030400F0030400EC030400E8030400E440
:100CF000030400E0030400DC030400D8030400D470
:100D0000030400D0030400CC030400C8030300C59F
:100D100003030024F404D9201BC40C5C0E9804C403
:100D2000095F0265077101F405F900FB04B300488F
:100D3000048700C10369005803550003034500BE42
:100D4000023A008402310053022A002902250004DD
:100D5000022000E4011C00C8011900AF011700982F
:100D60000114008401130071011000610110005191
:100D7000010E0043010D0036010B002B010B00207A
:100D8000010B00150109000C01090003010800FB1B
:100D9000000800F3000800EB000700E4000600DE96
:100DA000000600D8000600D2000600CC000500C7EF
:100DB000000500C2000500BD000400B9000400B534
:100DC000000400B1000400AD000400A9000400A567
:100DD000000300A20003009F0004009B0003009892
:100DE0000003009500020093000300900003008DB3
:100DF0000002008B000300880002008600020084CD
:100E0000000300810002007F0002007D0002007BE1
:100E100000020079000200770001007600020074F1
:100E200000020072000100710002006F0002006DFC
:100E30000001006C0002006A000100690002006706
:100E4000000100660001006500010064000200620C
:100E500000010061000100600001005F0002005D10
:100E60000001005C0001005B0001005A0001005914
:100E70000001005800010057000100560001005514
:100E80000001005400010053000000530001005213
:100E900000010051000100500001004F0001004E10
:100EA0000000004E0001004D0001004C0001004B0D
:100EB0000000004B0001004A000100490001004809
:100EC0000000004800010047000100460000004605
:100ED00000010045000000450001004400010043FE
:100EE00000000043000100420000004200010041F8
:100EF00000000041000100400001003F0000003FF1
:100F00000001003E0000003E0001003D0000003DE9
:100F10000001003C0000003C0000003C0001003BE0
:100F20000000003B0001003A0000003A00010039D7
:100F300000000039000100380000003800000038CF
:100F400000010037000000370001003600000036C5
:100F500000000036000100350000003500000035BB
:100F600000010034000000340000003400010033B0
:100F700000000033000000330001003200000032A6
:100F8000000000320001003100000031000000319B
:100F90000001003000000030000000300001002F90
:100FA0000000002F0000002F0000002F0001002E85
:100FB0000000002E0000002E0001002D0000002D7A
:100FC0000000002D0000002D0001002C0000002C6E
:100FD0000000002C0000002C0001002B0000002B62
:100FE0000000002B0000002B0001002A0000002A56
:100FF0000000002A0000002A00010029000000294A
:10100000000000290000002900000029000100283C
:101010000000002800000028000000280000002830
:101020000001002700000027000000270000002723
:101030000000002700010026000000260000002616
:101040000000002600000026000100250000002509
:1010500000000025000000250000002500000025FC
:1010600000010024000000240000002400000024EF
:1010700000000024000100230000002300000023E2
:1010800000000023000000230000002300000023D4
:1010900000010022000000220000002200000022C7
:1010A00000000022000000220001002100000021B9
:1010B00000000021000000210000002100000021AC
:1010C000000000210001002000000020000000209E
:1010D0000000002000000020000000200000002090
:1010E000000000200001001F0000001F0000001F82
:1010F0000000001F0000001F0000001F0000001F74
:101100000001001E0000001E0000001E0000001E66
:10111000000000043700001E290000511B00005889
:1011200010000010090000CC04000078020000410B
:101130000100006265640A002C2073797374656D88
:101140002073746F707065642120486561746572E6
:101150005F49443A20004265642048656174696EC5
:1011600067204661696C65640048656174696E67F3
:10117000206661696C656400453120486561746969
:101180006E67204661696C65640048656174696ECC
:1011900067206661696C656400453120544845529A
:1011A0004D414C2052554E41574159203A2800425A
:1011B000454420544845524D414C2052554E4157CC
:1011C0004159203A2800546865726D616C2052754F
:1011D0006E61776179004D3234004D3233202573D2
:1011E00000556E6B6E6F776E20636F6D6D616E6410
:1011F0003A20220053442063617264206F6B0A001E
:101200006F70656E526F6F74206661696C65640AF9
:1012100000766F6C756D652E696E69742066616904
:101220006C65640A00534420696E697420666169C4
:101230006C0A000000484200004842000080400064
:1012400000000057726974696E6720746F206669C8
:101250006C653A20006F70656E206661696C65642C
:101260002C2046696C653A20006F70656E206661BF
:10127000696C65642C2046696C653A200046696C8F
:10128000652073656C65637465640A002053697A30
:10129000653A200046696C65206F70656E65643A3A
:1012A00020002066696C653A2000646F696E6700F3
:1012B0006672657368004E6F772000454E44205378
:1012C0005542524F5554494E450A002220706F73C3
:1012D000002220706172656E743A220053554252AA
:1012E0004F5554494E452043414C4C207461726720
:1012F00065743A22004B494C4C45442E20007472D0
:1013000079696E6720746F2063616C6C20737562FD
:101310002D67636F64652066696C657320776974F7
:101320006820746F6F206D616E79206C6576656CD6
:10133000732E204D4158206C6576656C2069733A98
:10134000004572726F723A0043616E6E6F74206F67
:1013500070656E2073756264697220006563686FE2
:101360003A00206E6F7420656E74657265642E0A93
:101370000043616E6E6F74206F70656E20737562CE
:10138000646972200050726F7465637465642050E4
:10139000696E0A006F6B00205A3A0020593A00200B
:1013A000436F756E7420583A0020453A00205A3A2F
:1013B0000020593A00583A002C20002C20003A0016
:1013C0004361703A00544845524D414C5F50524F72
:1013D00054454354494F4E004155544F5245504F88
:1013E00052545F53445F53544154555300454D4547
:1013F0005247454E43595F50415253455200434175
:1014000053455F4C494748545F4252494748544E00
:1014100045535300544F47474C455F4C4947485448
:101420005300534F4654574152455F504F57455212
:10143000004255494C445F50455243454E54004C80
:101440004556454C494E475F44415441005A5F5010
:10145000524F4245004155544F4C4556454C005063
:1014600052494E545F4A4F420050524F47524553E3
:1014700053004155544F5245504F52545F54454DBF
:101480005000564F4C554D45545249430045455028
:10149000524F4D0053455249414C5F584F4E5F5893
:1014A0004F4646004649524D574152455F4E414DC9
:1014B000453A4D61726C696E20312E312E392028EB
:1014C0004769746875622920534F555243455F43FD
:1014D0004F44455F55524C3A68747470733A2F2FDD
:1014E0006769746875622E636F6D2F4D61726C69E8
:1014F0006E4669726D776172652F4D61726C696EAF
:101500002050524F544F434F4C5F56455253494F12
:101510004E3A312E30204D414348494E455F545993
:1015200050453A57616E68616F20693320455854C1
:1015300052554445525F434F554E543A312055550C
:1015400049443A33333666386464352D6639383564
:101550002D343062352D616462322D366137366448
:10156000633864646361640A0023646566696E6558
:101570002044454641554C545F4B6420002364652C
:1015800066696E652044454641554C545F4B692061
:101590000023646566696E652044454641554C5498
:1015A0005F4B702000504944204175746F74756E14
:1015B000652066696E6973686564212050757420C2
:1015C000746865206C617374204B702C204B69200B
:1015D000616E64204B6420636F6E7374616E74730C
:1015E0002066726F6D2062656C6F7720696E746F14
:1015F00020436F6E66696775726174696F6E2E68DD
:101600000A00504944204175746F74756E652066F8
:1016100061696C6564212074696D656F75740A0079
:10162000453120544845524D414C2052554E41576A
:101630004159203A2800546865726D616C205275DA
:101640006E617761790045312048656174696E6724
:10165000204661696C65640048656174696E672045
:101660006661696C656400504944204175746F740B
:10167000756E65206661696C6564212054656D70C6
:101680006572617475726520746F6F206869676830
:101690000A00204B643A2000204B693A2000204B7E
:1016A000703A20000A20436C6173736963205049CB
:1016B00044200A002054753A2000204B753A20003F
:1016C000206D61783A2000206D696E3A2000206418
:1016D0003A200020626961733A2000504944204159
:1016E00075746F74756E65206661696C6564212020
:1016F000426164206578747275646572206E756DE0
:101700006265720A00504944204175746F74756EA9
:10171000652073746172740A00454550524F4D2024
:1017200064697361626C65640A0048617264636F26
:101730006465642044656661756C742053657474D7
:10174000696E6773204C6F616465640A00BC0200B7
:1017500000BC02000064000000102700000000969A
:1017600043000096430000A0400000C8410000A0D4
:10177000420000A0420000C8430000C84220286D7B
:101780006D290020440020490020204D33303120B5
:1017900050005049442073657474696E67733A0A47
:1017A0000020460020420020480020204D313435E2
:1017B0002053004D6174657269616C2068656174C5
:1017C000757020706172616D65746572733A0A009C
:1017D000205A002059002020473239205333205806
:1017E00000205A0020204D3432302053004D6573C4
:1017F0006820426564204C6576656C696E673A0ABC
:1018000000205A0020590020204D32303620580048
:10181000486F6D65206F66667365743A0A002045EF
:1018200000205A0020590020580020540020530066
:1018300020204D32303520510020453C6D61785FCD
:10184000655F6A65726B3E0020583C6D61785F7819
:101850005F6A65726B3E20593C6D61785F795F6AA3
:1018600065726B3E205A3C6D61785F7A5F6A657283
:101870006B3E00416476616E6365643A20513C6D55
:10188000696E5F7365676D656E745F74696D655FC2
:1018900075733E20533C6D696E5F66656564726169
:1018A00074653E20543C6D696E5F74726176656C40
:1018B0005F66656564726174653E00205400205265
:1018C0000020204D323034205000416363656C6548
:1018D000726174696F6E2028756E6974732F73322C
:1018E000293A20503C7072696E745F616363656C65
:1018F0003E20523C726574726163745F616363651C
:101900006C3E20543C74726176656C5F6163636504
:101910006C3E0A00204500205A0020590020204D2E
:101920003230312058004D6178696D756D2041630A
:1019300063656C65726174696F6E2028756E697479
:10194000732F7332293A0A00204500205A0020598B
:101950000020204D3230332058004D6178696D757C
:101960006D206665656472617465732028756E69A3
:1019700074732F73293A0A00204500205A00205919
:101980000020204D39322058005374657073207048
:10199000657220756E69743A0A0020204D3230302D
:1019A0002044300A0020204D3230302044002044B2
:1019B000697361626C65640A0046696C616D656E8D
:1019C000742073657474696E67733A0020204D311A
:1019D00034392043203B20556E69747320696E2092
:1019E00043656C736975730A0020204732312020EB
:1019F00020203B004C6576656C696E6720436F6DF7
:101A0000706C65746521004D6F7665205A00473211
:101A100039205332004E65787420506F696E74001F
:101A20002569202F20257500473239205331004782
:101A3000323920533200436C69636B20746F20533A
:101A40007461727400486F6D696E672058595A004E
:101A500047323800426564205A00426564205A00CB
:101A6000466164652048656967687400466164651D
:101A700020486569676874004F6666004F6E2000F5
:101A8000426564204C6576656C696E67004C6576CE
:101A9000656C204265640050726570617265004D2E
:101AA000343238005072656865617420504C4100D2
:101AB000436F6F6C646F776E005072656865617418
:101AC000204142530044697361626C652053746520
:101AD0007070657273004D38340053657420486F20
:101AE0006D65204F66667365747300426564204CB3
:101AF0006576656C696E67004175746F20486F6D1F
:101B00006500473238004D6F766520417869730073
:101B10004D61696E004D6F76652058004D6F76659A
:101B20002059004D6F7665205A00457874727564AF
:101B30006572004D6F766520302E316D6D004D6FF2
:101B4000766520316D6D004D6F76652031306D6D9D
:101B5000004D6F7665204178697300457874727521
:101B6000646572004D6F7665205A004D6F76652072
:101B700059004D6F766520580056652D6A65726B69
:101B80000056652D6A65726B0056652D6A65726B2D
:101B900000567A2D6A65726B00567A2D6A65726BF3
:101BA0000056792D6A65726B0056792D6A65726BE5
:101BB0000056792D6A65726B0056782D6A65726BD6
:101BC0000056782D6A65726B0056782D6A65726BC7
:101BD000004D6F74696F6E004573746570732F6D7F
:101BE0006D004573746570732F6D6D005A73746565
:101BF00070732F6D6D005A73746570732F6D6D0067
:101C00005973746570732F6D6D00597374657073BB
:101C10002F6D6D005873746570732F6D6D00587360
:101C2000746570732F6D6D004D6F74696F6E005326
:101C3000746570732F6D6D004A65726B004163634C
:101C4000656C65726174696F6E0056656C6F63696F
:101C5000747900436F6E74726F6C0046696C2E204D
:101C60004469612E0046696C2E204469612E004F44
:101C70006666004F6E20004520696E206D6D330052
:101C8000436F6E74726F6C0043616E6E6F7420658B
:101C90006E746572207375626469723A2000022E58
:101CA0002E000152656672657368004D61696E00B1
:101CB0005072696E742041626F72746564004D32B7
:101CC00031004E6F205344204361726400456A65C1
:101CD00063742053442043617264004D32310050DC
:101CE00072696E742066726F6D2053440053746F76
:101CF00070205072696E7400526573756D65205066
:101D000072696E7400496E69742E205344204361D9
:101D10007264005061757365205072696E7400437F
:101D20006F6E74726F6C00507265706172650054F2
:101D3000756E6500437573746F6D20436F6D6D61D3
:101D40006E647300496E666F2053637265656E0042
:101D5000466C6F7700466C6F770046616E2073703B
:101D60006565640046616E20737065656400426558
:101D70006400426564004E6F7A7A6C65004E6F7A3B
:101D80007A6C65004661646520486569676874001F
:101D9000466164652048656967687400426564202F
:101DA0005A00426564205A005370656564005370A0
:101DB000656564004D61696E0050726568656174A7
:101DC00020504C4120456E64005072656865617416
:101DD00020504C4120426564005072656865617412
:101DE00020504C4100507265706172650050726500
:101DF000686561742041425320456E6400507265ED
:101E000068656174204142532042656400507265E8
:101E1000686561742041425300507265706172655B
:101E2000004B494C4C45442E2000202D20496E7615
:101E3000616C6964206578747275646572206E7572
:101E40006D62657220210A00200000000000000081
:101E5000000000000000000440000000000000003E
:101E600000000000000000028000000000000000F0
:101E700000000000000000010000000380000000DE
:101E800000000000000000000000000380000000CF
:101E90000000000000000000000000010000000041
:101EA0000000000000000000000000010000000031
:101EB0000000000000000000000000010000000021
:101EC0000000000000000000000000010000000011
:101ED000000000000000000000000007C00000003B
:101EE0000F000100000F00000001FFFFFE000000D6
:101EF00008808100000880000003FFFFFFFFC00092
:101F000008BDC13C1E08BD200003000003FC4000CA
:101F10000F248124020F2520000300000004780014
:101F200008A49D25DEE8A4C000030000000408000A
:101F300008A481241208A52000033FFF0004080024
:101F40000F3CC1241E0F3D2000033FFFFF8408000B
:101F5000000000000000000000033007FFC408007C
:101F600000000000000000000003300000C4080072
:101F70000000000000000000000333C000C408801F
:101F80008000000000000000000333C000C409808E
:101F9000C000000000000000000333C000C40B803C
:101FA000E000000000000000000333C1FCC40B800F
:101FB000E3C2000002000020000333C1FCC40BE3B5
:101FC000E202000020000020000333C1FCC40BE348
:101FD000E20E48EF74F3CF20000333C000C409FFC2
:101FE000C3D24901249241200003300000C408FFFD
:101FF0008212490F24924F2007FF300000C4087F4F
:1020000002124909249249200FFF300000C4083C05
:1020100003CE78EF34F24F200FFF300000C4083CAD
:1020200000000000000000000F8731C01CC47FFECC
:102030000000000000000000070731E03CC47FFE04
:1020400000000000000000001F8330FFF8C47FFE86
:1020500000000000000000003FC3303FE0CC7FFCE8
:1020600000000000000000007FE33FC000CC7FF8CC
:102070000000000000000000F8F31FFF00CC080083
:102080000007004000400000F87300FFFFCC08008C
:102090000004804004000000F0730001FF8C080081
:1020A00000049E71EE8DC00070630000000C0800FB
:1020B000000712492491000020430000000C080092
:1020C000000492492490C00000031F00000C080087
:1020D000000492492490400000031100000C080005
:1020E00000049E71E68DC00000031100000C080082
:1020F000000000000000000000031107000C0800B1
:10210000000000000000000000031F07F80C08009A
:102110000000000000000000000300007F0C080029
:10212000000000000000000000030000070C080091
:10213000000000000000000000030000000C080088
:1021400000000000000000000003F000000C080088
:1021500000000000000000000001FF80000C1020C3
:1021600000200080000000000001FFF8000C60204B
:1021700002000080000000000001FFFFC00CE038FA
:10218000F74F3CE3D20778000001FFFFFE0DE0248B
:1021900092490492520808000001FFFFFFFFE0246B
:1021A00092493C924C0878000000FFFFFFFFE024BA
:1021B000924924925208480000000FFFFFFFE038C8
:1021C000F3493CE3D2477800000000FFFFFFC00066
:1021D00000000000000000000000000FFFFF800072
:1021E000000000000000000000000000FFFF01B63A
:1021F000DB6DB6DB6DB6DB00000000000FFE0000FB
:1022000000000000000000000000000000FC0000D2
:10221000000000000000000080000000000000003E
:10222000000000000000000140000000000000006D
:10223000000000000000000220000000000000007C
:1022400000000000000000041FFFFFFFFFFFFF6011
:102250000000000001FF400000000000FF800000BF
:102260000000007F83CF00000C303F87FF80000C10
:10227000301F867980000C000F8C30C7838C30E7CC
:102280008C30CFC7CC31F38C30DCECEC33B98C30F4
:10229000D86C6C33198C30D06C0C33198C30D86CF2
:1022A0000C33198C30DC6C0E3B198C30CF7C079FC3
:1022B000198C30C77C038F194000000000000260B9
:1022C0000000000000061FFFFFFFFFFFF820205066
:1022D0006C616E6E65724275666665724279746590
:1022E000733A20002046726565204D656D6F7279E6
:1022F0003A2000436F6D70696C65643A20417072DA
:1023000020203820323031390A00207C2041757479
:10231000686F723A204D6174746865772050696502
:10232000726365792C20426F742D496E2D612D42A8
:102330006F7820456475636174696F6E616C2052BB
:102340006F626F746963730A00323031382D303830
:102350002D303100204C61737420557064617465B8
:10236000643A2000312E312E390A004D61726C69B9
:102370006E0020536F6674776172652052657365D5
:10238000740A00205761746368646F672052657334
:1023900065740A002042726F776E206F7574205248
:1023A000657365740A002045787465726E616C20EF
:1023B00052657365740A00506F77657255700A0034
:1023C00073746172740A006175746F25692E6700F9
:1023D0006572726F722077726974696E6720746FAC
:1023E0002066696C650A00456E6473746F707320B3
:1023F000256320256320256320256300205A3A00A9
:1024000020593A0020583A00656E6473746F7073F7
:10241000206869743A2000446F6E652073617669A4
:102420006E672066696C652E0A004D323900627550
:1024300073793A2070617573656420666F722069E4
:102440006E7075740A00627573793A2070617573E5
:10245000656420666F7220757365720A0062757319
:10246000793A2070726F63657373696E670A004B07
:10247000494C4C45442E20004B494C4C206361751F
:1024800073656420627920746F6F206D75636820B6
:10249000696E6163746976652074696D65202D20AD
:1024A00063757272656E7420636F6D6D616E643AF0
:1024B0002000506C6561736520526573657400502F
:1024C00052494E5445522048414C544544005072A4
:1024D000696E7465722068616C7465642E206B6926
:1024E0006C6C28292063616C6C6564210A00656E40
:1024F0007175657565696E67202200000000000037
:10250000000000000000005761726E696E673A209B
:10251000486F6D696E672042756D702044697669F9
:10252000736F72203C20310A000202040000A040B8
:102530000000A04000000040000048430000484365
:1025400000000C43FFFFFF00002110422063308495
:1025500040A550C660E770088129914AA16BB18CF3
:10256000C1ADD1CEE1EFF13112100273325222B57A
:10257000529442F772D662399318837BB35AA3BD43
:10258000D39CC3FFF3DEE36224433420040114E64A
:1025900064C774A44485546AA54BB528850995EE93
:1025A000E5CFF5ACC58DD55336722611163006D75A
:1025B00076F6669556B4465BB77AA719973887DFE3
:1025C000F7FEE79DD7BCC7C448E5588668A77840A2
:1025D00008611802282338CCC9EDD98EE9AFF94833
:1025E0008969990AA92BB9F55AD44AB77A966A71BA
:1025F0001A500A333A122AFDDBDCCBBFFB9EEB7983
:102600009B588B3BBB1AABA66C877CE44CC55C2209
:102610002C033C600C411CAEED8FFDECCDCDDD2AD2
:10262000AD0BBD688D499D977EB66ED55EF44E1399
:102630003E322E511E700E9FFFBEEFDDDFFCCF1B22
:10264000BF3AAF599F788F8891A981CAB1EBA10C8D
:10265000D12DC14EF16FE18010A100C230E3200402
:1026600050254046706760B9839893FBA3DAB33D69
:10267000C31CD37FE35EF3B1029012F322D2323552
:1026800042145277625672EAB5CBA5A89589856E39
:10269000F54FE52CD50DC5E234C324A014810466A2
:1026A00074476424540544DBA7FAB79987B8975F49
:1026B000E77EF71DC73CD7D326F2369106B01657F2
:1026C000667676154634564CD96DC90EF92FE9C891
:1026D00099E9898AB9ABA94458654806782768C042
:1026E00018E1088238A3287DCB5CDB3FEB1EFBF9A9
:1026F0008BD89BBBAB9ABB754A545A376A167AF192
:102700000AD01AB32A923A2EFD0FED6CDD4DCDAAF8
:10271000BD8BADE89DC98D267C076C645C454CA2E1
:102720003C832CE01CC10C1FEF3EFF5DCF7CDF9B88
:10273000AFBABFD98FF89F176E367E554E745E9331
:102740002EB23ED10EF01E4578747275646572002B
:102750004D6F7665205A004D6F76652059004D6F9C
:10276000766520580050726570617265005265731D
:10277000746F7265204661696C73616665004669B5
:102780006C616D656E74004D6F74696F6E00546599
:102790006D7065726174757265004D61696E00508F
:1027A0007265686561742041425320636F6E6600F4
:1027B0005072656865617420504C4120636F6E668D
:1027C000005049442D44005049442D440050494490
:1027D0002D49005049442D49005049442D50005086
:1027E00049442D50002008204661637400200820D1
:1027F00046616374002008204D6178002008204D58
:102800006178002008204D6178002008204D696E15
:10281000002008204D696E002008204D696E004F91
:102820006666004F6E20004175746F74656D7000B0
:1028300046616E2073706565640046616E2073703A
:102840006565640042656400426564004E6F7A7A93
:102850006C65004E6F7A7A6C6500436F6E74726FB0
:102860006C0042656400426564004E6F7A7A6C6564
:10287000004E6F7A7A6C650046616E2073706565F4
:10288000640046616E2073706565640054656D7008
:10289000657261747572650020746F6F206C6F6E65
:1028A0006720657874727573696F6E2070726576D3
:1028B000656E7465640A0020636F6C6420657874CB
:1028C000727573696F6E2070726576656E7465647B
:1028D0000A00AE002C01BA002701C7002201D60071
:1028E0001D01E6001801F70013010A010E011F0186
:1028F0000901350104014E01FF006A01FA00880157
:10290000F500AA01F000CE01EB00F701E600240279
:10291000E1005602DC008D02D700CA02D2000E038D
:10292000CD005A03C800AE03C3000C04BE007504FA
:10293000B900EA04B4006C05AF00FE05AA00A106C8
:10294000A5005707A00022089B0004099600010A71
:1029500091001A0B8C00510C8700AA0D8200260FE3
:102960007D00C81078008F1273007E146E009416DC
:102970006900CE1864002A1B5F00A31D5A00342092
:102980005500D32250007A254B001E284600B52A58
:102990004100352D3C00962F3700D0313200DD3319
:1029A0002D00B935280063372300DA381E00203A9D
:1029B0001900373B1400243C0F00E93C0A008D3D10
:1029C0000500123E00004531204572723A204D410B
:1029D0005854454D50004572723A204D4158544567
:1029E0004D5020424544004D415854454D502074AF
:1029F0007269676765726564004531204572723A95
:102A0000204D494E54454D50004572723A204D4973
:102A10004E54454D5020424544004D494E54454D7D
:102A20005020747269676765726564004D383420A0
:102A3000582059205A204500202F002042403A00BB
:102A400020403A0000060900FE0701920321207F82
:102A5000FF07FF07FF00000006000001070706024E
:102A60000080808080800080030202060105A0A013
:102A70000507070600005050F850F85050050707AA
:102A80000600002078A07028F02005070706000047
:102A9000C0C810204098180507070600006090A0E5
:102AA00040A89068020303060104C04080030707A2
:102AB00006010020408080804020030707060100B7
:102AC0008040202020408005050506000120A870D8
:102AD000A8200505050600012020F8202002030398
:102AE0000602FFC04080050101060003F802020251
:102AF000060200C0C0050505060001081020408040
:102B00000507070600007088888888887003070713
:102B100006010040C040404040E0050707060000B5
:102B2000708808708080F8050707060000F81020FC
:102B3000100808F005070706000010305090F81044
:102B400010050707060000F880F0080888700507E0
:102B500007060000708080F088887005070706006F
:102B600000F80810202020200507070600007088C4
:102B700088708888700507070600007088887808C4
:102B80000870020505060200C0C000C0C0020606AB
:102B90000602FFC0C000C040800407070600001006
:102BA000204080402010050303060002F800F804CE
:102BB0000707060100804020102040800507070617
:102BC000000070880810200020050707060000702C
:102BD000880868A8A870050707060000708888F8AC
:102BE000888888050707060000F08888F08888F044
:102BF0000507070600007088808080887005070739
:102C0000060000F08888888888F00507070600001D
:102C1000F88080F08080F8050707060000F88080C3
:102C2000F0808080050707060000708880B88888DB
:102C300070050707060000888888F88888880107DB
:102C400007060200808080808080800507070600DC
:102C500000381010101090600507070600008890DB
:102C6000A0C0A090880507070600008080808080B3
:102C700080F805070706000088D8A8888888880596
:102C800007070600008888C8A898888805070706EF
:102C9000000070888888888870050707060000F0A3
:102CA0008888F08080800507070600007088888883
:102CB000A89068050707060000F08888F0A09088B3
:102CC000050707060000788080700808F0050707F0
:102CD000060000F82020202020200507070600001D
:102CE0008888888888887005070706000088888893
:102CF000888850200507070600008888888888A8EB
:102D0000500507070600008888502050888805076E
:102D10000706000088888850202020050707060045
:102D200000F80810204080F8030707060100E08043
:102D300080808080E00505050600018040201008A5
:102D4000030707060100E02020202020E005030300
:102D5000060004205088050101060000F802020266
:102D60000602058040050505060000700878887891
:102D70000507070600008080B0C88888F0050505B3
:102D800006000070808088700507070600000808AC
:102D900068988888780505050600007088F88070B6
:102DA0000507070600003048E040404040050606A1
:102DB0000600FF7088887808700507070600008005
:102DC00080B0C888888801070706020080008080DC
:102DD0008080800308080601FF200020202020A01A
:102DE00040040707060000808090A0C0A090030761
:102DF00007060100C04040404040E00505050600D0
:102E000000D0A8A8A8A8050505060000B0C88888B5
:102E10008805050506000070888888700506060686
:102E200000FFF08888F080800506060600FF78889D
:102E300088780808050505060000B0C88080800570
:102E4000050506000070807008F004070706000002
:102E50004040E04040403005050506000088888875
:102E60009868050505060000888888502005050536
:102E70000600008888A8A8500505050600008850AF
:102E80002050880506060600FF88888878087005A7
:102E90000505060000F8102040F8030707060100AA
:102EA00020404080404020010707060200808080CB
:102EB000808080800307070601008040402040405A
:102EC0008005020206000268900000000600000073
:102ED000060900FE000000000001090008FE0000D5
:102EE00005080806000040F0C88888987810050892
:102EF00008060000C0F88888888888F80505050657
:102F000000012030F830200508080600002070F885
:102F100020202020E00509090600FF2070A8A8B89D
:102F2000888870200509090600FFE080C0B0A82845
:102F30003028280509090600FFF8A88888888888AD
:102F4000A8F8050A0A0600FE205050505088A8A88C
:102F5000887003030306000340A040253164002568
:102F6000326400253364002534640025356400256F
:102F70003664003048483020202020001A002520E8
:102F8000200025200025753A253032750025303285
:102F9000753A25303275006F70656E206661696C18
:102FA00065642C2046696C653A20004D6F76696E29
:102FB000672E2E2E00ECEE8A88CACC8A888A88EE8C
:102FC0008E00005455AAAA0000EECE48AA4EAA4888
:102FD000CE48AA4EAA000000000000000000000039
:102FE0000000000000000000000000FE7FFE7F06E1
:102FF000600000000000000000F00FF81FF81FF84C
:103000001FF00FF00FF81FF81FF81FE007C0038034
:1030100001000000000000FE7F0E702664724E7AF0
:103020005E324C8241324C7A5E724E26640E70FEE5
:103030007F000000000000FE7F0E70C663C2438266
:10304000411A58BA5D1A588241C243C6630E70FED7
:103050007F0000000000008808880810112022204E
:1030600022101188088808101100000000000000DC
:1030700000000000000000202210118808880810BD
:1030800011202220221011880800000000000000FA
:10309000000000000057616E68616F206933204FA7
:1030A0004B2E005072696E74696E672E2E2E005082
:1030B00072696E7420506175736564004D313430EF
:1030C000205336300A4D31303420533230350A4DDA
:1030D00031313720437573746F6D2053637269709B
:1030E00074204F4B004D313430205338300A4D316D
:1030F000303420533234300A4D3131372043757328
:10310000746F6D20536372697074204F4B004732A7
:10311000380A4D3530330A4D3131372043757374D9
:103120006F6D20536372697074204F4B00473238C3
:103130000A4730205A35300A4D3138205334300A8E
:103140004D31313720437573746F6D20536372694D
:103150007074204F4B00486F6D65202620496E66C5
:103160006F0050726568656174204142530050726F
:10317000656865617420504C41004D6F766520454F
:10318000204F7574206F6620746865205761790040
:103190004D61696E005654726176206D696E0056FD
:1031A00054726176206D696E005654726176206D9E
:1031B000696E00566D696E00566D696E00566D69D8
:1031C0006E00566D6178204500566D61782045008F
:1031D000566D6178204500566D6178205A00566D15
:1031E0006178205A00566D6178205A00566D6178DA
:1031F000205900566D6178205900566D617820592C
:1032000000566D6178205800566D61782058005640
:103210006D61782058004D6F74696F6E00416D616B
:1032200078204500416D6178204500416D6178202E
:103230005A00416D6178205A00416D617820590033
:10324000416D6178205900416D6178205800416DD1
:103250006178205800412D74726176656C00412DB3
:1032600074726176656C00412D726574726163746D
:1032700000412D7265747261637400416363656C13
:1032800000416363656C004D6F74696F6E007C3C38
:103290003E5E2B3D3F2F5B5D3B2C2A225C0054524F
:1032A00049474745524544006F70656E003A20001B
:1032B0007A5F6D696E00795F6D696E00785F6D6928
:1032C0006E005265706F7274696E6720656E64730C
:1032D000746F70207374617475730A000A4D6561B0
:1032E000737572656420706F696E74733A0A005A60
:1032F000206F66667365743A20004E756D20582CF9
:10330000593A20332C330A00526573656E643A20B3
:10331000006F6B0020746F6F206C6F6E6720657894
:1033200074727573696F6E2070726576656E746500
:10333000640A0020636F6C64206578747275736929
:103340006F6E2070726576656E7465640A000000A9
:103350002100240027002A00000022002500280068
:103360002B00000020002300260029000202020298
:103370000202020204040404040404040303030319
:10338000030303030101010101010101010204081A
:10339000102040800102040810204080010204082F
:1033A000102040808040201008040201000000012D
:1033B00002000000000000000403080700000000F5
:1033C0000000000000000000000000001FE5FEE417
:1033D00011241FBECFEFD0E4DEBFCDBF11E0A0E0CF
:1033E000B1E0E2E6F0EF01E00BBF02C007900D9202
:1033F000A63FB107D9F722E1A6EFB1E001C01D92C7
:10340000A43FB207E1F719E1C7EED9E104C0219763
:10341000FE010E9470F4C63ED107C9F70E942CE05D
:103420000C9424F80C9400002F923F924F925F92DC
:103430006F927F928F929F92AF92BF92CF92DF92C4
:10344000EF92FF920F931F93CF93DF93CDB7DEB729
:10345000EC970FB6F894DEBF0FBECDBF41E04093AE
:10346000910780914F0D8D3409F4E0C3843511F438
:103470000C943230873411F00C947E3020914D0D35
:1034800030914E0D2C31310509F47FC06CF424309D
:10349000310534F4223031058CF537FF28C0C2C322
:1034A00024303105A1F1BEC32A35310509F4FEC22D
:1034B0004CF42D31310509F46DC02A32310509F47F
:1034C00066C2B0C32B35310509F4F4C22C35310581
:1034D00009F0A8C33EE5232E31E0332E4FE9C42E78
:1034E00047E0D42EE12CF12C00E010E020C38091C5
:1034F0000B0181110C9485300C94803081E02230D6
:10350000310509F080E00E9444380C94803080E559
:103510000E94AA36882329F00E94EC356B017C01B9
:1035200003C0C12CD12C760183E50E94AA368823E2
:1035300061F00E94303620E030E04AE754E40E9417
:10354000B9ED0E9401F66B017C010E941FA88091D9
:103550003705811105C060E08BE592E00E948B8BFE
:103560000E944BDFC60ED71EE81EF91E0E944BDFDD
:10357000DC01CB018C199D09AE09BF09B7FD02C062
:103580000C9480300E94F490F1CF80E00E94B361EF
:103590000C94803083E50E94AA36882311F10E94A2
:1035A0000C36863070F0E6E1F3E084918F010F5F16
:1035B0001F4F882311F40C9480300E943A38F80190
:1035C000F4CF833009F458C134F4813071F1823082
:1035D00009F43FC006C0843009F4B0C1853009F455
:1035E000BDC10E94AB32882399F080917B05811187
:1035F00003C06CEA71E002C068EA71E08EEE92E00E
:103600000E9462DA8AE00E943A380E9451E6BBC109
:10361000E6EFF2E084918F010F5F1F4F882309F4DA
:10362000B2C10E943A38F801F5CF0E94C7D2109279
:103630000101109200018091710581110AC083EE91
:1036400092E090932803809327030E9477340C9490
:103650008030809100019091010197FF0EC0EAEB4C
:10366000F2E084918F010F5F1F4F882311F40C94B7
:1036700080300E943A38F801F4CF0097A1F480918D
:103680001F018093FB0119821A821B821C8218A2DF
:1036900019A21AA21BA2BE016F5F7F4FCE018096B6
:1036A0000E9478552BC0815063E00E941BF480FF7C
:1036B00003C022E0291B922F292F990F330BF90108
:1036C000EE0FFF1FE20FF31FE80FF11D87FDFA95C4
:1036D000EE0FFF1FEE0FFF1FE85FF24F80915705BF
:1036E00090915805A0915905B0915A058083918316
:1036F000A283B3838091FB0180931F01809100011D
:1037000090910101893091050CF067C010921F0162
:103710009C012F5F3F4F309301012093000163E034
:103720000E941BF480FF03C022E0291B922F4091CE
:103730005705509158056091590570915A0548A355
:1037400059A36AA37BA319821A821B821C8244E0BC
:10375000840290011124B9016054764F4B01DB01C2
:103760002D913D914D915C91B4E09B02C0011124DB
:10377000FC01E453F64F5F01608171818281938186
:10378000DE0111966D01E12CF12C00EA10E40E949B
:10379000A95419821A821B821C82B601CE0180961E
:1037A0000E947855F50180819181A281B381809337
:1037B0004F0590935005A0935105B0935205F40125
:1037C00080819181A281B3818093530590935405A8
:1037D000A0935505B093560544C080E090E0A0EA60
:1037E000B0E48093570590935805A0935905B09382
:1037F0005A050E94C3330E941FA88FEF9FEF90933A
:10380000010180930001E6EAF2E084918F010F5FED
:103810001F4F882321F00E943A38F801F6CF83E940
:1038200092E09A83898304E610E019A308A3BE01FD
:103830006F5F7F4FCE0180960E9498BE8AEB92E028
:103840009A83898319A308A3BE016F5F7F4FCE01BE
:1038500080960E9498BE81E00E94B36181E00E9440
:10386000DB321092710560910001709101016930A5
:1038700071050CF47BC078C088E50E94AA368823C5
:10388000A1F00E94FC351FEF160F1330A8F0EFE8EF
:10389000F2E084918F010F5F1F4F882311F40C9485
:1038A00080300E943A38F801F4CF88E50E943A3817
:1038B0000E941CE00C94803089E50E94AA3688237F
:1038C000A1F00E94FC350FEF060F0330A8F0E8E7E7
:1038D000F2E084918F010F5F1F4F882311F40C9445
:1038E00080300E943A38F801F4CF89E50E943A38D6
:1038F0000E941CE00C9480308AE50E94AA3688233E
:10390000B1F00E943036212F30E0F901EE0FFF1F99
:10391000E20FF31FE00FF11DEE0FFF1FEE0FFF1F71
:10392000E85FF24F60837183828393832CC08AE5C2
:103930000E943A380E941CE00C9480308AE50E9474
:10394000AA368823A1F30E943036609373057093E2
:103950007405809375059093760515C080E00E94EC
:10396000DB320E94C7D20FC069E070E089E692E0C6
:103970000E9449DA69E070E084E692E00E9449DA48
:103980008AE00E943A380E94415E0C948030809117
:103990000B01882311F40C94803089E40E94AA362C
:1039A000F82E882321F00E94FC35062F01C000E08C
:1039B0008AE40E94AA36E82E882331F00E94FC3562
:1039C000162FF11004C00AC010E0FF20B1F0033040
:1039D00010F40C941532EDE2F3E003C01330D8F785
:1039E0000CC084918F010F5F1F4F882311F40C943A
:1039F00080300E943A38F801F4CF0E943038FF201E
:103A000091F024E00202F0011124E453F64F80818A
:103A10009181A281B3818093AB079093AC07A0936F
:103A2000AD07B093AE07EE2091F034E01302F00141
:103A30001124E054F64F80819181A281B38180935B
:103A4000AF079093B007A093B107B093B20780E59A
:103A50000E94AA36882319F00E94203603C080E510
:103A60000E94633686E40E94AA368823D9F00E9419
:103A700030366B017C0120E030E0A9010E94EEF6B7
:103A8000181684F420E030E040E752E4C701B601A4
:103A90000E9488F560930F017093100180931101CB
:103AA000909312010E945CD30C9480301092FA0122
:103AB0000C9480304093FA010C9480300E94303690
:103AC0002B013C01133059F0F701E458FA4F2081E3
:103AD0003181428153810E948DF42B013C01F70119
:103AE000E15BFA4F2081318142815381C301B201F0
:103AF0000E948DF44B015C012DEB37E346E855EB5A
:103B00000E94EEF687FD1BC02DEB37E346E855E338
:103B1000C501B4010E9453ED18168CF01F5FB4E08C
:103B2000CB0ED11CE4E0EE0EF11C143039F1D101C2
:103B30008D911D010E94AA36882381F3BFCF1330D7
:103B400051F440925B0550925C0560925D05709265
:103B50005E0501E0E3CFA5019401F601608171816A
:103B6000828193810E948EF4D6016D937D938D9313
:103B70009C931397812F0E941A34D0CF002309F40D
:103B800002CF20E030E0A90160915B0570915C05F7
:103B900080915D0590915E050E948EF42091B7059D
:103BA0003091B8054091B9055091BA050E94B9ED20
:103BB0000E94FBF66093BC097093BD098093BE0917
:103BC0009093BF0990919A0980919B09981719F0D9
:103BD0000E94C1A7D8CE0E941FA880916F0081FBD0
:103BE000992790F981FF05C080916F008D7F8093A8
:103BF0006F004091BC095091BD096091BE09709160
:103C0000BF094093800250938102609382027093B7
:103C10008302992309F4B7CE80916F00826080936C
:103C20006F00B1CE0E947E570C94803080914D0D74
:103C300090914E0D8137910509F462C60CF0DAC0FF
:103C40008A32910509F476C40CF06BC08831910575
:103C500009F49AC2B4F58231910511F40C945C27F1
:103C6000BCF497FF02C00C942F30823091050CF405
:103C7000C4C1419711F00C942F3060E08FE593E0C0
:103C80000E948B8B5E985E9815985E980C9480309D
:103C90008531910509F45DC23CF4449711F00C9410
:103CA0002F30E7E7F3E021C28631910509F455C2D0
:103CB000479711F00C942F30E0914B0DF0914C0D83
:103CC00056C28D31910511F40C948030C4F48A31C0
:103CD000910509F468C20CF460C28B31910509F4B6
:103CE00066C24C9711F00C942F3040E060E0809158
:103CF0004B0D90914C0D0E94B8520C9480308F3136
:103D0000910509F4EDC30CF404C38032910509F464
:103D10009BC3819711F00C942F300E949C600C94EF
:103D200080308C35910511F40C946027A4F5813511
:103D3000910511F40C943E27C4F48C34910509F4D8
:103D400041C44CF48B34910511F00C942F300E9437
:103D500089DA0C9480308D34910509F437C48E349F
:103D6000910509F437C40C942F308335910511F473
:103D70000C94572714F40C9453278435910511F4AF
:103D80000C945C278535910511F00C942F300E941E
:103D9000E65F0C9480308C36910509F4ADC5BCF417
:103DA0008936910509F4D8C534F48836910509F4AB
:103DB00013C50C942F308A36910511F40C940E27FC
:103DC0008B36910511F40C942C270C942F308E36E1
:103DD000910509F430C50CF4C5C58F36910509F479
:103DE0003DC58037910511F00C942F3082E794E0A7
:103DF0000E9486908C3D910511F40C94232C0CF0BC
:103E00006FC08139910511F40C94CA2754F5863797
:103E1000910511F40C946C278CF48337910511F4FF
:103E20000C94682714F40C9464278537910511F0DD
:103E30000C942F300E94D55D0C948030883791050A
:103E400011F40C94BD2714F40C94B927893791050B
:103E500011F40C94C4278C38910509F417C70C94FD
:103E60002F308B3C910511F40C94A5281CF58E3B4A
:103E7000910509F429C74CF48B39910511F00C9484
:103E80002F300E9451600C948030883C910511F4D1
:103E90000C944328893C910511F00C942F3034EE9A
:103EA000E32E3CE0F32E0EE511E044E0D42ED00EDC
:103EB0000C948B288D3C910511F40C94392914F441
:103EC0000C94C4288E3C910511F40C94B829833DC0
:103ED000910511F00C942F30ECE5F3E10C94452B97
:103EE000843AF1E09F0711F40C94002E0CF040C0CE
:103EF0008E3231E0930711F40C94902DD4F4823E6D
:103F0000910511F40C949D2C3CF48D3D910511F418
:103F10000C94302C0C942F308C3251E0950711F416
:103F20000C94C62C8D32914011F40C94EF2C0C940F
:103F30002F30833671E0970711F40C94E42D4CF484
:103F40008F32914011F00C942F300E94B3590C9491
:103F500080308039E1E09E0711F40C94FD2D8A3900
:103F6000914011F00C942F300E9471590C948030C4
:103F7000863F21E0920711F40C942C3004F58C3A22
:103F800041E0940711F40C94DB293CF4853A91400C
:103F900011F40C94472F0C942F30843F71E0970755
:103FA00011F40C942930853F914011F00C942F307E
:103FB0000E94FA6680E00E94A9620C9480308B38DF
:103FC000B3E09B0711F40C9480304CF4873F914090
:103FD00011F00C942F300E9466590C948030803A76
:103FE00023E0920709F46FC2873E934011F00C94CE
:103FF0002F300E9451590C948030A0904B0DB090FE
:104000004C0D80E50E94AA36882359F00E94EC35B9
:104010006B017C0111E0672B682B692B31F410E0F8
:1040200004C010E0C12CD12C760183E50E94AA3691
:10403000882311F40C948A300E94303620E030E05E
:104040004AE754E40E94B9ED0E9401F66B017C013D
:1040500011110BC0672B682B692B39F4A114B10423
:1040600021F0D5018C91811102C010E001C011E056
:104070000E941FA8112329F061E0C5010E94D1AC64
:1040800005C060E08CE493E00E948B8B83E080931A
:10409000910781E080931A08C114D104E104F1046E
:1040A000E9F00E944BDFC60ED71EE81EF91E0E94E3
:1040B0004BDFDC01CB018C199D09AE09BF09B7FDAF
:1040C00006C00E94EBBE10921A080C9480308091BA
:1040D0001A088823B1F30E94F490E9CF80911A085E
:1040E000882379F30E94F490F9CF84918F010F5FB8
:1040F0001F4F882321F00E943A38F801F6CF109222
:104100009C0C40E050E0BA018FE49AE00E9470C835
:104110006BE47AE0CE0101960E94CC6840E050E06A
:10412000BE016F5F7F4F80E090E00E94AB50CE01F8
:1041300001960E946A90E8E6F3E084918F010F5F98
:104140001F4F882311F40C9480300E943A38F801F4
:10415000F4CF0E94B0550C9480301092F809109260
:10416000F9090C948030803209F4108231968081F4
:104170008111F9CF40E061E080914B0D90914C0DA1
:104180000E94B8520C9480308091F90981114093BB
:10419000F8090E9489DA0C9480301092F8090E9484
:1041A00035480C9480300E9499610C94803083E4EF
:1041B0000E946336882309F46CC0E5EBF3E0849138
:1041C0008F010F5F1F4F882321F00E943A38F801BA
:1041D000F6CF8091EA0B882351F1BE016F5F7F4FCC
:1041E00087EE9BE00E9484CC8E010F5F1F4FF80189
:1041F00081918F01882319F00E943A38F8CFBE01CF
:104200006F5F7F4F80E090E00E9480528091080AAB
:104210008823D1F180E20E943A3808E01AE0D80100
:104220008D918D01882381F10E943A38F8CFE8E81A
:10423000F3E084918F010F5F1F4F882329F10E94C3
:104240003A38F801F6CF80910108882309F447C372
:104250002DE5C22E24E0D22EE12CF12C20E080911D
:10426000010890E00E2C02C0959587950A94E2F71C
:1042700080FD1DC3FFEFEF1AFF0A32E0C30ED11C11
:1042800045E0E416F10459F78AE00E943A380C94AC
:1042900080308091F909882371F18091F809882391
:1042A00051F1E2E9F3E084918F010F5F1F4F882302
:1042B00021F00E943A38F801F6CF6091980C709185
:1042C000990C80919A0C90919B0C4AE00E94DF40DF
:1042D0008FE20E943A386091940C7091950C809115
:1042E000960C9091970C4AE00E94DF408AE00E9471
:1042F0003A380C948030E4EAF3E084918F010F5F48
:104300001F4F882311F40C9480300E943A38F80132
:10431000F4CF8091F909882311F40C94803087EE52
:104320009BE00E942DC887EE9BE00E94D4CC1092A7
:10433000F7091092F60900914B0D10914C0D8091E8
:10434000F909882311F40C9480300E94DEBCB80176
:10435000CE0180960E9426BC8C01892B11F40C940E
:10436000803068A179A16115710511F06C5F7F4FF4
:1043700019821C8222E0A801CE0101960E94DDCCA8
:10438000811102C0F12C1EC0CE0101960E9494BB87
:104390008823C1F36D857E858F85988941E00E94D1
:1043A0003669882379F3E989B0E2EB9FF0011124A3
:1043B000E45DFC4F309731F385EE80831C820E94D0
:1043C000F668F82ECE0101960E942A38FF2011F1DE
:1043D000E4ECF3E084917F012FEFE21AF20A8823E4
:1043E00021F00E943A38F701F5CFD8018D918D0167
:1043F000882319F00E943A38F8CF8AE00E943A38B0
:104400001092980C1092990C10929A0C10929B0C8E
:104410000C948030E2EDF3E084917F01BFEFEB1A62
:10442000FB0A882321F00E943A38F701F5CFF80102
:1044300081918F01882319F00E943A38F8CF8EE2DB
:104440000E943A380C9480308091F80981110E94C2
:104450001FA88091F909882311F40C94803080E51D
:104460000E94AA36882319F00E94203603C080E5F6
:104470000E946336182F482F61E080914B0D909178
:104480004C0D0E94B85283E50E94AA36882381F021
:104490000E94FC35AB01BC014093980C5093990CE1
:1044A00060939A0C70939B0C87EE9BE00E9470C8FF
:1044B0008091F909882319F081E08093F80911119E
:1044C0000C94803066CE80914B0D90914C0D21E084
:1044D0002093F70940E060E00E94B8520C948030CD
:1044E0000E94014868A379A38AA39BA3BE016F5FC2
:1044F0007F4FCE0180960E946A3760E0CE01019620
:104500000E94D1ACECE5F3E184918F010F5F1F4F66
:10451000882321F00E943A38F801F6CFBE016F5F80
:104520007F4F8AEE93E00E9462DA8AE00E943A3876
:104530000C94803083E50E94AA36882311F40C94F1
:1045400080300E940C36E82E80E50E94AA3688232F
:1045500039F00E940C36182F87FF03C00C9480306E
:104560001BE189E40E94AA36882349F00E94203684
:10457000811111C0E1EFF5E08DE28E0F07C089E4F3
:104580000E946336F5CF31968E1729F09491191356
:10459000FACF0C94913161E0812F0E9463DE6E2D81
:1045A000812F0E9433DEF12CB701812F0E949FDE04
:1045B000143011F00C948030F0921C03E0921B0335
:1045C0000C9480300E9435480C9480300E94E7DAC9
:1045D0000C94803083E50E94AA36811103C0E5E582
:1045E000F4E009C00E94FC356E347105C1F70E94E9
:1045F00058DB0C94803084918F010F5F1F4F88230C
:1046000021F00E943A38F801F6CFECE4F4E084910E
:104610008F010F5F1F4F882321F00E943A38F80165
:10462000F6CF6091E8057091E90580E090E04AE0FE
:104630000E94DF40EFE3F4E084918F010F5F1F4F92
:10464000882321F00E943A38F801F6CF6091EA05FC
:104650007091EB0580E090E04AE00E94DF40E4E3E7
:10466000F4E084918F010F5F1F4F882321F00E9497
:104670003A38F801F6CF6091E8057091E90580912C
:10468000EA059091EB05681B790B8091E605815056
:1046900021E030E0823010F020E030E0621B730B4C
:1046A00080E090E04AE00E94DF408AE00E943A38D1
:1046B000ECE2F4E084918F010F5F1F4F882321F01B
:1046C0000E943A38F801F6CF8091EC059091ED0503
:1046D000A091EE05B091EF0588A399A3AAA3BBA36F
:1046E000BE016F5F7F4FCE0180960E946A37EFE177
:1046F000F4E084918F010F5F1F4F811106C09E016E
:104700002F5F3F4F7901890104C00E943A38F801B8
:10471000F0CFD8018D918D01882319F00E943A388D
:10472000F8CF8091F0059091F105A091F205B0913C
:10473000F30588A399A3AAA3BBA3BE016F5F7F4F14
:10474000CE0180960E946A37EFE0F4E084918F01F9
:104750000F5F1F4F882321F00E943A38F801F6CFEF
:10476000F70181917F01882319F00E943A38F8CF30
:104770008AE00E943A38E7E0F4E084918F010F5F0D
:104780001F4F882321F00E943A38F801F6CFE7EF57
:10479000F3E084918F010F5F1F4F882321F00E9467
:1047A0003A38F801F6CF20E030E04AE754E460916F
:1047B000F4057091F5058091F6059091F7050E943A
:1047C00088F542E00E94A5418DE60E943A388AE0D1
:1047D0000E943A380C94803088E690E00E9447416D
:1047E00081110C9480308091010883FF02C00C94E9
:1047F000803083E50E94AA368823C9F00E943036B3
:104800000E94FAF570931A036093190380E00E94E6
:104810001D440E94303620E030E04AEA52E40E9413
:1048200053ED181624F00E94E7DA0E94EBBE0E94B6
:1048300005E70C9480308EE40E94AA36882311F498
:104840000C9480300E94FC35609361057093620582
:1048500080936305909364050C94803083E50E94F7
:104860006336882359F083E50E94AA36882319F01D
:104870000E940C3601C080E080930108ECE5F3E172
:1048800084918F010F5F1F4F882321F00E943A38D7
:10489000F801F6CFEBE6F4E084918F010F5F1F4F34
:1048A000882309F4D0CC0E943A38F801F5CFBB2414
:1048B000B394B20E222319F08CE20E943A38F6012A
:1048C00025913491F901849189010F5F1F4F88234D
:1048D00021F00E943A389801F5CF2B2DCBCCE7E69A
:1048E000F4E084918F010F5F1F4F882309F4CCCC33
:1048F0000E943A38F801F5CF109232010C948030C2
:1049000083E50E94AA36882369F00E940C368D3315
:1049100020F4809333010C9480308CE38093330136
:104920000C948030ECE5F3E184918F010F5F1F4F11
:10493000882321F00E943A38F801F6CF40913301E4
:1049400050E060E070E08BE794E00E940FDA8AE0CC
:104950000E943A380C9480300E947F601092910738
:104960000C941C328DE690E00E94474181110C941A
:1049700080308091010883FF02C00C94803083E571
:104980000E94AA368EA3811105C082E50E94AA3634
:104990008823E1F10E9430360E94FAF570931A03E1
:1049A0006093190380E00E941D440E94303620E08D
:1049B00030E04AEA52E40E9453ED181614F40C94C5
:1049C0008F300E94E7DA0E94EBBE6091190370916C
:1049D0001A03072E000C880B990B0E945AED2091A8
:1049E0004B0930914C0940914D0950914E090E945C
:1049F000EEF6181614F40C9493305EA1511105C014
:104A000086E894E060E00E948B8B81E08CAF0E948E
:104A100005E78CAD882311F40C94803081E08093FD
:104A200032011CA61DA61EA61FA61CAA1DAA1EAAF0
:104A30001FAA18A618AE6CE369AF7CE17AAF86E4D2
:104A40008BAFC12CD12C80E8E82E9FEBF92E812C66
:104A5000912C54016091190370911A03072E000CD8
:104A6000880B990B0E945AED162F072F782E692E6E
:104A7000262F372F482F592FB601C7010E9453ED1B
:104A80008823C1F020914B0930914C0940914D0988
:104A900050914E09612F702F872D962D0E9453ED56
:104AA000881F8827881F88A79EA1992339F088230B
:104AB00029F0AAC11C2D0D2D7E2C6F2C0E944BDFDE
:104AC0006B017C01DC01CB012CA93DA94EA95FA99A
:104AD000821B930BA40BB50BB7FD3BC0B701A6011E
:104AE00048515C4F6F4F7F4F4CAB5DAB6EAB7FABB4
:104AF0000E948CB3E2E8F4E084912F015FEF451A45
:104B0000550A882321F00E943A38F201F5CF81142A
:104B10009104A104B104B9F0D501C401805F984D9E
:104B2000AF4FBF4FBC01CD016C197D098E099F09A4
:104B300028EE33E040E050E00E94DFF3CA01B90103
:104B40000E94894103C08FE30E943A388AE00E94A4
:104B50003A380E94F4900E944BDF60939207709362
:104B60009307809394079093950760914B0968ABE6
:104B700070914C0979AB80914D098AAB90914E09A7
:104B80009BAB9B01AC01612F702F872D962D0E944E
:104B90008DF41B012C0120E030E0A9010E94EEF60B
:104BA00087FF04C057FA509457F850948114910429
:104BB000A104B10459F420E030E040E85FE3C20111
:104BC000B1010E9453ED87FF0DC00AC020E030E024
:104BD00040E450E4C201B1010E94EEF6181614F44C
:104BE00046015701A8A5AA23A9F12CA53DA54EA5CC
:104BF0005FA5211531054105510541F0D701C601D9
:104C0000821B930BA40BB50BB7FD24C028A939A9AF
:104C10004AA95BA968AD79AD8AAD9BAD0E948DF4C0
:104C200020E030E040EC5FE30E9453ED87FDECC0F4
:104C3000B701A601405A55416F4F7F4F4CA75DA762
:104C40006EA77FA758A958AF69A969AF7AA97AAFAB
:104C50008BA98BAF80913201882309F4D5C08114D0
:104C60009104A104B10429F4C12ED02EE72CF62C16
:104C7000F1CE90E1C91A97E2D90AE108F108C81803
:104C8000D908EA08FB08F7FEBFC0EECF8091010803
:104C900083FF02C00C94803083E50E94AA368823EB
:104CA00011F40C9480300E9430360E94FAF564367C
:104CB000710514F064E670E07093180360931703B5
:104CC0000E94D2430C9480308091010883FF02C07F
:104CD0000C94803083E50E94AA368BAB811107C00B
:104CE00082E50E94AA36882311F40C9480300E9439
:104CF00030360E94FAF56436710514F00C948D314B
:104D000070931803609317030E94D2430E943036B9
:104D100020E030E040EA50E40E94EEF6181614F469
:104D20000E9489DA6091170370911803072E000C16
:104D3000880B990B0E945AED209147093091480940
:104D40004091490950914A090E94EEF6181614F450
:104D50000C9497308CEA94E060E00E948B8B81E0A9
:104D600080933201809109088093350818A619A60E
:104D70001AA61BA61CAA1DAA1EAA1FAA1EA218AE0E
:104D8000ACE3A9AFBCE1BAAFE6E4EBAFC12CD12CE8
:104D900010E8E12E0FEBF02E812C912C5401609144
:104DA000170370911803072E000C880B990B0E94B3
:104DB0005AED162F072F782E692E262F372F482FC2
:104DC000592FB601C7010E9453ED882311F40C94AA
:104DD0009B302091470930914809409149095091F1
:104DE0004A09612F702F872D962D0E9453ED881F41
:104DF0008827881F8EA3FBA9FF2311F40C949F30F2
:104E0000882311F40C949F3080913201882311F48F
:104E10000C9480300E94EBBE0C94803080E50E94A0
:104E2000AA36811106C083E50E94AA36882361F064
:104E300006C00E940C3681110C948030F4CF0E9481
:104E4000FC356F3F710510F06FEF70E070931C033D
:104E500060931B030C94803080E50E94AA36811178
:104E600006C010921C0310921B030C9480300E9409
:104E7000FC35672B11F00C948030F3CF0E9468440E
:104E80000E9467CE10921C0310921B0368EE73E021
:104E900080E090E00E94738A60E082ED94E00E94DE
:104EA0008B8B0C9480301092F9010C94803081E04F
:104EB0008093F9010C9480300E94FE5F0C94803046
:104EC0000E94485F0C9480300E940C5F0C948030EC
:104ED0000E94E25D0C94803000914B0D10914C0DBE
:104EE00083E0D12C40E08150E9F0D8019C91292F3A
:104EF0002B7F2134C1F711962C912133A1F79134E6
:104F000021F0953421F441E002C0DD24D3949801CE
:104F10002E5F3F4F89012F5F3F4FF8019081903204
:104F2000C9F3E1CF442369F0ECE5F3E184917F011B
:104F30002FEFE21AF20A882321F00E943A38F70193
:104F4000F5CFDD2069F0E1EEF4E084917F013FEFE1
:104F5000E31AF30A882321F00E943A38F701F5CFCB
:104F6000D8018D918D01882309F48EC90E943A38A9
:104F7000F7CF0E942FD30C94803081E08093F90505
:104F80008093F8050C9480301092F9051092F80582
:104F90000C94803083E50E94AA36882319F00E9481
:104FA000FC3502C060E070E08B0111270230110572
:104FB000D4F0E1E4F3E184918F010F5F1F4F882368
:104FC00021F00E943A38F801F6CFE5EEF4E0849142
:104FD0008F010F5F1F4F882311F40C9480300E94C3
:104FE0003A38F801F4CF88E40E94AA368823A1F069
:104FF0000E94FC356A3A710534F0663F71052CF069
:1050000065EF70E002C06AEA70E0F801EE0FFF1F82
:10501000E451F84F7183608386E40E94AA368823A6
:10502000A9F00E94FC35F801EE0FFF1FE051F84F88
:10503000718360836F3F710519F014F06FEF70E0BA
:1050400077FF02C060E070E07183608382E40E94B9
:10505000AA36882311F40C9480300E94FC35653008
:10506000710534F0663571052CF065E570E002C01D
:1050700065E070E0000F111FF801E851F84F7183EF
:1050800060830C94803088EC90E00E94474181114D
:105090000C94803084E40E9463368823C1F10E941E
:1050A000303611E020E030E0A9010E9453ED81117B
:1050B00001C010E01093BF05112349F10E94303662
:1050C000E0913508B4E0EB9FF0011124E554FA4F6C
:1050D000608371838283938320E030E0A901609133
:1050E000BB057091BC058091BD059091BE050E94E5
:1050F00053ED81110CC080E090E0A0EEBFE38093FF
:10510000BB059093BC05A093BD05B093BE050E945E
:10511000CFCD0C948030F80181918F010E946336CD
:10512000882351F00E9430360E9401F6D7016D931A
:105130007D938D939C931397B4E0EB0EF11CD012EA
:10514000EACF0E9499DB0C94803094EDE92E9CE02C
:10515000F92E0EE511E024E0D22ED00EF801819157
:105160008F010E946336882341F00E943036D701B8
:105170006D937D938D939C931397B4E0EB0EF11C8C
:10518000D012ECCF0C94803083E50E94AA3688239D
:10519000A1F00E9430366093FC0C7093FD0C80935C
:1051A000FE0C9093FF0C6093F40C7093F50C8093BD
:1051B000F60C9093F70C10E001C011E080E50E941E
:1051C000AA36882359F00E9430366093FC0C709305
:1051D000FD0C8093FE0C9093FF0C10E082E50E9482
:1051E000AA36882359F00E9430366093F80C7093E9
:1051F000F90C8093FA0C9093FB0C10E084E50E946C
:10520000AA36882359F00E9430366093F40C7093CC
:10521000F50C8093F60C9093F70C72C7112309F4E8
:105220006FC74091FC0C5091FD0C6091FE0C709189
:10523000FF0C8DE095E00E942CDA4091F80C509123
:10524000F90C6091FA0C7091FB0C8AE095E00E94D9
:105250002CDA4091F40C5091F50C6091F60C7091A1
:10526000F70C87E095E00E942CDA8AE00E943A3839
:1052700047C781E50E946336882351F00E94EC35D0
:105280006093FC077093FD078093FE079093FF07E0
:1052900083E50E946336882351F00E943036609384
:1052A000D00C7093D10C8093D20C9093D30C84E5E6
:1052B0000E946336882351F00E9430366093CC0CF4
:1052C0007093CD0C8093CE0C9093CF0C88E50E9408
:1052D0006336882351F00E94303660939B057093AB
:1052E0009C0580939D0590939E0589E50E946336F9
:1052F000882351F00E94303660939F057093A0057B
:105300008093A1059093A2058AE50E9463368823C5
:10531000F1F00E9430366093A3057093A40580934A
:10532000A5059093A6052DEC3CEC4CEC5DE30E94AA
:1053300053ED181664F0EDE1F5E084918F010F5FF5
:105340001F4F882321F00E943A38F801F6CF85E4F8
:105350000E946336882309F4D3C60E9430366093D6
:10536000A7057093A8058093A9059093AA05C8C6C0
:105370000EE5C02E01E0D02E8BEFE82E85E0F82E52
:1053800010E0F60181916F010E946336882359F085
:105390000E943036D7016D937D938D939C93139724
:1053A000812F0E941A341F5FB4E0EB0EF11C133002
:1053B00041F70C94C31C80917205082F017011E015
:1053C000012781FBFF24F0F8F12682FB882780F972
:1053D0001827011102C0FF2019F0ECE5F3E114C019
:1053E0001111FBCF1BEF812E14E2912EAFE4B5E03B
:1053F000BFA3AEA3FE0131965F0104E415E21F01D5
:10540000F3E0F00FF8A77BC084916F012FEFC21A71
:10541000D20A882321F00E943A38F601F5CFEFE650
:10542000F5E084916F013FEFC31AD30A882321F07E
:105430000E943A38F601F5CF002369F0EDE6F5E079
:1054400084916F014FEFC41AD40A882321F00E947F
:105450003A38F601F5CFFF2069F0EBE6F5E08491EC
:105460006F015FEFC51AD50A882321F00E943A38F0
:10547000F601F5CF111103C0E1E6F5E00DC0E9E654
:10548000F5E084916F016FEFC61AD60A8823A1F365
:105490000E943A38F601F5CF84916F017FEFC71A69
:1054A000D70A882321F00E943A38F601F5CF11116E
:1054B00003C04BEA51E002C040EB51E0F11003C0E1
:1054C0002BEA31E002C022EB31E0011103C08BEA8C
:1054D00091E002C084EB91E05F934F933F932F9351
:1054E0009F938F938FE495E09F938F931F920E94D9
:1054F00097550FB6F894DEBF0FBECDBF01C6F401BD
:105500006591759185919491AEA1BFA1CD90DD90EB
:10551000ED90FD90BFA3AEA3A70196010E948DF46C
:105520002B013C0120E030E040EA51EC0E94EEF615
:1055300087FD10C020E030E040EA51E4C301B20131
:105540000E9453ED181634F0F101408251826282BC
:1055500073820DC0F80184911816B4F7F7FAF0942D
:10556000F7F8F094F101C082D182E282F382D10196
:10557000CD90DD90ED90FD901D0120E030E040EAFF
:1055800051ECC701B6010E94EEF687FF03C0E1E4CB
:10559000F3E10BC020E030E040EA51E4C701B6017E
:1055A0000E9453ED181674F5F2CF84918F010F5FAE
:1055B0001F4F882321F00E943A38F801F6CFE3E923
:1055C000F5E084918F010F5F1F4F882321F00E9427
:1055D0003A38F801F6CF61E085E895E00E948B8BC0
:1055E0000E94E7BF88E290E099A388A388EC90E04E
:1055F0009DA38CA3BE01605E7F4FCE0184960E9466
:1056000098BE7EC5B4E08B0E911C0F5F1F4FE8A5BE
:10561000E01375CFBBEFEB2EB5E0FB2E10E0F501EC
:1056200081919191A191B1915F01F7018193919342
:10563000A193B1937F01812F0E941A341F5F133011
:1056400071F70E94415E60E085E795E00E948B8BD8
:1056500083E992E09DA38CA304E610E019A308A3BC
:10566000BE016C5D7F4FCE0180960E9498BE8AEB92
:1056700092E09DA38CA319A308A3BE016C5D7F4F8C
:10568000CE0180960E9498BE3BC584918F010F5F2A
:105690001F4F882321F00E943A38F801F6CF83E5A6
:1056A0000E946336882321F00E94203680931F01D8
:1056B000E9EDF5E084918F010F5F1F4F882321F002
:1056C0000E943A38F801F6CF80911F01811103C082
:1056D000E5EDF5E002C0E1EDF5E084918F010F5FAB
:1056E0001F4F882321F00E943A38F801F6CFE9ECE9
:1056F000F5E084918F010F5F1F4F882321F00E94F6
:105700003A38F801F6CF20917C0530917D05409123
:105710007E0550917F056091880570918905809183
:105720008A0590918B050E948EF4AB01BC0187EC39
:1057300095E00E942CDA20918005309181054091FE
:1057400082055091830560918C0570918D05809143
:105750008E0590918F050E948EF4AB01BC0184EC04
:1057600095E00E942CDA20918405309185054091C6
:105770008605509187056091900570919105809103
:105780009205909193050E948EF4AB01BC0181ECCF
:1057900095E00E942CDAE9EBF5E084918F010F5F30
:1057A0001F4F882321F00E943A38F801F6CF20914C
:1057B0007C0530917D0540917E0550917F0560917B
:1057C00013017091140180911501909116010E94AE
:1057D0008EF4AB01BC0187EB95E00E942CDA20919E
:1057E000800530918105409182055091830560913B
:1057F0001701709118018091190190911A010E946E
:105800008EF4AB01BC0184EB95E00E942CDA209170
:1058100084053091850540918605509187056091FA
:105820001B0170911C0180911D0190911E010E942D
:105830008EF4AB01BC0181EB95E00E942CDA8AE08A
:105840000E943A385DC483E50E94AA36882309F491
:1058500057C40E94FC3570932B0160932A0150C4F9
:105860008DED90E00E94474181114AC483E50E947A
:10587000AA368823D1F10091350810E00E94FC354A
:10588000000F111FF801E85DFE4F71836083809166
:10589000350890E07C01EE0CFF1CEE0CFF1C87012C
:1058A0000C5D1E4F880F991FFC01E85DFE4F608163
:1058B0007181072E000C880B990B0E945AED2AE08B
:1058C00037ED43E25CE30E94B9EDF701E054FA4F93
:1058D00020813181428153810E94B9EDD8016D93BD
:1058E0007D938D939C9313970BC4ECE5F3E1849126
:1058F0008F010F5F1F4F882321F00E943A38F80173
:10590000F6CF85E40E943A3880913508805D0E9488
:105910003A38E0913508F0E0EE0FFF1FE85DFE4FEA
:105920006081718189EE95E00E9449DA85E20E94EA
:105930003A388AE00E943A38E3C380E50E94633631
:10594000882309F4DDC30E94FC356B017C0183E5EB
:105950000E94AA36882321F00E94FC358B0102C0E8
:105960000FEF1FEFC8010196039708F0C9C3D7FCDA
:10597000C7C39C2DE1EFF5E08DE28E0F24919217C5
:1059800009F4CFC431968E13F9CFCEC483E50E94BB
:10599000AA36882319F00E94FC3502C064E071E049
:1059A00079A368A380E50E94AA36882339F00E9473
:1059B000FC356938B3E17B0730F402C068EE73E070
:1059C0007A83698304C088E893E19A838983BE015E
:1059D000605E7F4FCE0101960E9498BE91C385E420
:1059E0000E94AA36811110C080E50E946336882388
:1059F00091F00E9430366093DB077093DC07809350
:105A0000DD079093DE0707C00E940C36882361F300
:105A1000E1E4F3E16EC089E40E946336882381F0FB
:105A20000E9430362CEA35EC47E25EE30E94B9ED85
:105A30006093E3077093E4078093E5079093E6078C
:105A400084E40E946336882381F00E9430362CEA79
:105A500035EC47E25EE30E9488F56093DF077093C0
:105A6000E0078093E1079093E207ECE5F3E184918E
:105A70008F010F5F1F4F882321F00E943A38F801F1
:105A8000F6CF4091DB075091DC076091DD07709104
:105A9000DE0786E296E00E942CDA2CEA35EC47E23B
:105AA0005EE36091E3077091E4078091E5079091D0
:105AB000E6070E9488F5AB01BC0182E296E00E94F5
:105AC0002CDA2CEA35EC47E25EE36091DF07709157
:105AD000E0078091E1079091E2070E94B9EDAB01E8
