:100000000C94A7170C94D1170C94D1170C94D117FA
:100010000C94D1170C94D1170C94D1170C94D117C0
:100020000C94D1170C94D1170C94D1170C94D117B0
:100030000C94D1170C9486650C94D1170C94D1179D
:100040000C94D1170C94E0730C9469C40C94D117E0
:100050000C94C7410C94D1170C94D1170C94D11760
:100060000C94D1170C94D1170C94D1170C94D11770
:100070000C94D1170C94D1170C94D1170C94D11760
:100080000C94D1170C94D1170C94D117D375D67545
:10009000C975CD75ED75ED75DA75DE75E475E875C4
:1000A000897A8E7A937A9D7ACB7ACB7AA77AAF7A4D
:1000B000B77AC17A084AD73B3BCE016E84BCBFFDFC
:1000C000C12F3D6C74319ABD56833DDA3D00C77F28
:1000D00011BED9E4BB4C3E916BAAAABE00000080C1
:1000E0003F05A84CCDB2D44EB93836A9020C50B950
:1000F000918688083CA6AAAA2ABE000000803F007C
:100100004E414E494E495459494E46CDCCCC3D0AFC
:10011000D7233C17B7D13877CC2B329595E6241FDF
:10012000B14F0A000020410000C84200401C462098
:10013000BCBE4CCA1B0E5AAEC59D7400407A10F36B
:100140005A00A0724E18090010A5D4E80000E87605
:1001500048170000E40B54020000CA9A3B0000005C
:10016000E1F505000080969800000040420F000075
:1001700000A08601000000102700000000E8030036
:100180000000006400000000000A00000000000100
:1001900000000000002C76D888DC674F0823DFC100
:1001A000DFAE59E1B1B796E5E3E453C63AE65199BB
:1001B0007696E8E6C28426EB898C9B62ED407C6FE4
:1001C000FCEFBC9C9F40F2BAA56FA5F490055A2A9B
:1001D000F75C936B6CF9676DC11BFCE0E40D47FEA7
:1001E000F520E6B500D0ED902E030094357705009C
:1001F00080841E080000204E0A000000C80C333323
:1002000033330F986E12831141EF8D2114893BE631
:100210005516CFFEE6DB18D1844B381BF77C1D90BA
:100220001DA4BBE424203284725E228100C9F12423
:10023000ECA1E53D27434F4D4D554E4943415449AF
:100240004F4E0044525952554E004552524F525350
:1002500000494E464F004543484F0020746F6F20C1
:100260006C6F6E6720657874727573696F6E20703D
:10027000726576656E7465640A0020636F6C642035
:10028000657874727573696F6E2070726576656ECD
:100290007465640A0047322F47332062616420701E
:1002A0006172616D65746572730A00536C65657087
:1002B0002E2E2E00436C69636B20746F2072657361
:1002C000756D652E2E2E004E6F206D6F76652E009B
:1002D000456E642066696C65206C6973740A00421F
:1002E0006567696E2066696C65206C6973740A00C5
:1002F000286E6F2066696C6529005344207072690E
:100300006E74696E67206279746520004E6F742088
:100310005344207072696E74696E670A0043757287
:1003200072656E742066696C653A200046696C657A
:100330002064656C657465643A0044656C65746935
:100340006F6E206661696C65642C2046696C653A45
:1003500020002569730025696D20256973002569D2
:10036000682025696D202569730025696420256949
:10037000682025696D202569730025697920256924
:1003800064202569682025696D20256973005072F5
:10039000696E742074696D653A200000010F150EB6
:1003A00012FFFFFFFF16170E13FFFFFFFF03021AD6
:1003B00014FFFFFFFFFFFFFF0C04FFFFFF01000E14
:1003C000FFFFFF0C190DFF18560251024A024302AB
:1003D00035026F66660044454255473A004B494C2A
:1003E0004C45442E20004D3131332053006F6B00BB
:1003F00020573A004520436F6F6C696E672E2E2E92
:1004000000452048656174696E672E2E2E002057C6
:100410003A0042656420636F6F6C696E672E2E2E02
:10042000004265642068656174696E672E2E2E0037
:1004300057616E68616F2069332076322E31204F0C
:1004400066662E002C20002C2000544845524D4159
:100450004C5F50524F54454354494F4E0041555400
:100460004F5245504F52545F53445F53544154557B
:100470005300454D455247454E43595F50415253F5
:10048000455200434153455F4C494748545F4252EF
:10049000494748544E45535300544F47474C455FD6
:1004A0004C494748545300534F4654574152455FB7
:1004B000504F574552004255494C445F50455243B6
:1004C000454E54004C4556454C494E475F444154B7
:1004D00041005A5F50524F4245004155544F4C45E0
:1004E00056454C005052494E545F4A4F42005052BC
:1004F0004F4752455353004155544F5245504F5268
:10050000545F54454D5000564F4C554D455452493B
:100510004300454550524F4D0053455249414C5FB1
:10052000584F4E5F584F4646004649524D5741522C
:10053000455F4E414D453A4D61726C696E20312EDA
:10054000312E3920284769746875622920534F5528
:100550005243455F434F44455F55524C3A6874746B
:1005600070733A2F2F6769746875622E636F6D2FF1
:100570004D61726C696E4669726D776172652F4D5F
:1005800061726C696E2050524F544F434F4C5F560E
:10059000455253494F4E3A312E30204D4143484940
:1005A0004E455F545950453A57616E68616F2069F6
:1005B000332076322E312045585452554445525FEF
:1005C000434F554E543A3120555549443A3333360A
:1005D00066386464352D663938352D343062352DF2
:1005E000616462322D3661373664633864646361F6
:1005F000640A002F2F20004D31343520533C696EA2
:100600006465783E206F7574206F662072616E6736
:10061000652028302D31290A002054002052004145
:100620006363656C65726174696F6E3A2050002077
:100630005A00205900580020204D61783A200020AF
:100640005A00205900580020204D696E3A20004F72
:100650006E20004F666600536F667420656E64738B
:10066000746F70733A200020643A0020693A0020C9
:10067000703A00496E76616C6964206578747275B1
:100680006465720A0043290A0061626C656420286F
:100690006D696E2074656D702000436F6C64206519
:1006A00078747275646573206172652000236465D7
:1006B00066696E652044454641554C545F4B642045
:1006C0000023646566696E652044454641554C5477
:1006D0005F4B69200023646566696E65204445466A
:1006E00041554C545F4B7020005049442041757473
:1006F0006F74756E652066696E6973686564212024
:1007000050757420746865206C617374204B702C74
:10071000204B6920616E64204B6420636F6E73749C
:10072000616E74732066726F6D2062656C6F7720E6
:10073000696E746F20436F6E666967757261746964
:100740006F6E2E680A00504944204175746F7475AD
:100750006E65206661696C6564212074696D656FE2
:1007600075740A00453120544845524D414C205281
:10077000554E4157415900546865726D616C205265
:10078000756E617761790045312048656174696EE5
:1007900067206661696C65640048656174696E67AD
:1007A000206661696C656400504944204175746F2E
:1007B00074756E65206661696C6564212054656D91
:1007C000706572617475726520746F6F20686967F7
:1007D000680A00204B643A2000204B693A20002030
:1007E0004B703A20000A20436C6173736963205098
:1007F0004944200A002054753A2000204B753A20C5
:1008000000206D61783A2000206D696E3A2000204A
:10081000643A200020626961733A20005049442004
:100820004175746F74756E65206661696C656421CD
:1008300020426164206578747275646572206E75FB
:100840006D6265720A00504944204175746F747579
:100850006E652073746172740A004E6F2063617359
:1008600065206C696768740A00454550524F4D20F9
:1008700064697361626C65640A00416374697665DA
:100880002045787472756465723A2000496E76610D
:100890006C69642065787472756465720A004E6FC5
:1008A00020436865636B73756D2077697468206C8D
:1008B000696E65206E756D6265722C204C61737473
:1008C000204C696E653A20004B494C4C45442E2023
:1008D0000053544F505045442E20005072696E749E
:1008E00065722073746F7070656420647565207420
:1008F0006F206572726F72732E204669782074685B
:1009000065206572726F7220616E64207573652058
:100910004D39393920746F20726573746172742E89
:10092000202854656D7065726174757265206973F5
:100930002072657365742E2053657420697420617C
:10094000667465722072657374617274696E67296A
:100950000A004E6F20436865636B73756D2077697D
:100960007468206C696E65206E756D6265722C20EE
:100970004C617374204C696E653A2000636865634E
:100980006B73756D206D69736D617463682C204C99
:10099000617374204C696E653A20004C696E652065
:1009A0004E756D626572206973206E6F74204C61A4
:1009B0007374204C696E65204E756D6265722B31C3
:1009C0002C204C617374204C696E653A20004D31C7
:1009D0003130004D3331005344207265616420652D
:1009E00072726F720A00446F6E65207072696E7465
:1009F000696E672066696C650A0020496E76616CD5
:100A00006964206578747275646572200000000066
:100A10000000000000000000000000484300004803
:100A20004300000C43486F6D696E67206661696C16
:100A300065640050726F7465637465642050696EFC
:100A40000A00205A3A0020593A0020436F756E740C
:100A500020583A0020453A00205A3A0020593A00DE
:100A6000583A003A004361703A0020466C6F773A7A
:100A70002000486F6D6520257325732573206669F6
:100A8000727374002066697273740A005A00590008
:100A90005800486F6D6520004F666673657473205B
:100AA0006170706C696564004572723A20546F6FB2
:100AB000206661722100546F6F2066617220667239
:100AC0006F6D207265666572656E636520706F6913
:100AD0006E740A0000002110422063308440A5504B
:100AE000C660E770088129914AA16BB18CC1ADD174
:100AF000CEE1EFF13112100273325222B55294421C
:100B0000F772D662399318837BB35AA3BDD39CC3C3
:100B1000FFF3DEE36224433420040114E664C77467
:100B2000A44485546AA54BB528850995EEE5CFF513
:100B3000ACC58DD55336722611163006D776F666BB
:100B40009556B4465BB77AA719973887DFF7FEE763
:100B50009DD7BCC7C448E5588668A7784008611887
:100B600002282338CCC9EDD98EE9AFF948896999B3
:100B70000AA92BB9F55AD44AB77A966A711A500A5B
:100B8000333A122AFDDBDCCBBFFB9EEB799B588B03
:100B90003BBB1AABA66C877CE44CC55C222C033CA7
:100BA000600C411CAEED8FFDECCDCDDD2AAD0BBD53
:100BB000688D499D977EB66ED55EF44E133E322EFB
:100BC000511E700E9FFFBEEFDDDFFCCF1BBF3AAFA3
:100BD000599F788F8891A981CAB1EBA10CD12DC101
:100BE0004EF16FE18010A100C230E3200450254097
:100BF00046706760B9839893FBA3DAB33DC31CD3F7
:100C00007FE35EF3B1029012F322D23235421452E6
:100C100077625672EAB5CBA5A89589856EF54FE542
:100C20002CD50DC5E234C324A01481046674476436
:100C300024540544DBA7FAB79987B8975FE77EF796
:100C40001DC73CD7D326F2369106B0165766767686
:100C5000154634564CD96DC90EF92FE9C899E98962
:100C60008AB9ABA94458654806782768C018E108D6
:100C70008238A3287DCB5CDB3FEB1EFBF98BD89B36
:100C8000BBAB9ABB754A545A376A167AF10AD01A26
:100C9000B32A923A2EFD0FED6CDD4DCDAABD8BAD82
:100CA000E89DC98D267C076C645C454CA23C832C76
:100CB000E01CC10C1FEF3EFF5DCF7CDF9BAFBABFD6
:100CC000D98FF89F176E367E554E745E932EB23EC6
:100CD000D10EF01E7C3C3E5E2B3D3F2F5B5D3B2CDE
:100CE0002A225C004D6F766520302E316D6D004DEF
:100CF0006F766520316D6D004D6F76652031306DFA
:100D00006D004D6F76652061786973004578747267
:100D100075646572004D6F7665205A004D6F76657B
:100D20002059004D6F7665205800457874727564BF
:100D30006572004D6F7665205A004D6F76652059BB
:100D4000004D6F76652058005072657061726500C5
:100D5000526573746F7265206661696C7361666554
:100D60000046696C616D656E74004D6F74696F6EDD
:100D70000054656D7065726174757265004D6169CE
:100D80006E00507265686561742041425320636F44
:100D90006E66005072656865617420504C41206336
:100DA0006F6E66005049442D44005049442D440064
:100DB0005049442D49005049442D49005049442D83
:100DC00050005049442D50002008204661637400B3
:100DD00020082046616374002008204D61780020BF
:100DE00008204D6178002008204D617800200820FF
:100DF0004D696E002008204D696E002008204D6965
:100E00006E004F6666004F6E20004175746F74650A
:100E10006D700046616E2073706565640046616E9A
:100E20002073706565640042656400426564004E2D
:100E30006F7A7A6C65004E6F7A7A6C6500436F6EDC
:100E400074726F6C0042656400426564004E6F7A94
:100E50007A6C65004E6F7A7A6C650046616E20731D
:100E6000706565640046616E20737065656400544A
:100E7000656D706572617475726500486172646356
:100E80006F6465642044656661756C742053657495
:100E900074696E6773204C6F616465640A00B80BF7
:100EA0000000B80B000064000000102700000000E4
:100EB0009643000096430000A04100004842000015
:100EC000A0420000A0420000C8430000D0422028F9
:100ED0006D6D290020440020490020204D33303121
:100EE0002050005049442073657474696E67733AEA
:100EF0000A0020460020420020480020204D3134C6
:100F0000352053004D6174657269616C20686561BC
:100F100074757020706172616D65746572733A0AE0
:100F200000205A0020590020204D32303620580031
:100F3000486F6D65206F66667365743A0A002045D8
:100F400000205A002059002058002054002053004F
:100F500020204D32303520510020453C6D61785FB6
:100F6000655F6A65726B3E0020583C6D61785F7802
:100F70005F6A65726B3E20593C6D61785F795F6A8C
:100F800065726B3E205A3C6D61785F7A5F6A65726C
:100F90006B3E00416476616E6365643A20513C6D3E
:100FA000696E5F7365676D656E745F74696D655FAB
:100FB00075733E20533C6D696E5F66656564726152
:100FC00074653E20543C6D696E5F74726176656C29
:100FD0005F66656564726174653E0020540020524E
:100FE0000020204D323034205000416363656C6531
:100FF000726174696F6E2028756E6974732F733215
:10100000293A20503C7072696E745F616363656C4D
:101010003E20523C726574726163745F6163636504
:101020006C3E20543C74726176656C5F61636365ED
:101030006C3E0A00204500205A0020590020204D17
:101040003230312058004D6178696D756D204163F3
:1010500063656C65726174696F6E2028756E697462
:10106000732F7332293A0A00204500205A00205974
:101070000020204D3230332058004D6178696D7565
:101080006D206665656472617465732028756E698C
:1010900074732F73293A0A00204500205A00205902
:1010A0000020204D39322058005374657073207031
:1010B000657220756E69743A0A0020204D32303016
:1010C0002044300A0020204D32303020440020449B
:1010D000697361626C65640A0046696C616D656E76
:1010E000742073657474696E67733A0020204D3103
:1010F00034392043203B20556E69747320696E207B
:1011000043656C736975730A0020204732312020D3
:1011100020203B00545249474745524544006F70D8
:10112000656E003A20007A5F6D696E00795F6D69C7
:101130006E00785F6D696E005265706F7274696ED3
:101140006720656E6473746F702073746174757357
:101150000A0025753A2530327500253032753A255A
:101160003032750057726974696E6720746F20663B
:10117000696C653A20006F70656E206661696C6508
:10118000642C2046696C653A20006F70656E20669D
:1011900061696C65642C2046696C653A200046697B
:1011A0006C652073656C65637465640A002053691F
:1011B0007A653A200046696C65206F70656E6564DB
:1011C0003A20002066696C653A2000646F696E679A
:1011D000006672657368004E6F772000454E4420AC
:1011E000535542524F5554494E450A002220706FC4
:1011F00073002220706172656E743A22005355426A
:10120000524F5554494E452043414C4C2074617215
:101210006765743A22004B494C4C45442E200074BB
:101220007279696E6720746F2063616C6C207375CE
:10123000622D67636F64652066696C6573207769EA
:10124000746820746F6F206D616E79206C657665AF
:101250006C732E204D4158206C6576656C20697347
:101260003A004572726F723A0043616E6E6F74207D
:101270006F70656E207375626469722000656368C3
:101280006F3A006F70656E206661696C65642C2032
:1012900046696C653A200024F4D43050C38E20C2D5
:1012A000A24017828B7011127A910D816CD90AA815
:1012B00061E108C7586607615143061E4B5D05C1D1
:1012C00045A7041A411104093D98037139310340BF
:1012D00036DB0265339102D4305402802E1D026346
:1012E0002CEE01752AC501B028A001102781018FBD
:1012F0002564012B244B01E0223401AC211F018D18
:10130000200D01801FFC00841EED00971DDF00B83A
:101310001CD200E61BC600201BBC00641AB200B23F
:1013200019A8000A19A0006A189900D11791004065
:10133000178B00B516840031167E00B31579003A7C
:10134000157300C7146F0058146A00EE1366008806
:1013500013630025135E00C7125B006C1257001563
:10136000125400C111510070114F0021114B00D6D1
:101370001049008D1047004610440002104200C082
:101380000F4000800F3E00420F3C00060F3B00CB99
:101390000E3800930E37005C0E3500270E3400F334
:1013A0000D3200C10D3100900D3000600D2E003265
:1013B0000D2D00050D2C00D90C2B00AE0C2900853D
:1013C0000C29005C0C2700350C27000E0C2600E8C9
:1013D0000B2400C40B2400A00B23007D0B23005A18
:1013E0000B2100390B2100180B2000F80A1F00D92F
:1013F0000A1E00BB0A1E009D0A1D00800A1D006314
:101400000A1C00470A1B002C0A1B00110A1A00F7CD
:10141000091A00DD091900C4091900AB0919009265
:101420000917007B091800630917004C09160036DC
:10143000091600200916000A091500F5081500E034
:10144000081400CC081400B8081400A40814009074
:101450000813007D0812006B08130058081200469C
:1014600008120034081100230811001208110001AD
:10147000081100F0071000E0071000D0071000C0AE
:10148000071000B0070F00A107100091070E00839E
:10149000070F0074070F0065070E0057070E00497D
:1014A000070E003B070D002E070E0020070D00134E
:1014B000070D0006070D00F9060C00ED060D00E013
:1014C000060C00D4060C00C8060C00BC060C00B0CC
:1014D000060C00A4060B0099060C008D060B00827A
:1014E000060B0077060B006C060B0061060A00571E
:1014F000060B004C060A0042060A0038060A002EB7
:10150000060A0024060A001A060A00100609000747
:10151000060A00FD050900F4050900EB050900E2D3
:10152000050900D9050900D0050900C7050900BE55
:10153000050900B5050800AD050800A50509009CD2
:10154000050800940508008C050800840508007C47
:10155000050800740508006C050700650508005DB6
:10156000050700560508004E05070047050700401F
:1015700005080038050700310507002A0507002384
:101580000507001C050600160507000F05070008E3
:1015900005060002050700FB040600F5040700EE3F
:1015A000040600E8040600E2040700DB040600D598
:1015B000040600CF040600C9040600C3040600BDEB
:1015C000040600B7040600B1040500AC040600A63A
:1015D000040600A00405009B040600950405009085
:1015E0000406008A04050085040500800406007ACC
:1015F00004050075040500700405006B0405006611
:10160000040500610405005C040500570405005250
:101610000405004D04050048040500430405003E90
:101620000404003A04050035040500300404002CCD
:1016300004050027040400230405001E0404001A06
:1016400004040016040500110404000D040400093C
:101650000405000404040000040400FC030400F872
:10166000030400F4030400F0030400EC030400E8A6
:10167000030400E4030400E0030400DC030400D8D6
:10168000030400D4030400D0030400CC030400C806
:10169000030300C503030024F404D9201BC40C5C1D
:1016A0000E9804C4095F0265077101F405F900FB97
:1016B00004B30048048700C10369005803550003C0
:1016C000034500BE023A008402310053022A002979
:1016D00002250004022000E4011C00C8011900AF2B
:1016E00001170098011400840113007101100061BA
:1016F00001100051010E0043010D0036010B002BBB
:10170000010B0020010B00150109000C0109000369
:10171000010800FB000800F3000800EB000700E4EC
:10172000000600DE000600D8000600D2000600CC4D
:10173000000500C7000500C2000500BD000400B997
:10174000000400B5000400B1000400AD000400A9CD
:10175000000400A5000300A20003009F0004009BFA
:10176000000300980003009500020093000300901E
:101770000003008D0002008B000300880002008639
:1017800000020084000300810002007F0002007D4F
:101790000002007B00020079000200770001007661
:1017A0000002007400020072000100710002006F6C
:1017B0000002006D0001006C0002006A0001006977
:1017C000000200670001006600010065000100647E
:1017D0000002006200010061000100600001005F82
:1017E0000002005D0001005C0001005B0001005A86
:1017F0000001005900010058000100570001005687
:101800000001005500010054000100530000005386
:101810000001005200010051000100500001004F82
:101820000001004E0000004E0001004D0001004C80
:101830000001004B0000004B0001004A000100497C
:101840000001004800000048000100470001004678
:101850000000004600010045000000450001004472
:10186000000100430000004300010042000000426C
:101870000001004100000041000100400001003F64
:101880000000003F0001003E0000003E0001003D5E
:101890000000003D0001003C0000003C0000003C56
:1018A0000001003B0000003B0001003A0000003A4C
:1018B0000001003900000039000100380000003844
:1018C000000000380001003700000037000100363A
:1018D0000000003600000036000100350000003531
:1018E0000000003500010034000000340000003426
:1018F000000100330000003300000033000100321B
:101900000000003200000032000100310000003110
:101910000000003100010030000000300000003005
:101920000001002F0000002F0000002F0000002FFA
:101930000001002E0000002E0000002E0001002DEE
:101940000000002D0000002D0000002D0001002CE3
:101950000000002C0000002C0000002C0001002BD7
:101960000000002B0000002B0000002B0001002ACB
:101970000000002A0000002A0000002A00010029BF
:1019800000000029000000290000002900000029B3
:1019900000010028000000280000002800000028A6
:1019A0000000002800010027000000270000002799
:1019B000000000270000002700010026000000268C
:1019C000000000260000002600000026000100257F
:1019D0000000002500000025000000250000002573
:1019E0000000002500010024000000240000002465
:1019F0000000002400000024000100230000002358
:101A0000000000230000002300000023000000234A
:101A1000000000230001002200000022000000223C
:101A2000000000220000002200000022000100212E
:101A30000000002100000021000000210000002122
:101A40000000002100000021000100200000002013
:101A50000000002000000020000000200000002006
:101A600000000020000000200001001F0000001FF7
:101A70000000001F0000001F0000001F0000001FEA
:101A80000000001F0001001E0000001E0000001EDC
:101A90000000001E000000043700001E2900005155
:101AA0001B00005810000010090000CC0400007852
:101AB0000200004101000040012C0173012201AB32
:101AC000011801F3010E0148020401AC02FA002AD8
:101AD00003F000C303E6008004DC006D05D2006C57
:101AE00006C800C707BE007009B4006D0BAA00CB82
:101AF0000DA000CF138C00F21B7800E924640014C1
:101B00002E50009C353C00B83A2800A03D14000B34
:101B10003F0000453120544845524D414C2052551C
:101B20004E415741590042454420544845524D4189
:101B30004C2052554E4157415900546865726D61B1
:101B40006C2052756E617761790045312045727263
:101B50003A204D415854454D50004572723A204D3F
:101B6000415854454D5020424544004D415854453C
:101B70004D50207472696767657265640045312055
:101B80004572723A204D494E54454D50004572728F
:101B90003A204D494E54454D5020424544004D4950
:101BA0004E54454D502074726967676572656400D4
:101BB0004D383420582059205A204500202F00202D
:101BC00042403A0020403A0000060900FE07019218
:101BD0000321207FFF07FF07FF0000000600000130
:101BE00007070602008080808080008003020206D2
:101BF0000105A0A00507070600005050F850F85056
:101C0000500507070600002078A07028F02005077F
:101C100007060000C0C810204098180507070600F6
:101C2000006090A040A89068020303060104C04031
:101C300080030707060100204080808040200307C2
:101C40000706010080402020204080050505060091
:101C50000120A870A8200505050600012020F82015
:101C6000200203030602FFC04080050101060003B5
:101C7000F8020202060200C0C005050506000108C0
:101C80001020408005070706000070888888888833
:101C90007003070706010040C040404040E00507D0
:101CA00007060000708808708080F80507070600A6
:101CB00000F81020100808F0050707060000103093
:101CC0005090F81010050707060000F880F008088B
:101CD0008870050707060000708080F0888870050E
:101CE0000707060000F80810202020200507070637
:101CF00000007088887088887005070706000070EB
:101D0000888878080870020505060200C0C000C077
:101D1000C00206060602FFC0C000C04080040707DC
:101D2000060000102040804020100503030600023A
:101D3000F800F804070706010080402010204080CA
:101D40000507070600007088081020002005070717
:101D500006000070880868A8A8700507070600003C
:101D6000708888F8888888050707060000F088884A
:101D7000F08888F00507070600007088808080885A
:101D800070050707060000F08888888888F0050736
:101D900007060000F88080F08080F805070706003D
:101DA00000F88080F08080800507070600007088BA
:101DB00080B8888870050707060000888888F8883A
:101DC0008888010707060200808080808080800567
:101DD000070706000038101010109060050707066E
:101DE00000008890A0C0A09088050707060000802A
:101DF0008080808080F805070706000088D8A888C2
:101E00008888880507070600008888C8A8988888F9
:101E1000050707060000708888888888700507070E
:101E2000060000F08888F080808005070706000023
:101E300070888888A89068050707060000F08888E1
:101E4000F0A09088050707060000788080700808D9
:101E5000F0050707060000F82020202020200507B5
:101E600007060000888888888888700507070600AC
:101E70000088888888885020050707060000888821
:101E8000888888A8500507070600008888502050D9
:101E900088880507070600008888885020202005CC
:101EA0000707060000F80810204080F8030707061F
:101EB0000100E08080808080E0050505060001804B
:101EC00040201008030707060100E0202020202002
:101ED000E005030306000420508805010106000008
:101EE000F8020202060205804005050506000070A2
:101EF000087888780507070600008080B0C88888C1
:101F0000F00505050600007080808870050707064B
:101F100000000808689888887805050506000070A4
:101F200088F880700507070600003048E040404010
:101F3000400506060600FF708888780870050707C8
:101F40000600008080B0C888888801070706020064
:101F5000800080808080800308080601FF20002028
:101F6000202020A040040707060000808090A0C029
:101F7000A090030707060100C04040404040E00534
:101F80000505060000D0A8A8A8A8050505060000BC
:101F9000B0C88888880505050600007088888870A4
:101FA0000506060600FFF08888F080800506060614
:101FB00000FF788888780808050505060000B0C885
:101FC00080808005050506000070807008F0040719
:101FD000070600004040E04040403005050506008F
:101FE000008888889868050505060000888888505C
:101FF000200505050600008888A8A85005050506E7
:10200000000088502050880506060600FF88888852
:10201000780870050505060000F8102040F8030751
:1020200007060100204040804040200107070602CB
:102030000080808080808080030707060100804048
:102040004020404080050202060002689000000027
:1020500006000000060900FE000000000001090063
:1020600008FE000005080806000040F0C8888898AF
:102070007810050808060000C0F88888888888F865
:102080000505050600012030F83020050808060087
:10209000002070F820202020E00509090600FF201C
:1020A00070A8A8B8888870200509090600FFE0809C
:1020B000C0B0A8283028280509090600FFF8A8881C
:1020C00088888888A8F8050A0A0600FE2050505023
:1020D0005088A8A8887003030306000340A04000AE
:1020E000002100240027002A0000002200250028EB
:1020F000002B00000020002300260029000202021D
:10210000020202020204040404040404040303039C
:1021100003030303030101010101010101010204A1
:1021200008102040800102040810204080010204B1
:1021300008102040808040201008040201000000A8
:102140000102000000000000000403080700000076
:10215000000000000000000000000000004D3234CC
:10216000004D323320257300556E6B6E6F776E20F5
:10217000636F6D6D616E643A202200534420636189
:102180007264206F6B0A006F70656E526F6F7420FF
:102190006661696C65640A00766F6C756D652E69A1
:1021A0006E6974206661696C65640A005344206935
:1021B0006E6974206661696C0A004B494C4C454459
:1021C0002E2000202D20496E76616C696420657890
:1021D000747275646572206E756D62657220210A75
:1021E00000200000000000000000000000000000CF
:1021F000044000000000000000000000000000009B
:10220000028000000000000000000000000000004C
:10221000010000000380000000000000000000003A
:10222000000000000380000000000000000000002B
:10223000000000000100000000000000000000009D
:10224000000000000100000000000000000000008D
:10225000000000000100000000000000000000007D
:10226000000000000100000000000000000000006D
:102270000000000007C00000000F000100000F0078
:10228000000001FFFFFE00000008808100000880C0
:10229000000003FFFFFFFFC00008BDC13C1E08BDDA
:1022A000200003000003FC40000F248124020F25BE
:1022B00020000300000004780008A49D25DEE8A4A7
:1022C000C0000300000004080008A481241208A52F
:1022D0002000033FFF000408000F3CC1241E0F3DF7
:1022E0002000033FFFFF8408000000000000000002
:1022F0000000033007FFC4080000000000000000D9
:10230000000003300000C4080000000000000000CE
:1023100000000333C000C4088080000000000000FB
:1023200000000333C000C40980C0000000000000AA
:1023300000000333C000C40B80E000000000000078
:1023400000000333C1FCC40B80E3C20000020000A4
:1023500020000333C1FCC40BE3E2020000200000B4
:1023600020000333C1FCC40BE3E20E48EF74F3CF4B
:1023700020000333C000C409FFC3D24901249241A5
:10238000200003300000C408FF8212490F24924F3E
:102390002007FF300000C4087F0212490924924937
:1023A000200FFF300000C4083C03CE78EF34F24F1A
:1023B000200FFF300000C4083C00000000000000B7
:1023C000000F8731C01CC47FFE0000000000000029
:1023D00000070731E03CC47FFE0000000000000061
:1023E000001F8330FFF8C47FFE00000000000000E3
:1023F000003FC3303FE0CC7FFC0000000000000045
:10240000007FE33FC000CC7FF80000000000000028
:1024100000F8F31FFF00CC08000007004000400058
:1024200000F87300FFFFCC080000048040040000A7
:1024300000F0730001FF8C080000049E71EE8DC057
:102440000070630000000C0800000712492491008E
:102450000020430000000C0800000492492490C0B2
:102460000000031F00000C08000004924924904063
:102470000000031100000C080000049E71E68DC0EE
:102480000000031100000C08000000000000000024
:102490000000031107000C0800000000000000000D
:1024A0000000031F07F80C080000000000000000F7
:1024B00000000300007F0C08000000000000000086
:1024C0000000030000070C080000000000000000EE
:1024D0000000030000000C080000000000000000E5
:1024E000000003F000000C080000000000000000E5
:1024F000000001FF80000C10200020008000000080
:10250000000001FFF8000C602002000080000000C5
:10251000000001FFFFC00CE038F74F3CE3D2077822
:10252000000001FFFFFE0DE02492490492520808CA
:10253000000001FFFFFFFFE02492493C924C087825
:10254000000000FFFFFFFFE0249249249252084858
:102550000000000FFFFFFFE038F3493CE3D247786B
:1025600000000000FFFFFFC00000000000000000AE
:10257000000000000FFFFF800000000000000000CE
:102580000000000000FFFF01B6DB6DB6DB6DB6DBBF
:1025900000000000000FFE0000000000000000002E
:1025A000000000000000FC0000000000000000002F
:1025B000008000000000000000000000000000009B
:1025C00001400000000000000000000000000000CA
:1025D00002200000000000000000000000000000D9
:1025E000041FFFFFFFFFFFFF600000000001FF402E
:1025F0000000000000FF8000000000007F83CF008B
:10260000000C303F87FF80000C301F867980000C63
:10261000000F8C30C7838C30E78C30CFC7CC31F3C0
:102620008C30DCECEC33B98C30D86C6C33198C30DA
:10263000D06C0C33198C30D86C0C33198C30DC6CAA
:102640000E3B198C30CF7C079F198C30C77C038FD1
:102650001940000000000002600000000000061F9A
:10266000FFFFFFFFFFF82020506C616E6E65724225
:10267000756666657242797465733A200020467209
:102680006565204D656D6F72793A2000436F6D70FE
:10269000696C65643A204465632032312032303100
:1026A000380A00207C20417574686F723A204D61B1
:1026B000747468657720506965726365792C20426F
:1026C0006F742D496E2D612D426F782045647563BE
:1026D0006174696F6E616C20526F626F74696373AD
:1026E0000A00323031382D30382D303100204C6125
:1026F000737420557064617465643A2000312E3122
:102700002E390A004D61726C696E0020536F667439
:10271000776172652052657365740A002057617491
:102720006368646F672052657365740A00204272A3
:102730006F776E206F75742052657365740A002080
:1027400045787465726E616C2052657365740A0019
:10275000506F77657255700A0073746172740A0065
:102760006175746F25692E67006572726F722077CC
:10277000726974696E6720746F2066696C650A00FF
:10278000456E6473746F7073202563202563202564
:102790006320256300205A3A0020593A0020583A15
:1027A00000656E6473746F7073206869743A2000FA
:1027B000446F6E6520736176696E672066696C652B
:1027C0002E0A004D323900466C6F7700466C6F77E9
:1027D0000046616E2073706565640046616E20730B
:1027E000706565640042656400426564004E6F7AFE
:1027F0007A6C65004E6F7A7A6C650053706565641B
:10280000005370656564004D61696E0050726568C3
:1028100065617420504C4120456E640050726568BB
:1028200065617420504C41204265640050726568B7
:1028300065617420504C4100507265706172650092
:10284000507265686561742041425320456E640092
:10285000507265686561742041425320426564008E
:102860005072656865617420414253005072657012
:10287000617265004D34323800507265686561746C
:1028800020504C4100436F6F6C646F776E00507244
:102890006568656174204142530044697361626CEC
:1028A00065207374657070657273004D3834005321
:1028B000657420686F6D65206F666673657473005C
:1028C0004175746F20686F6D6500473238004D6F39
:1028D00076652061786973004D61696E004D6F7691
:1028E000652058004D6F76652059004D6F76652044
:1028F0005A0045787472756465720020746F6F2099
:102900006C6F6E6720657874727573696F6E207076
:10291000726576656E7465640A0020636F6C64206E
:10292000657874727573696F6E2070726576656E06
:102930007465640A004573746570732F6D6D00458E
:1029400073746570732F6D6D005A73746570732F97
:102950006D6D005A73746570732F6D6D00597374CB
:102960006570732F6D6D005973746570732F6D6D85
:10297000005873746570732F6D6D005873746570B3
:10298000732F6D6D004D6F74696F6E0053746570B9
:10299000732F6D6D004A65726B00416363656C65F2
:1029A000726174696F6E0056656C6F63697479004B
:1029B000436F6E74726F6C0046696C2E20446961BF
:1029C0002E0046696C2E204469612E004F66660019
:1029D0004F6E20004520696E206D6D3300436F6E91
:1029E00074726F6C0043616E6E6F7420656E7465F7
:1029F00072207375626469723A2000022E2E000103
:102A000052656672657368004D61696E00253164B8
:102A100000253264002533640025346400253564C4
:102A200000253664003048483020202020001A005D
:102A3000252020002520000000007E0060006000AE
:102A400060F87ECC60CC60CC60F860CC00CC00CC70
:102A500000CC0000000000000000000000000000AA
:102A600000000000000000000000000000FE7FFEEB
:102A70007F06600000000000000000F00FF81FF863
:102A80001FF81FF00FF00FF81FF81FF81FE007C026
:102A9000038001000000000000FE7F0E70266472BB
:102AA0004E7A5E324C8241324C7A5E724E26640E11
:102AB00070FE7F000000000000FE7F0E70C663C243
:102AC0004382411A58BA5D1A588241C243C6630E06
:102AD00070FE7F00000000000088088808101120A8
:102AE0002220221011880888081011000000000020
:102AF000000000000000000000202210118808885B
:102B00000810112022202210118808000000000067
:102B1000000000000000005654726176206D696E5E
:102B2000005654726176206D696E0056547261765B
:102B3000206D696E00566D696E00566D696E0056A7
:102B40006D696E00566D6178204500566D61782084
:102B50004500566D6178204500566D6178205A0019
:102B6000566D6178205A00566D6178205A00566D76
:102B70006178205900566D6178205900566D617852
:102B8000205900566D6178205800566D61782058A4
:102B900000566D61782058004D6F74696F6E00416A
:102BA0006D6178204500416D6178204500416D617F
:102BB00078205A00416D6178205A00416D6178207B
:102BC0005900416D6178205900416D6178205800AD
:102BD000416D6178205800412D74726176656C00FA
:102BE000412D74726176656C00412D72657472615D
:102BF000637400412D726574726163740041636394
:102C0000656C00416363656C004D6F74696F6E00A5
:102C100056652D6A65726B0056652D6A65726B008C
:102C200056652D6A65726B00567A2D6A65726B0067
:102C3000567A2D6A65726B0056792D6A65726B0043
:102C400056792D6A65726B0056792D6A65726B0034
:102C500056782D6A65726B0056782D6A65726B0026
:102C600056782D6A65726B004D6F74696F6E0057F0
:102C7000616E68616F2069332076322E3120526593
:102C80006164792E005072696E74696E672E2E2E03
:102C9000005072696E7420706175736564005072C3
:102CA000696E742061626F72746564004D32310028
:102CB0004E6F2053442063617264004368616E6705
:102CC000652053442063617264004D3231005072BC
:102CD000696E742066726F6D2053440053746F7078
:102CE000207072696E7400526573756D6520707224
:102CF000696E7400496E69742E20534420636172BA
:102D000064005061757365207072696E7400436F62
:102D10006E74726F6C0050726570617265005475EC
:102D20006E6500496E666F2073637265656E006F35
:102D30006B00627573793A20706175736564206603
:102D40006F7220696E7075740A00627573793A202B
:102D500070617573656420666F7220757365720AA1
:102D600000627573793A2070726F63657373696E70
:102D7000670A004B494C4C45442E20004B494C4CB3
:102D80002063617573656420627920746F6F206DB4
:102D900075636820696E6163746976652074696D16
:102DA00065202D2063757272656E7420636F6D6D82
:102DB000616E643A2000506C6561736520726573C2
:102DC0006574005052494E5445522048414C544578
:102DD00044005072696E7465722068616C74656439
:102DE0002E206B696C6C28292063616C6C656421F2
:102DF0000A00656E7175657565696E672022000051
:102E00000000000000000000000000000048420038
:102E100000484200008040000000005761726E6967
:102E20006E673A20486F6D696E672042756D70203D
:102E300044697669736F72203C20310A00020204F3
:102E40000000A0400000A0400000004000004843F7
:102E50000000484300000C43FFFFFF6265640A0066
:102E60002C2073797374656D2073746F7070656452
:102E700021204865617465725F49443A20004265CB
:102E8000642068656174696E67206661696C656459
:102E90000048656174696E67206661696C656400ED
:102EA00045312048656174696E67206661696C65AB
:102EB000640048656174696E67206661696C656469
:102EC000001000C90210012C0140012201700118FC
:102ED00001B0010E01F00104015002FA00B002F04D
:102EE000003003E600D003DC009004D2007005C877
:102EF00000A006BE000008B400B009AA00D00BA0D4
:102F000000600E960060118C000015820020197878
:102F100000C01D6E00A0226400B0275A00902C5003
:102F20000000314600E0343C0010383200903A286E
:102F300000603C1E00A03D1400803E0A00203F00BF
:102F400000526573656E643A2000B3C4AFCD11249E
:102F50001FBECFEFD0E4DEBFCDBF11E0A0E0B1E0F7
:102F6000EAEEF9EB01E00BBF02C007900D92AC3D19
:102F7000B107D9F722E1ACEDB1E001C01D92AE314D
:102F8000B207E1F717E1C6EAD7E104C02197FE01D5
:102F90000E9445D9C53AD107C9F70E9451C80C947F
:102FA000E8DC0C9400002F923F924F925F926F9258
:102FB0007F928F929F92AF92BF92CF92DF92EF92C9
:102FC000FF920F931F93CF93DF93CDB7DEB7CA580D
:102FD000D1090FB6F894DEBF0FBECDBF21E020931C
:102FE000F01080918C118D3409F4E1C7843511F40F
:102FF0000C94C231873411F00C94063280918A11FE
:1030000090918B118430910509F470C544F497FDBB
:10301000CAC7209153018230910524F51EC08A351C
:10302000910509F402C724F44C9709F49DC5BBC768
:103030008B35910509F4FDC68C35910509F0B3C7B0
:1030400014E5212E11E0312E0EEFC02E00E1D02E1E
:10305000E12CF12C00E010E029C721110C940D3275
:103060000C940832222311F40C94083211E00297D8
:1030700009F010E00E94963982E50E9454398823B5
:1030800009F43CC10E9470386B017C0180915307A8
:1030900090915407A0915507B09156078CA79DA712
:1030A000AEA7BFA720915707309158074091590705
:1030B00050915A0728AB39AB4AAB5BAB80910B11EF
:1030C00090910C11A0910D11B0910E118CAB9DAB94
:1030D000AEABBFAB20910F11309110114091111187
:1030E0005091121128AF39AF4AAF5BAF20E030E00A
:1030F000A901C701B6010E947ED2882309F4DCC46D
:103100002CA53DA54EA55FA56CA97DA98EA99FA95B
:103110000E947ED281110DC028A939A94AA95BA9B4
:1031200068AD79AD8AAD9BAD0E947ED2882309F44B
:10313000C3C420E030E0A901C701B6010E947ED2DD
:10314000881F8827881F181307C0412C512C40E87E
:10315000642E4FE3742E06C0412C512C30E8632EB0
:103160003FEB732E2CA53DA54EA55FA56CA97DA9AF
:103170008EA99FA90E9456D924966CAF7DAF8EAFC1
:103180009FAF249728A939A94AA95BA968AD79AD51
:103190008AAD9BAD0E9456D928966CAF7DAF8EAF9D
:1031A0009FAF289724962CAD3DAD4EAD5FAD2497D3
:1031B000CA01B9010E94E4D24B015C0128962CADF2
:1031C0003DAD4EAD5FAD2897CA01B9010E94E4D272
:1031D0009B01AC01C501B4010E9457D90E9405DCD6
:1031E0006CAF7DAF8EAF9FAF20E030E040E05FE39B
:1031F0000E94E4D24B015C01A7019601C701B60110
:103200000E94E4D26B017C01A5019401C501B401C7
:103210000E94E4D29B01AC01C701B6010E9456D9BD
:103220000E9405DC9B01AC01C301B2010E94E4D203
:103230002B013C012CA93DA94EA95FA96CA57DA538
:103240008EA59FA50E9457D920E030E040E05FE3C3
:103250000E94E4D26B017C0128966CAD7DAD8EADF1
:103260009FAD289790582CAD3DAD4EAD5FAD0E94FF
:1032700051DA9B01AC01C301B2010E94E4D29B016F
:10328000AC01C701B6010E9457D92CA53DA54EA59A
:103290005FA50E9456D96B017C0128AD39AD4AADBE
:1032A0005BAD68A979A98AA99BA90E9457D920E09A
:1032B00030E040E05FE30E94E4D24B015C012CADC2
:1032C0003DAD4EAD5FAD24966CAD7DAD8EAD9FAD89
:1032D00024970E9451DA9B01AC01C301B2010E9404
:1032E000E4D29B01AC01C501B4010E9457D928A9C1
:1032F00039A94AA95BA90E9456D914C089E40E9441
:103300005439882329F00E9470386B017C0103C076
:10331000C12CD12C76018AE40E9454398823D9F03B
:103320000E9470386CAB7DAB8EAB9FAB20E030E081
:10333000A901C701B6010E947ED281111AC020E006
:1033400030E0A9016CA97DA98EA99FA90E947ED217
:1033500081110FC0B1C320E030E0A901C701B6015F
:103360000E947ED2882309F4A7C31CAA1DAA1EAA04
:103370001FAAD701C601B0588CA79DA7AEA7BFA7AB
:103380002CA93DA94EA95FA9505828AB39AB4AAB2F
:103390005BAB9C01AD01BC01CD010E94E4D24B01AD
:1033A0005C0128A939A94AA95BA9CA01B9010E94EF
:1033B000E4D29B01AC01C501B4010E9457D90E941F
:1033C00005DC64966CAF7DAF8EAF9FAF6497809144
:1033D000530790915407A0915507B091560788AFB5
:1033E00099AFAAAFBBAFA7019601BC01CD010E9466
:1033F00057D928966CAF7DAF8EAF9FAF289720919D
:103400005707309158074091590750915A072CAFF0
:103410003DAF4EAF5FAF2CA93DA94EA95FA96CADE2
:103420007DAD8EAD9FAD0E9457D968966CAF7DAFD4
:103430008EAF9FAF689780910B1190910C11A09166
:103440000D11B0910E1124968CAF9DAFAEAFBFAFF2
:10345000249728962CAD3DAD4EAD5FAD2897BC01AD
:10346000CD010E9456D96B017C0120910F11309142
:10347000101140911111509112112C962CAF3DAFAB
:103480004EAF5FAF2C9768962CAD3DAD4EAD5FADA6
:1034900068972C966CAD7DAD8EAD9FAD2C970E943C
:1034A00056D94B015C0180915B0790915C07A0911C
:1034B0005D07B0915E0760968CAF9DAFAEAFBFAFBA
:1034C00060979C01AD01609113117091141180916E
:1034D0001511909116110E9456D92B013C01209193
:1034E0001711309118114091191150911A11A0968D
:1034F0002CAF3DAF4EAF5FAFA09780915F0790912B
:103500006007A0916107B09162076C968CAF9DAF88
:10351000AEAFBFAF6C97A70196016CA57DA58EA538
:103520009FA50E94E4D2A4966CAF7DAF8EAF9FAFF3
:10353000A497A501940168A979A98AA99BA90E94C9
:10354000E4D29B01AC01A4966CAD7DAD8EAD9FAD78
:10355000A4970E9457D9A4966CAF7DAF8EAF9FAF52
:10356000A497A50194016CA57DA58EA59FA50E9499
:10357000E4D24B015C01A701960168A979A98AA947
:103580009BA90E94E4D29B01AC01C501B4010E9439
:1035900056D9A4962CAD3DAD4EAD5FADA4970E941B
:1035A000D6D96B017C0120E030E0A9010E947ED2D7
:1035B00087FF0AC02BED3FE049EC50E4C701B6019C
:1035C0000E9457D96B017C01112351F02BED3FE094
:1035D00049EC50E4C701B6010E9456D96B017C0149
:1035E00020E030E0A901C701B6010E947ED281111E
:1035F00024C024962CAD3DAD4EAD5FAD249768AD93
:1036000079AD8AAD9BAD0E947ED2811116C02C96F9
:103610002CAD3DAD4EAD5FAD2C976CAD7DAD8EAD9F
:103620009FAD0E947ED2811108C02BEDC22E2FE0EB
:10363000D22E29ECE22E20E4F22EA7019601649608
:103640006CAD7DAD8EAD9FAD64970E94E4D24B0111
:103650005C0120E030E0A901C301B2010E947ED2EA
:103660008823C9F0A5019401C501B4010E94E4D2E8
:103670004B015C01A3019201C301B2010E94E4D29B
:103680009B01AC01C501B4010E9457D90E9405DC21
:103690004B015C010DC020E030E0A901C501B4017F
:1036A0000E94B7DB87FF04C0B7FAB094B7F8B094B4
:1036B0002FE632E143E85AE3C501B4010E947ED20D
:1036C00087FF02C00C940832C501B4010E94F9DAE8
:1036D0000E94CADA1B01672B19F422242394312C8F
:1036E000B10180E090E00E9483D24B015C019B011C
:1036F000AC01C701B6010E9451DA68AF79AF8AAF59
:103700009BAFA5019401C301B2010E9451DA6496F6
:103710006CAF7DAF8EAF9FAF64976C962CAD3DAD17
:103720004EAD5FAD6C97A0966CAD7DAD8EAD9FAD8F
:10373000A0970E9456D9A50194010E9451DAA09643
:103740006CAF7DAF8EAF9FAFA09728AD39AD4AADBE
:103750005BADCA01B9010E94E4D220E030E040E054
:103760005FE30E94E4D29B01AC0160E070E080E87E
:103770009FE30E9456D92C966CAF7DAF8EAF9FAF62
:103780002C9760962CAD3DAD4EAD5FAD609729870F
:103790003A874B875C876C968CAD9DADAEADBFAD67
:1037A0006C978D879E87AF87B88B6091350170913C
:1037B0003601072E000C880B990B0E9485D22091B0
:1037C00000013091010140910201509103010E94DA
:1037D000E4D22AE037ED43E25CE30E94E4D268A73A
:1037E00079A78AA79BA70E945DC49B01AC012853BF
:1037F0003F4F4F4F5F4F60962CAF3DAF4EAF5FAF27
:1038000060974CA45DA46EA47FA441E050E0229692
:103810005FAF4EAF229759E15CAF22962EAD3FAD20
:1038200022972215330509F41CC10E9433C00E945F
:103830005DC4DC01CB0160962CAD3DAD4EAD5FADFE
:103840006097821B930BA40BB50BB7FD10C00E94B1
:103850005DC49B01AC0128533F4F4F4F5F4F6096B3
:103860002CAF3DAF4EAF5FAF60970E94A9BA3CADA1
:1038700031503CAF332309F441C02C962CAD3DAD03
:103880004EAD5FAD2C9768A979A98AA99BA90E9422
:10389000E4D26B017C0128AD39AD4AAD5BADB2011C
:1038A000C3010E94E4D2A70196010E9457D97B016F
:1038B0008C012C962CAD3DAD4EAD5FAD2C97B20179
:1038C000C3010E94E4D24B015C0128AD39AD4AAD81
:1038D0005BAD68A979A98AA99BA90E94E4D29B0142
:1038E000AC01C501B4010E9456D92B013C01C701AE
:1038F000D80188AB99ABAAABBBAB53C022964EADF7
:103900005FAD2297BA0180E090E00E9483D228AD9B
:1039100039AD4AAD5BAD0E94E4D24B015C010E941F
:103920004CDA6B017C01C501B4010E94F7DB4B014D
:103930005C01A70196016CA57DA58EA59FA50E949F
:10394000E4D22B013C01A50194016CA97DA98EA9AB
:103950009FA90E94E4D29B01AC01C301B2010E9465
:1039600057D92B013C01A50194016CA57DA58EA51D
:103970009FA50E94E4D24B015C01A70196016CA9AE
:103980007DA98EA99FA90E94E4D29B01AC01C5012B
:10399000B4010E9456D968AB79AB8AAB9BAB59E1B5
:1039A0005CAF9201A30128966CAD7DAD8EAD9FAD4D
:1039B00028970E9457D969837A838B839C8328A98F
:1039C00039A94AA95BA968966CAD7DAD8EAD9FAD56
:1039D00068970E9457D96D837E838F8398876496FA
:1039E0002CAD3DAD4EAD5FAD649769857A858B8515
:1039F0009C850E9457D969877A878B879C87A09678
:103A00002CAD3DAD4EAD5FADA0976D857E858F85AC
:103A100098890E9457D96D877E878F87988B809170
:103A20004301882321F0CE0101960E948AB8E090DC
:103A3000A11018A219A21AA21BA2CE0180966C0195
:103A40008E01085D1F4F9E01235F3F4FAE01475F10
:103A50005F4FBE016B5F7F4F4F970E949789811127
:103A600021C0E090A1101CA21DA21EA21FA2DE0177
:103A700094966D018E01085D1F4F27E131E143E10E
:103A800051E16FE071E18BE091E10E94978980E163
:103A9000EBE0F1E1A3E5B7E001900D928A95E1F743
:103AA0000C9408322296EEADFFAD22973196229605
:103AB000FFAFEEAF2297B1CEE2E6F2E184918F0143
:103AC0000F5F1F4F882321F00E94213AF801F6CFA3
:103AD000E5E9F2E084918F010F5F1F4F882311F415
:103AE0000C9408320E94213AF801F4CF80E50E943C
:103AF0005439882329F00E942C386B017C0103C0C3
:103B0000C12CD12C760183E50E945439882361F0C1
:103B10000E94703820E030E04AE754E40E94E4D28A
:103B20000E94CADA6B017C010E94E36D8091180B40
:103B3000811105C060E08BEA92E00E947C820E94C5
:103B40005DC4C60ED71EE81EF91E0E945DC4DC01CE
:103B5000CB018C199D09AE09BF09B7FD02C00C94B9
:103B600008320E94A9BAF1CF80914607877087304A
:103B700071F48FE40E945439882319F00E94603850
:103B800003C08FE40E94A33881110C9408320E9474
:103B9000E36D8091000190910101A0910201B0912B
:103BA00003018093E3019093E401A093E501B093B6
:103BB000E60180913501909136019093E201809366
:103BC000E10184E690E0909336018093350111E0A5
:103BD0001093450788E50E94A338282E89E50E94A6
:103BE000A338082F8AE50E94A338382E211004C07C
:103BF000011104C0182705C0011102C010E001C066
:103C0000182F80E1E3E5F7E0ABE0B1E101900D9220
:103C10008A95E1F782E50E945439882369F00E9471
:103C200070386B017C0120E030E0A9010E947ED257
:103C3000882309F4BFC006C0C12CD12C80EAE82E2D
:103C400080E4F82E111105C0211003C0002309F4EF
:103C5000C2C0C0921311D0921411E0921511F092CB
:103C6000161180905B0790905C07A0905D07B09064
:103C70005E07A5019401C701B6010E94B7DB1816C3
:103C80000CF098C08091570790915807A091590760
:103C9000B0915A078CA79DA7AEA7BFA72091530745
:103CA00030915407409155075091560728AB39ABD6
:103CB0004AAB5BAB8091000190910101A0910201A0
:103CC000B09103018CAB9DABAEABBFABE3E1FEE2C9
:103CD0004590559065907490A7019601C501B40177
:103CE0000E947ED287FF12C04092000150920101D3
:103CF0006092020170920301C0925B07D0925C0750
:103D0000E0925D07F0925E070E94603685E595E5DA
:103D1000A5E0B3E48093000190930101A093020118
:103D2000B093030128A939A94AA95BA92093530795
:103D30003093540740935507509356078CA59DA583
:103D4000AEA5BFA58093570790935807A093590736
:103D5000B0935A070E946036A701960160915B07F5
:103D600070915C0780915D0790915E070E94B7DBC0
:103D7000181694F4409200015092010160920201E1
:103D800070920301C0925B07D0925C07E0925D07DE
:103D9000F0925E070E9460360E94E36D2CA93DA957
:103DA0004EA95FA9209300013093010140930201C5
:103DB00050930301111105C0211003C0011106C069
:103DC0000AC080E00E941CB91123C1F381E00E9467
:103DD0001CB9111102C0332019F082E00E941CB9F5
:103DE0000E94493780914407809345078091E30101
:103DF0009091E401A091E501B091E601809300016A
:103E000090930101A0930201B09303018091E1011D
:103E10009091E201909336018093350183E0809385
:103E200044010E94C93E0C9408321092E0010C94A7
:103E300008322093E0010C9408320E9470382B0164
:103E40003C01133059F0F701EF50F74F20813181D9
:103E5000428153810E9456D92B013C01F701ED5A52
:103E6000F84F2081318142815381C301B2010E9408
:103E700056D94B015C012DEB37E346E855EB0E9428
:103E8000B7DB87FD1BC02DEB37E346E855E3C501E3
:103E9000B4010E947ED218168CF01F5FB4E0CB0EE6
:103EA000D11CE4E0EE0EF11C143039F1D1018D91FA
:103EB0001D010E945439882381F3BFCF133051F480
:103EC00040925F07509260076092610770926207AC
:103ED00001E0E3CFA5019401F60160817181828147
:103EE00093810E9457D9D6016D937D938D939C93B6
:103EF0001397812F0E948C36D0CF002309F44FC036
:103F000020E030E0A90160915F0770916007809127
:103F10006107909162070E9457D9209174103091E7
:103F2000751040917610509177100E94E4D20E9453
:103F3000C4DB6093DE027093DF028093E002909313
:103F4000E1029091BC028091BD02981719F00E9485
:103F5000856D25C00E94E36D80916F0081FB9927DC
:103F600090F981FF05C080916F008D7F80936F0075
:103F70004091DE025091DF026091E0027091E10217
:103F800040933E1150933F11609340117093411143
:103F9000992329F080916F00826080936F000E94C6
:103FA000C93E0C9408320E9478760C9408328091B5
:103FB0008A1190918B118137910509F4ACC50CF0F1
:103FC000C2C08A32910509F4C2C40CF05CC08831C9
:103FD000910509F474C2B4F58231910511F40C9481
:103FE000E728BCF497FF02C00C94BF3182309105E2
:103FF0000CF491C1419711F00C94BF3160E087EC53
:1040000092E00E947C825E985E9815985E980C946F
:1040100008328531910509F437C23CF4449711F018
:104020000C94BF31EFEDF2E0EEC18631910509F459
:104030002FC2479711F00C94BF31E0918811F09195
:10404000891130C28C31910509F4EAC264F48A31D5
:10405000910509F43DC20CF049C2109202030E947E
:1040600000C20C9408328E31910509F4E3C214F4B5
:104070000C9408328F31910509F4C3C3809709F479
:1040800074C30C94BF318C35910511F40C9437290D
:104090005CF58135910511F40C94C9288CF48C34AD
:1040A000910509F49CC48D34910509F49CC48B34AA
:1040B000910511F00C94BF310E94C6C10C940832D6
:1040C0008335910511F40C94E22814F40C94DE2845
:1040D0008435910511F40C94E7288535910511F488
:1040E0000C941C290C94BF318C36910509F40FC532
:1040F000BCF48936910509F43AC534F48836910543
:1041000009F475C40C94BF318A36910511F40C94EE
:1041100099288B36910511F40C94B7280C94BF3173
:104120008E36910509F492C40CF463C58F3691055F
:1041300009F49FC48037910511F00C94BF318DEDC7
:1041400093E00E943BBA833D910511F40C94352C09
:104150000CF067C08139910511F40C94C62A44F51E
:104160008637910511F40C946B2A7CF48337910502
:1041700011F40C94002A14F40C94C029853791058D
:1041800011F40C945E2A0C94BF318837910511F418
:104190000C94BB2A14F40C94B82A8937910511F4B5
:1041A0000C94C12A8C38910509F4EDC60C94BF31EA
:1041B000893C910511F40C94822B7CF48E3B910583
:1041C00009F4FFC6883C910511F40C943C2B8B3903
:1041D000910511F00C94BF31E5C48C3C910511F4AC
:1041E0000C94BA2B84F48B3C910511F00C94BF31E4
:1041F000A0E6EA2EABE0FA2E04E511E0B4E0DB2EF7
:10420000D00E0C94AA2B8D3C910511F40C942F2CFC
:104210008E3C910511F00C94BF310E9429410C9401
:1042200008328039F1E09F0711F40C947F3184F556
:104230008C3231E0930711F40C94282D8CF48D3DD1
:10424000910511F40C94222D823E910511F40C94E9
:10425000252D8C3D910511F00C94BF310C94152D3A
:104260008E3251E0950711F40C94CC2D14F40C947B
:104270002B2D8F32B1E09B0711F40C94202E833646
:10428000914011F00C94BF31E2E6F2E10C946831F8
:10429000863FF1E09F0711F40C949B3114F58C3AA2
:1042A00031E0930711F40C94322C4CF48A3991408C
:1042B00011F00C94BF310E9453370C940832843FA4
:1042C000A1E09A0711F40C948231853F914011F0DE
:1042D0000C94BF310E94A75A80E00E94E9560C94CA
:1042E00008328B38E3E09E0711F40C9408323CF45A
:1042F000873F914011F40C949E310C94BF31803A69
:1043000033E0930709F470C2873E934011F40C9494
:10431000AA310C94BF31A0908811B090891180E52A
:104320000E945439882359F00E942C386B017C017B
:1043300011E0672B682B692B31F410E004C010E00A
:10434000C12CD12C760183E50E945439882311F4C5
:104350000C94FF320E94703820E030E04AE754E4C9
:104360000E94E4D20E94CADA6B017C0111110BC0D9
:10437000672B682B692B39F4A114B10421F0D50106
:104380008C91811102C010E001C011E00E94E36D28
:10439000112329F061E0C5010E94B68205C060E0EA
:1043A00084EB92E00E947C8283E08093F01081E0B5
:1043B0008093AD10C114D104E104F104E9F00E942E
:1043C0005DC4C60ED71EE81EF91E0E945DC4DC0146
:1043D000CB018C199D09AE09BF09B7FD06C00E942B
:1043E00039B41092AD100C9408328091AD1088232E
:1043F000B1F30E94A9BAE9CF8091AD10882379F377
:104400000E94A9BAF9CF84918F010F5F1F4F8823B3
:1044100021F00E94213AF801F6CF10927F0540E08A
:1044200050E0BA0182E393E00E9439438BE1E2E37A
:10443000F3E0DE01159601900D928A95E1F78091E7
:104440003003909131039C838B8382E691E09A83C1
:10445000898340E050E0BE016F5F7F4F80E090E0D5
:104460000E948E60CE0101960E941FBAE0EDF2E03C
:1044700084918F010F5F1F4F882311F40C94083231
:104480000E94213AF801F4CF0E941E790C94083260
:1044900010920203109203030C940832803209F444
:1044A0001082319680818111F9CF40E061E08091E6
:1044B0008811909189110E94B9620C940832809100
:1044C00003038111209302030E94C6C10C94083299
:1044D00080910303882311F40C94083283E50E9431
:1044E000543981110C9404330C94083283E40E94F3
:1044F000A338882309F454C0EDE1F3E084918F01DF
:104500000F5F1F4F882321F00E94213AF801F6CF58
:104510008091CD04882391F0BE016F5F7F4F8AECBC
:1045200094E00E9422448E010F5F1F4FF801819199
:104530008F01882381F10E94213AF8CFE0EFF2E069
:1045400084918F010F5F1F4F882329F10E94213A28
:10455000F801F6CF80916710882309F4CBC2A8EC4C
:10456000CA2EA3E0DA2EE12CF12C20E08091671016
:1045700090E00E2C02C0959587950A94E2F780FD95
:10458000A1C2FFEFEF1AFF0A32E0C30ED11C45E0D3
:10459000E416F10459F78AE00E94213A0C9408329B
:1045A00080910303882371F180910203882351F1E4
:1045B000EAEFF2E084918F010F5F1F4F882321F013
:1045C0000E94213AF801F6CF60917B0570917C053D
:1045D00080917D0590917E054AE00E944A3D8FE2E0
:1045E0000E94213A60917705709178058091790554
:1045F00090917A054AE00E944A3D8AE00E94213A61
:104600000C940832ECE0F3E084918F010F5F1F4FB0
:10461000882311F40C9408320E94213AF801F4CF57
:1046200040E060E080918811909189110E94B96208
:104630000C94083280910303882311F40C940832FF
:104640008AEC94E00E94F6428AEC94E00E94724464
:1046500010920103109200030091881110918911AA
:1046600080910303882311F40C9408320E94945F14
:10467000B801CE0180960E94DC5E8C01892B11F47A
:104680000C94083268A179A16115710511F06C5F75
:104690007F4F19821C8222E0A801CE0101960E9460
:1046A000D24A811102C0F12C1EC0CE0101960E9497
:1046B0004A5E8823C1F36D857E858F85988941E0A8
:1046C0000E94975C882379F3E98920E2E29FF00158
:1046D0001124E35FF64F309731F385EE80831C821F
:1046E0000E94575CF82ECE0101960E941B3AFF20D3
:1046F00011F1ECE2F3E084917F013FEFE31AF30A5A
:10470000882321F00E94213AF701F5CFD8018D913D
:104710008D01882319F00E94213AF8CF8AE00E9487
:10472000213A10927B0510927C0510927D05109223
:104730007E050C940832EAE3F3E084917F01BFEF39
:10474000EB1AFB0A882321F00E94213AF701F5CFEA
:10475000F80181918F01882319F00E94213AF8CF46
:104760008EE20E94213A0C9408328091020381115A
:104770000E94E36D80910303882311F40C940832A6
:1047800080E50E945439882319F00E94603803C0E4
:1047900080E50E94A338182F482F61E0809188118E
:1047A000909189110E94B96283E50E94543988234F
:1047B00081F00E943C38AB01BC0140937B055093D3
:1047C0007C0560937D0570937E058AEC94E00E94E1
:1047D000394380910303882319F081E08093020319
:1047E00011110C94083270CE80918811909189112A
:1047F00021E02093010340E060E00E94B9620C9444
:1048000008320E9492C1BCE3CB2ED12CE12CF12CBA
:10481000A70196010E94C2D8762E672ECA01B9015F
:10482000A70196010E94C2D86B017C01CA01B9019F
:1048300028E130E040E050E00E94C2D84B015C012A
:10484000C9016DE671E00E94FED88E010F5F1F4F17
:104850006115710599F06F927F92DF92CF929F92CE
:104860008F929F938F937F936F938AE793E09F93A9
:104870008F931F930F930E9415D212C00097B1F02F
:104880006F927F92DF92CF929F928F929F938F939E
:104890008AE693E09F938F931F930F930E9415D204
:1048A0000FB6F894DEBF0FBECDBF36C081149104A1
:1048B000A104B10479F06F927F92DF92CF929F9220
:1048C0008F928EE593E09F938F931F930F930E9497
:1048D00015D2E6CFC114D104E104F10469F06F925E
:1048E0007F92DF92CF9286E593E09F938F931F9301
:1048F0000F930E9415D2D4CF6F927F9282E593E0FE
:104900009F938F931F930F930E9415D20F900F9038
:104910000F900F900F900F9060E0C8010E94B68238
:10492000EDE7F2E184917F01BFEFEB1AFB0A8823E8
:1049300021F00E94213AF701F5CFB8018EE893E00B
:104940000E94F46C8AE00E94213A0C94083283E5BC
:104950000E945439882311F40C9408320E944C3878
:10496000E82E80E50E945439882339F00E944C38A3
:10497000182F87FF03C00C9408321BE189E40E94C2
:104980005439882349F00E946038811111C0EBE945
:10499000F3E08DE28E0F07C089E40E94A338F5CFC3
:1049A00031968E1729F094911913FACF0C94CD35C6
:1049B00061E0812F0E94E2786E2D812F0E94B278F3
:1049C000F12CB701812F0E94627A143011F00C94FF
:1049D0000832F092910BE092900B0C9408320E94F6
:1049E00000C20C9408320E9415C20C94083288E66A
:1049F00090E00E94B23D81110C94083280916710C2
:104A000083FF02C00C94083283E50E945439882346
:104A1000C9F00E9470380E94C3DA70931707609340
:104A2000160780E00E9451750E94703820E030E047
:104A30004AEA52E40E947ED2181624F00E9415C25F
:104A40000E9439B40E9490C50C9408328EE40E94F2
:104A50005439882311F40C9408320E943C38609336
:104A600076027093770280937802909379020C9487
:104A7000083283E50E94A338882359F083E50E9419
:104A80005439882319F00E944C3801C080E080938B
:104A90006710EDE7F2E184918F010F5F1F4F8823CC
:104AA00021F00E94213AF801F6CFE6EDF3E084917F
:104AB0008F010F5F1F4F882309F44CCD0E94213ACC
:104AC000F801F5CFBB24B394B20E222319F08CE287
:104AD0000E94213AF60125913491F90184918901CE
:104AE0000F5F1F4F882321F00E94213A9801F5CFD4
:104AF0002B2D47CDE2EDF3E084918F010F5F1F4F27
:104B0000882309F448CD0E94213AF801F5CF10928C
:104B100032010C94083283E50E945439882369F0ED
:104B20000E944C388D3320F480934E010C9408324F
:104B30008CE380934E010C940832EDE7F2E184910E
:104B40008F010F5F1F4F882321F00E94213AF80147
:104B5000F6CF40914E0150E060E070E086EE93E0C9
:104B60000E94A16C8AE00E94213A0C94083289E6E6
:104B700090E00E94B23D811111C0EDEEF3E084910E
:104B80008F010F5F1F4F882321F00E94213AF80107
:104B9000F6CF0E9412728AE00E94213A1092F01021
:104BA0000C94D03583E50E945439882311F40C9479
:104BB00008320E944C38182F8D3308F01CE31093F4
:104BC000FD100E945DC46B017C01212F30E0A8EE36
:104BD000B3E00E94EFD8C60ED71EE81EF91EC092A1
:104BE000F910D092FA10E092FB10F092FC100C94A5
:104BF00008328DE690E00E94B23D81110C9408329B
:104C00008091671083FF02C00C94083283E50E94F4
:104C100054398CA7811105C082E50E94543988233C
:104C2000E1F10E9470380E94C3DA70931707609315
:104C3000160780E00E9451750E94703820E030E035
:104C40004AEA52E40E947ED2181614F40C941533EA
:104C50000E9415C20E9439B460911607709117071F
:104C6000072E000C880B990B0E9485D22091930B84
:104C70003091940B4091950B5091960B0E94B7DBAD
:104C8000181614F40C9419335CA5511105C084EF67
:104C900093E060E00E947C8281E0CA57DF4F888306
:104CA000C658D0400E9490C5CA57DF4F8881C65869
:104CB000D040882311F40C94083281E080933201B3
:104CC0001CAA1DAA1EAA1FAA68961CAE1DAE1EAE67
:104CD0001FAE689718AA29961FAE29978CE32D96C8
:104CE0008FAF2D979CE169969FAF6997A6E4619677
:104CF000AFAF6197C12CD12CE0E8EE2EFFEBFF2E79
:104D0000812C912C54016091160770911707072E82
:104D1000000C880B990B0E9485D2162F072F782E36
:104D2000692E262F372F482F592FB601C7010E9411
:104D30007ED28823C1F02091930B3091940B409147
:104D4000950B5091960B612F702F872D962D0E94F9
:104D50007ED2881F8827881F88ABBCA5BB2339F06B
:104D6000882329F0DCC11C2D0D2D7E2C6F2C0E9478
:104D70005DC46B017C01DC01CB0168962CAD3DADBF
:104D80004EAD5FAD6897821B930BA40BB50BB7FDBF
:104D90003DC0D701C60188519C4FAF4FBF4F6896A9
:104DA0008CAF9DAFAEAFBFAF68970E941272E0EFBD
:104DB000F3E084912F019FEF491A590A882321F0CB
:104DC0000E94213AF201F5CF81149104A104B104AB
:104DD000B9F0D501C401805C904EAF4FBF4FBC010C
:104DE000CD016C197D098E099F0928EE33E040E062
:104DF00050E00E94C2D8CA01B9010E94693E03C0B6
:104E00008FE30E94213A8AE00E94213A0E94A9BAC7
:104E10000E945DC46093F1107093F2108093F310C0
:104E20009093F410A091930BA8AFB091940BBCAFEA
:104E3000E091950B2196EFAF2197F091960B259677
:104E4000FFAF25979D01AF01612F702F872D962D04
:104E50000E9456D91B012C0120E030E0A9010E94DC
:104E6000B7DB87FF04C057FA509457F85094811469
:104E70009104A104B10459F420E030E040E85FE37C
:104E8000C201B1010E947ED287FF0DC00AC020E09E
:104E900030E040E050E4C201B1010E94B7DB1816D7
:104EA00014F44601570128A9222309F450C08CA903
:104EB0009DA9AEA9BFA9892B8A2B8B2B61F0D701A5
:104EC000C6012CA93DA94EA95FA9821B930BA40B77
:104ED000B50BB7FD3CC028AD3CAD21964FAD219739
:104EE00025965FAD259729966FAD29972D967FADB5
:104EF0002D9769968FAD699761969FAD61970E94D6
:104F000056D920E030E040EC5FE30E947ED287FD7E
:104F100006C1D701C601805A9541AF4FBF4F8CAB38
:104F20009DABAEABBFAB98AD29969FAF2997ACAD0B
:104F30002D96AFAF2D972196BFAD21976996BFAF44
:104F400069972596EFAD25976196EFAF61978091B0
:104F50003201882309F4E3C081149104A104B1044F
:104F600029F4C12ED02EE72CF62CCDCEF0E4CF1AAA
:104F7000FFE1DF0AE108F108C818D908EA08FB08D0
:104F8000F7FECDC0EECF8091671083FF02C00C9476
:104F9000083283E50E945439882311F40C940832B6
:104FA0000E9470380E94C3DA6436710514F064E61A
:104FB00070E070931507609314070E9406750C94B7
:104FC00008328091671083FF02C00C94083283E599
:104FD0000E94543925968FAF2597811107C082E52D
:104FE0000E945439882311F40C9408320E947038BE
:104FF0000E94C3DA6436710514F00C943134709356
:105000001507609314070E9406750E94703820E00F
:1050100030E040EA50E40E94B7DB181614F40E9416
:10502000C6C16091140770911507072E000C880BFC
:10503000990B0E9485D22091841030918510409167
:105040008610509187100E94B7DB181614F40C9448
:105050001D3382E194E060E00E947C8281E08093D5
:1050600032018091A1108093E30518AA19AA1AAA07
:105070001BAA68961CAE1DAE1EAE1FAE68971CA67E
:1050800029961FAE29972CE32D962FAF2D973CE143
:1050900069963FAF699746E461964FAF6197C12C1F
:1050A000D12C60E8E62E7FEBF72E812C912C540159
:1050B0006091140770911507072E000C880B990B4F
:1050C0000E9485D2162F072F782E692E262F372F74
:1050D000482F592FB601C7010E947ED2882311F4B0
:1050E0000C942133209184103091851040918610CA
:1050F00050918710612F702F872D962D0E947ED2A0
:10510000881F8827881F8CA725965FAD2597552374
:1051100011F40C942533882311F40C9425338091D9
:105120003201882311F40C9408320E9439B40C9493
:10513000083280E50E945439811106C083E50E943F
:105140005439882361F006C00E944C3881110C94B8
:105150000832F4CF0E943C386F3F710510F06FEFBA
:1051600070E07093910B6093900B0C94083280E583
:105170000E945439811106C01092910B1092900B2D
:105180000C9408320E943C38672B11F00C940832C2
:10519000F3CF0E949C750E94FA6E1092910B1092B0
:1051A000900B68EE73E080E090E00E94948160E0F4
:1051B00080E394E00E947C820C9408321092DF011C
:1051C0000C94083281E08093DF010C94083283E56F
:1051D0000E9454398823A1F00E94703820E030E00A
:1051E0004AE754E40E94E4D20E94CADA60934F0175
:1051F0007093500180935101909352010C940832A6
:1052000088E50E94A33881110C94353489E50E9409
:10521000A33881110C9435348AE50E94A33881119A
:105220000C94353485E40E94A33881110C943534F4
:105230000E94FA6E0C94083283E50E94A3388823FA
:1052400011F40C9408320E94703820E030E04AE7F4
:1052500054E40E94E4D20E94CADA6093F51070937D
:10526000F6108093F7109093F8100C94083244E5F0
:10527000C42E41E0D42E58E6E52E50E1F52E10E084
:10528000D6018D916D010E94A338882309F46DC069
:10529000133009F063C00E9470384B015C0120E0BC
:1052A00030E040EA51E40E947ED287FF4EC0A50163
:1052B00094016091741070917510809176109091A6
:1052C00077100E9451DA2B013C019B01AC016091E7
:1052D0003C0B70913D0B80913E0B90913F0B0E94D7
:1052E000E4D260933C0B70933D0B80933E0B909304
:1052F0003F0BA301920160916C0B70916D0B80913B
:105300006E0B90916F0B0E94E4D260936C0B7093C4
:105310006D0B80936E0B90936F0B60914C0B7091A3
:105320004D0B80914E0B90914F0B0E9483D2A301A5
:1053300092010E94E4D20E94CADA60934C0B7093EF
:105340004D0B80934E0B90934F0B80927410909264
:105350007510A0927610B092771007C00E94703836
:10536000F70160837183828393831F5FF4E0EF0E04
:10537000F11C143009F084CF0E94CE6E0C940832D8
:105380000E94E36D83E50E945439882311F40C9444
:10539000CF1F0E943C386230710511F00C94CF1F72
:1053A0000E945ABD8BE50E94213A6091E4107091F1
:1053B000E5108091E6109091E71042E00E94524182
:1053C0004091E8105091E9106091EA107091EB1053
:1053D00087E494E00E94BE6C4091EC105091ED1077
:1053E0006091EE107091EF1084E494E00E94BE6C26
:1053F0008DE50E94213A8AE00E94213A0C940832FD
:10540000E9E2F5E084918F010F5F1F4F882321F0BF
:105410000E94213AF801F6CF60E089E195E00E9410
:10542000853E60E082E195E00E94853E61E087E094
:1054300095E00E94853E61E087EF94E00E94853E02
:1054400060E08EEE94E00E94853E61E084EE94E0A0
:105450000E94853E60E08AED94E00E94853E60E017
:1054600082ED94E00E94853E60E084EC94E00E942E
:10547000853E60E086EB94E00E94853E60E087EA2E
:1054800094E00E94853E60E089E994E00E94853EB8
:1054900060E083E894E00E94853E60E082E794E06B
:1054A0000E94853E60E08DE594E00E94853E61E0CB
:1054B0008AE494E00E94853E0C9408328091881121
:1054C00090918911DC012C91222309F42ECE60E009
:1054D0000E94B6829DC7009188111091891183E0C6
:1054E000D12C40E08150E1F0F8019081292F2B7FF1
:1054F0002134C1F721812133A9F7913421F095346A
:1055000021F441E002C0DD24D39498012E5F3F4F87
:1055100089012F5F3F4FD8019C919032C9F3E2CFB0
:10552000442369F0EDE7F2E184917F01BFEFEB1ACC
:10553000FB0A882321F00E94213AF701F5CFDD20F4
:1055400069F0E3EFF5E084917F012FEFE21AF20AB0
:10555000882321F00E94213AF701F5CFD8018D91DF
:105560008D01882311F40C94CB220E94213AF6CFAE
:105570000E94BC564DC781E0809345078093440745
:1055800047C7109245071092440742C783E50E941F
:105590005439882319F00E943C3802C060E070E062
:1055A0008B01112702301105CCF0E2E6F2E1849183
:1055B0008F010F5F1F4F882321F00E94213AF801CD
:1055C000F6CFE7EFF5E084918F010F5F1F4F88233F
:1055D00009F41EC70E94213AF801F5CF88E40E9421
:1055E00054398823A1F00E943C386A3A710534F09E
:1055F000663F71052CF065EF70E002C06AEA70E06A
:10560000F801EE0FFF1FED59FD4F7183608386E4B3
:105610000E9454398823A9F00E943C38F801EE0F0B
:10562000FF1FE959FD4F718360836F3F710519F0CA
:1056300014F06FEF70E077FF02C060E070E07183FC
:10564000608382E40E945439882309F4E1C60E94F1
:105650003C386530710534F0663571052CF065E530
:1056600070E002C065E070E0000F111FF801E15A20
:10567000FD4F71836083CCC688EC90E00E94B23D00
:105680008111C6C684E40E94A3388823C1F10E9418
:10569000703811E020E030E0A9010E947ED2811133
:1056A00001C010E010938310112349F10E9470385B
:1056B000E091E305B4E0EB9FF0011124E158FF4EC7
:1056C000608371838283938320E030E0A90160913D
:1056D0007F107091801080918110909182100E94B3
:1056E0007ED281110CC080E090E0A0EEBFE38093F9
:1056F0007F1090938010A0938110B09382100E942D
:105700009C5386C61FE8E12E10E1F12E04E511E05E
:1057100084E0D82ED00EF80181918F010E94A33829
:10572000882351F00E9470380E94CADAD7016D9325
:105730007D938D939C931397B4E0EB0EF11CD012E4
:10574000EACF0E941B6D64C6B4E0EB0EF11CD016CC
:1057500009F45EC6F80181918F010E94A338882365
:1057600099F30E947038D7016D937D938D939C932C
:105770001397EACF83E50E9454398823A1F00E9451
:1057800070386093580B7093590B80935A0B909319
:105790005B0B6093540B7093550B8093560B909357
:1057A000570B10E001C011E080E50E9454398823B6
:1057B00059F00E9470386093580B7093590B809386
:1057C0005A0B90935B0B10E082E50E9454398823BA
:1057D00059F00E94703860935C0B70935D0B80935E
:1057E0005E0B90935F0B10E084E50E945439882390
:1057F00059F00E9470386093540B7093550B80934E
:10580000560B9093570B04C6112309F401C640911F
:10581000580B5091590B60915A0B70915B0B8FE1B3
:1058200096E00E94BE6C40915C0B50915D0B6091C4
:105830005E0B70915F0B8CE196E00E94BE6C409114
:10584000540B5091550B6091560B7091570B89E199
:1058500096E00E94BE6C8AE00E94213AD9C50E945F
:10586000EA38D6C50E94943FD3C5EDE7F2E18491B2
:105870008F010F5F1F4F882321F00E94213AF8010A
:10588000F6CF83E50E94A338882321F00E94603878
:1058900080934301E7E5F6E084918F010F5F1F4F8E
:1058A000882321F00E94213AF801F6CF809143012C
:1058B000811103C0E3E5F6E002C0EFE4F6E0849175
:1058C0008F010F5F1F4F882321F00E94213AF801BA
:1058D000F6CFE7E4F6E084918F010F5F1F4F882336
:1058E00021F00E94213AF801F6CF2091F108309181
:1058F000F2084091F3085091F4086091FD0870910E
:10590000FE088091FF08909100090E9457D9AB01D1
:10591000BC0185E496E00E94BE6C2091F5083091B0
:10592000F6084091F7085091F808609101097091CC
:10593000020980910309909104090E9457D9AB0193
:10594000BC0182E496E00E94BE6C2091F90830917F
:10595000FA084091FB085091FC086091050970918C
:10596000060980910709909108090E9457D9AB0157
:10597000BC018FE396E00E94BE6CE7E3F6E0849101
:105980008F010F5F1F4F882321F00E94213AF801F9
:10599000F6CF2091F1083091F2084091F308509130
:1059A000F40860913701709138018091390190912C
:1059B0003A010E9457D9AB01BC0185E396E00E94F1
:1059C000BE6C2091F5083091F6084091F70850918F
:1059D000F80860913B0170913C0180913D019091EC
:1059E0003E010E9457D9AB01BC0182E396E00E94C0
:1059F000BE6C2091F9083091FA084091FB08509153
:105A0000FC0860913F0170914001809141019091AB
:105A100042010E9457D9AB01BC018FE296E00E947F
:105A2000BE6C8AE00E94213AF3C483E50E94543997
:105A3000882309F4EDC40E943C38709336016093CA
:105A40003501E6C40E94F43DE3C40E94463AE0C436
:105A50000E946139DDC485E40E945439811110C06F
:105A600080E50E94A338882391F00E9470386093EB
:105A7000520270935302809354029093550207C0D0
:105A80000E944C38882361F3E2E6F2E16EC089E4BB
:105A90000E94A338882381F00E9470382CEA35ECEC
:105AA00047E25EE30E94E4D260935A0270935B0285
:105AB00080935C0290935D0284E40E94A338882363
:105AC00081F00E9470382CEA35EC47E25EE30E94D8
:105AD00051DA609356027093570280935802909364
